{
  "_format": "hh-sol-artifact-1",
  "contractName": "RScaffold",
  "sourceName": "contracts/RScaffold.sol",
  "abi": [
    {
      "inputs": [
        {
          "internalType": "contract IAllocationStrategy",
          "name": "allocationStrategy",
          "type": "address"
        },
        {
          "internalType": "string",
          "name": "name_",
          "type": "string"
        },
        {
          "internalType": "string",
          "name": "symbol_",
          "type": "string"
        },
        {
          "internalType": "uint256",
          "name": "decimals_",
          "type": "uint256"
        }
      ],
      "stateMutability": "nonpayable",
      "type": "constructor"
    },
    {
      "anonymous": false,
      "inputs": [
        {
          "indexed": true,
          "internalType": "address",
          "name": "previousOwner",
          "type": "address"
        },
        {
          "indexed": true,
          "internalType": "address",
          "name": "newOwner",
          "type": "address"
        }
      ],
      "name": "OwnershipTransferred",
      "type": "event"
    },
    {
      "anonymous": false,
      "inputs": [
        {
          "indexed": false,
          "internalType": "address",
          "name": "_owner",
          "type": "address"
        },
        {
          "indexed": false,
          "internalType": "address",
          "name": "sender",
          "type": "address"
        },
        {
          "indexed": false,
          "internalType": "uint256",
          "name": "amountApproved",
          "type": "uint256"
        },
        {
          "indexed": false,
          "internalType": "uint256",
          "name": "amountWanted",
          "type": "uint256"
        }
      ],
      "name": "mintInternalTest",
      "type": "event"
    },
    {
      "anonymous": false,
      "inputs": [
        {
          "indexed": false,
          "internalType": "address",
          "name": "_owner",
          "type": "address"
        },
        {
          "indexed": false,
          "internalType": "uint256",
          "name": "amountRedeemed",
          "type": "uint256"
        }
      ],
      "name": "redeemTest",
      "type": "event"
    },
    {
      "inputs": [],
      "name": "_guardCounter",
      "outputs": [
        {
          "internalType": "uint256",
          "name": "",
          "type": "uint256"
        }
      ],
      "stateMutability": "view",
      "type": "function"
    },
    {
      "inputs": [],
      "name": "_owner",
      "outputs": [
        {
          "internalType": "address",
          "name": "",
          "type": "address"
        }
      ],
      "stateMutability": "view",
      "type": "function"
    },
    {
      "inputs": [
        {
          "internalType": "address",
          "name": "",
          "type": "address"
        }
      ],
      "name": "accountStats",
      "outputs": [
        {
          "internalType": "uint256",
          "name": "cumulativeInterest",
          "type": "uint256"
        }
      ],
      "stateMutability": "view",
      "type": "function"
    },
    {
      "inputs": [
        {
          "internalType": "address",
          "name": "",
          "type": "address"
        }
      ],
      "name": "accounts",
      "outputs": [
        {
          "internalType": "uint256",
          "name": "hatID",
          "type": "uint256"
        },
        {
          "internalType": "uint256",
          "name": "rAmount",
          "type": "uint256"
        },
        {
          "internalType": "uint256",
          "name": "rInterest",
          "type": "uint256"
        },
        {
          "internalType": "uint256",
          "name": "lDebt",
          "type": "uint256"
        },
        {
          "internalType": "uint256",
          "name": "sInternalAmount",
          "type": "uint256"
        }
      ],
      "stateMutability": "view",
      "type": "function"
    },
    {
      "inputs": [
        {
          "internalType": "address",
          "name": "owner",
          "type": "address"
        },
        {
          "internalType": "address",
          "name": "spender",
          "type": "address"
        }
      ],
      "name": "allowance",
      "outputs": [
        {
          "internalType": "uint256",
          "name": "",
          "type": "uint256"
        }
      ],
      "stateMutability": "view",
      "type": "function"
    },
    {
      "inputs": [
        {
          "internalType": "address",
          "name": "spender",
          "type": "address"
        },
        {
          "internalType": "uint256",
          "name": "amount",
          "type": "uint256"
        }
      ],
      "name": "approve",
      "outputs": [
        {
          "internalType": "bool",
          "name": "",
          "type": "bool"
        }
      ],
      "stateMutability": "nonpayable",
      "type": "function"
    },
    {
      "inputs": [
        {
          "internalType": "address",
          "name": "owner",
          "type": "address"
        }
      ],
      "name": "balanceOf",
      "outputs": [
        {
          "internalType": "uint256",
          "name": "",
          "type": "uint256"
        }
      ],
      "stateMutability": "view",
      "type": "function"
    },
    {
      "inputs": [
        {
          "internalType": "uint256",
          "name": "hatID",
          "type": "uint256"
        }
      ],
      "name": "changeHat",
      "outputs": [
        {
          "internalType": "bool",
          "name": "",
          "type": "bool"
        }
      ],
      "stateMutability": "nonpayable",
      "type": "function"
    },
    {
      "inputs": [
        {
          "internalType": "address",
          "name": "contractAddress",
          "type": "address"
        },
        {
          "internalType": "uint256",
          "name": "hatID",
          "type": "uint256"
        }
      ],
      "name": "changeHatFor",
      "outputs": [],
      "stateMutability": "nonpayable",
      "type": "function"
    },
    {
      "inputs": [
        {
          "internalType": "address[]",
          "name": "recipients",
          "type": "address[]"
        },
        {
          "internalType": "uint32[]",
          "name": "proportions",
          "type": "uint32[]"
        },
        {
          "internalType": "bool",
          "name": "doChangeHat",
          "type": "bool"
        }
      ],
      "name": "createHat",
      "outputs": [
        {
          "internalType": "uint256",
          "name": "hatID",
          "type": "uint256"
        }
      ],
      "stateMutability": "nonpayable",
      "type": "function"
    },
    {
      "inputs": [],
      "name": "decimals",
      "outputs": [
        {
          "internalType": "uint256",
          "name": "",
          "type": "uint256"
        }
      ],
      "stateMutability": "view",
      "type": "function"
    },
    {
      "inputs": [
        {
          "internalType": "address",
          "name": "owner",
          "type": "address"
        }
      ],
      "name": "getHatByAddress",
      "outputs": [
        {
          "internalType": "uint256",
          "name": "hatID",
          "type": "uint256"
        },
        {
          "internalType": "address[]",
          "name": "recipients",
          "type": "address[]"
        },
        {
          "internalType": "uint32[]",
          "name": "proportions",
          "type": "uint32[]"
        }
      ],
      "stateMutability": "view",
      "type": "function"
    },
    {
      "inputs": [
        {
          "internalType": "uint256",
          "name": "hatID",
          "type": "uint256"
        }
      ],
      "name": "getHatByID",
      "outputs": [
        {
          "internalType": "address[]",
          "name": "recipients",
          "type": "address[]"
        },
        {
          "internalType": "uint32[]",
          "name": "proportions",
          "type": "uint32[]"
        }
      ],
      "stateMutability": "view",
      "type": "function"
    },
    {
      "inputs": [],
      "name": "getMaximumHatID",
      "outputs": [
        {
          "internalType": "uint256",
          "name": "hatID",
          "type": "uint256"
        }
      ],
      "stateMutability": "view",
      "type": "function"
    },
    {
      "inputs": [
        {
          "internalType": "uint256",
          "name": "",
          "type": "uint256"
        }
      ],
      "name": "hatStats",
      "outputs": [
        {
          "internalType": "uint256",
          "name": "useCount",
          "type": "uint256"
        },
        {
          "internalType": "uint256",
          "name": "totalLoans",
          "type": "uint256"
        },
        {
          "internalType": "uint256",
          "name": "totalInternalSavings",
          "type": "uint256"
        }
      ],
      "stateMutability": "view",
      "type": "function"
    },
    {
      "inputs": [],
      "name": "ias",
      "outputs": [
        {
          "internalType": "contract IAllocationStrategy",
          "name": "",
          "type": "address"
        }
      ],
      "stateMutability": "view",
      "type": "function"
    },
    {
      "inputs": [],
      "name": "initialized",
      "outputs": [
        {
          "internalType": "bool",
          "name": "",
          "type": "bool"
        }
      ],
      "stateMutability": "view",
      "type": "function"
    },
    {
      "inputs": [
        {
          "internalType": "address",
          "name": "owner",
          "type": "address"
        }
      ],
      "name": "interestPayableOf",
      "outputs": [
        {
          "internalType": "uint256",
          "name": "amount",
          "type": "uint256"
        }
      ],
      "stateMutability": "view",
      "type": "function"
    },
    {
      "inputs": [
        {
          "internalType": "uint256",
          "name": "mintAmount",
          "type": "uint256"
        }
      ],
      "name": "mint",
      "outputs": [
        {
          "internalType": "bool",
          "name": "",
          "type": "bool"
        }
      ],
      "stateMutability": "nonpayable",
      "type": "function"
    },
    {
      "inputs": [
        {
          "internalType": "uint256",
          "name": "mintAmount",
          "type": "uint256"
        },
        {
          "internalType": "address[]",
          "name": "recipients",
          "type": "address[]"
        },
        {
          "internalType": "uint32[]",
          "name": "proportions",
          "type": "uint32[]"
        }
      ],
      "name": "mintWithNewHat",
      "outputs": [
        {
          "internalType": "bool",
          "name": "",
          "type": "bool"
        }
      ],
      "stateMutability": "nonpayable",
      "type": "function"
    },
    {
      "inputs": [
        {
          "internalType": "uint256",
          "name": "mintAmount",
          "type": "uint256"
        },
        {
          "internalType": "uint32",
          "name": "proportion",
          "type": "uint32"
        }
      ],
      "name": "mintWithNewHatForBuidlGuidl",
      "outputs": [
        {
          "internalType": "bool",
          "name": "",
          "type": "bool"
        }
      ],
      "stateMutability": "nonpayable",
      "type": "function"
    },
    {
      "inputs": [
        {
          "internalType": "uint256",
          "name": "mintAmount",
          "type": "uint256"
        },
        {
          "internalType": "uint256",
          "name": "hatID",
          "type": "uint256"
        }
      ],
      "name": "mintWithSelectedHat",
      "outputs": [
        {
          "internalType": "bool",
          "name": "",
          "type": "bool"
        }
      ],
      "stateMutability": "nonpayable",
      "type": "function"
    },
    {
      "inputs": [],
      "name": "name",
      "outputs": [
        {
          "internalType": "string",
          "name": "",
          "type": "string"
        }
      ],
      "stateMutability": "view",
      "type": "function"
    },
    {
      "inputs": [],
      "name": "owner",
      "outputs": [
        {
          "internalType": "address",
          "name": "",
          "type": "address"
        }
      ],
      "stateMutability": "view",
      "type": "function"
    },
    {
      "inputs": [
        {
          "internalType": "address",
          "name": "owner",
          "type": "address"
        }
      ],
      "name": "payInterest",
      "outputs": [
        {
          "internalType": "bool",
          "name": "",
          "type": "bool"
        }
      ],
      "stateMutability": "nonpayable",
      "type": "function"
    },
    {
      "inputs": [
        {
          "internalType": "address",
          "name": "owner",
          "type": "address"
        }
      ],
      "name": "receivedLoanOf",
      "outputs": [
        {
          "internalType": "uint256",
          "name": "amount",
          "type": "uint256"
        }
      ],
      "stateMutability": "view",
      "type": "function"
    },
    {
      "inputs": [
        {
          "internalType": "address",
          "name": "owner",
          "type": "address"
        }
      ],
      "name": "receivedSavingsOf",
      "outputs": [
        {
          "internalType": "uint256",
          "name": "amount",
          "type": "uint256"
        }
      ],
      "stateMutability": "view",
      "type": "function"
    },
    {
      "inputs": [
        {
          "internalType": "uint256",
          "name": "redeemTokens",
          "type": "uint256"
        }
      ],
      "name": "redeem",
      "outputs": [
        {
          "internalType": "bool",
          "name": "",
          "type": "bool"
        }
      ],
      "stateMutability": "nonpayable",
      "type": "function"
    },
    {
      "inputs": [],
      "name": "redeemAll",
      "outputs": [
        {
          "internalType": "bool",
          "name": "",
          "type": "bool"
        }
      ],
      "stateMutability": "nonpayable",
      "type": "function"
    },
    {
      "inputs": [
        {
          "internalType": "address",
          "name": "redeemTo",
          "type": "address"
        },
        {
          "internalType": "uint256",
          "name": "redeemTokens",
          "type": "uint256"
        }
      ],
      "name": "redeemAndTransfer",
      "outputs": [
        {
          "internalType": "bool",
          "name": "",
          "type": "bool"
        }
      ],
      "stateMutability": "nonpayable",
      "type": "function"
    },
    {
      "inputs": [
        {
          "internalType": "address",
          "name": "redeemTo",
          "type": "address"
        }
      ],
      "name": "redeemAndTransferAll",
      "outputs": [
        {
          "internalType": "bool",
          "name": "",
          "type": "bool"
        }
      ],
      "stateMutability": "nonpayable",
      "type": "function"
    },
    {
      "inputs": [],
      "name": "renounceOwnership",
      "outputs": [],
      "stateMutability": "nonpayable",
      "type": "function"
    },
    {
      "inputs": [],
      "name": "savingAssetConversionRate",
      "outputs": [
        {
          "internalType": "uint256",
          "name": "",
          "type": "uint256"
        }
      ],
      "stateMutability": "view",
      "type": "function"
    },
    {
      "inputs": [],
      "name": "savingAssetOrignalAmount",
      "outputs": [
        {
          "internalType": "uint256",
          "name": "",
          "type": "uint256"
        }
      ],
      "stateMutability": "view",
      "type": "function"
    },
    {
      "inputs": [],
      "name": "symbol",
      "outputs": [
        {
          "internalType": "string",
          "name": "",
          "type": "string"
        }
      ],
      "stateMutability": "view",
      "type": "function"
    },
    {
      "inputs": [],
      "name": "token",
      "outputs": [
        {
          "internalType": "contract IERC20",
          "name": "",
          "type": "address"
        }
      ],
      "stateMutability": "view",
      "type": "function"
    },
    {
      "inputs": [],
      "name": "totalSupply",
      "outputs": [
        {
          "internalType": "uint256",
          "name": "",
          "type": "uint256"
        }
      ],
      "stateMutability": "view",
      "type": "function"
    },
    {
      "inputs": [
        {
          "internalType": "address",
          "name": "dst",
          "type": "address"
        },
        {
          "internalType": "uint256",
          "name": "amount",
          "type": "uint256"
        }
      ],
      "name": "transfer",
      "outputs": [
        {
          "internalType": "bool",
          "name": "",
          "type": "bool"
        }
      ],
      "stateMutability": "nonpayable",
      "type": "function"
    },
    {
      "inputs": [
        {
          "internalType": "address",
          "name": "dst",
          "type": "address"
        }
      ],
      "name": "transferAll",
      "outputs": [
        {
          "internalType": "bool",
          "name": "",
          "type": "bool"
        }
      ],
      "stateMutability": "nonpayable",
      "type": "function"
    },
    {
      "inputs": [
        {
          "internalType": "address",
          "name": "src",
          "type": "address"
        },
        {
          "internalType": "address",
          "name": "dst",
          "type": "address"
        }
      ],
      "name": "transferAllFrom",
      "outputs": [
        {
          "internalType": "bool",
          "name": "",
          "type": "bool"
        }
      ],
      "stateMutability": "nonpayable",
      "type": "function"
    },
    {
      "inputs": [
        {
          "internalType": "address",
          "name": "",
          "type": "address"
        },
        {
          "internalType": "address",
          "name": "",
          "type": "address"
        }
      ],
      "name": "transferAllowances",
      "outputs": [
        {
          "internalType": "uint256",
          "name": "",
          "type": "uint256"
        }
      ],
      "stateMutability": "view",
      "type": "function"
    },
    {
      "inputs": [
        {
          "internalType": "address",
          "name": "src",
          "type": "address"
        },
        {
          "internalType": "address",
          "name": "dst",
          "type": "address"
        },
        {
          "internalType": "uint256",
          "name": "amount",
          "type": "uint256"
        }
      ],
      "name": "transferFrom",
      "outputs": [
        {
          "internalType": "bool",
          "name": "",
          "type": "bool"
        }
      ],
      "stateMutability": "nonpayable",
      "type": "function"
    },
    {
      "inputs": [
        {
          "internalType": "address",
          "name": "newOwner",
          "type": "address"
        }
      ],
      "name": "transferOwnership",
      "outputs": [],
      "stateMutability": "nonpayable",
      "type": "function"
    }
  ],
  "bytecode": "0x60806040523480156200001157600080fd5b50604051620037233803806200372383398101604081905262000034916200057f565b6000620000496001600160e01b03620002a816565b600080546001600160a01b0319166001600160a01b0383169081178255604051929350917f8be0079c531659141344cd1fd0a4f28419497f9722a3daafe3b4186f6b6457e0908290a350600154600160a01b900460ff1615620000c95760405162461bcd60e51b8152600401620000c09062000603565b60405180910390fd5b600180546001600160a01b031960ff60a01b19909116600160a01b171633178155600255825162000102906003906020860190620002ad565b50815162000118906004906020850190620002ad565b506005819055670de0b6b3a7640000600a55600780546001600160a01b0319166001600160a01b03868116919091179182905560408051636f307dc360e01b815290519290911691636f307dc391600480820192602092909190829003018186803b1580156200018757600080fd5b505afa1580156200019c573d6000803e3d6000fd5b505050506040513d601f19601f82011682018060405250620001c2919081019062000559565b600880546001600160a01b03929092166001600160a01b031990921691909117905560408051600081830181815260608301845282528251818152602080820190945283830152600c8054600181018255915281518051929360029092027fdf6966c971051c3d54ec59162606531493a51404a002842f56009d7e5cf4a8c7019262000252928492019062000332565b5060208281015180516200026d926001850192019062000398565b5050600080525050600f60205250506000197ff4803e074bd026baaf6ed2e288c9515f68c72fb7216eebdd7cae1718a53ec375555062000665565b335b90565b828054600181600116156101000203166002900490600052602060002090601f016020900481019282601f10620002f057805160ff191683800117855562000320565b8280016001018555821562000320579182015b828111156200032057825182559160200191906001019062000303565b506200032e9291506200044a565b5090565b8280548282559060005260206000209081019282156200038a579160200282015b828111156200038a57825182546001600160a01b0319166001600160a01b0390911617825560209092019160019091019062000353565b506200032e92915062000467565b828054828255906000526020600020906007016008900481019282156200043c5791602002820160005b838211156200040857835183826101000a81548163ffffffff021916908363ffffffff1602179055509260200192600401602081600301049283019260010302620003c2565b80156200043a5782816101000a81549063ffffffff021916905560040160208160030104928301926001030262000408565b505b506200032e9291506200048e565b620002aa91905b808211156200032e576000815560010162000451565b620002aa91905b808211156200032e5780546001600160a01b03191681556001016200046e565b620002aa91905b808211156200032e57805463ffffffff1916815560010162000495565b600082601f830112620004c3578081fd5b81516001600160401b0380821115620004da578283fd5b6040516020601f8401601f1916820181018381118382101715620004fc578586fd5b806040525081945083825286818588010111156200051957600080fd5b600092505b838310156200053d57858301810151828401820152918201916200051e565b838311156200054f5760008185840101525b5050505092915050565b6000602082840312156200056b578081fd5b815162000578816200064c565b9392505050565b6000806000806080858703121562000595578283fd5b8451620005a2816200064c565b60208601519094506001600160401b0380821115620005bf578485fd5b620005cd88838901620004b2565b94506040870151915080821115620005e3578384fd5b50620005f287828801620004b2565b606096909601519497939650505050565b60208082526029908201527f546865206c6962726172792068617320616c7265616479206265656e20696e696040820152683a34b0b634bd32b21760b91b606082015260800190565b6001600160a01b03811681146200066257600080fd5b50565b6130ae80620006756000396000f3fe608060405234801561001057600080fd5b50600436106102695760003560e01c8063715018a611610151578063bf5bfdfb116100c3578063db006a7511610087578063db006a7514610500578063dd62ed3e14610513578063f04bf8b314610526578063f2fde38b14610548578063fc0c546a1461055b578063fdbbf8ac1461056357610269565b8063bf5bfdfb146104b7578063c200659e146104bf578063d007c644146104c7578063d271be3f146104da578063d51e0ecf146104ed57610269565b806395d89b411161011557806395d89b411461045b578063a0712d6814610463578063a3a7e7f314610476578063a9059cbb14610489578063b2bdfa7b1461049c578063b5dbfc1a146104a457610269565b8063715018a61461041d57806371ee46eb1461042557806377ede0511461042d57806384d4b410146104405780638da5cb5b1461045357610269565b80632f4350c2116101ea578063496cc164116101ae578063496cc16414610398578063556043ef146103ab5780635cde5055146103c05780635e5c06e2146103d357806363152a50146103f757806370a082311461040a57610269565b80632f4350c214610358578063313ce56714610360578063388c0b8c146103685780633e20a9291461037b5780634929fbf71461038357610269565b8063158ef93e11610231578063158ef93e1461030157806318160ddd146103095780631cda95d51461031157806323b872dd146103325780632f2ba8141461034557610269565b80630290cbc81461026e578063054ab01a1461029757806306fdde03146102b9578063095ea7b3146102ce57806313e23e41146102e1575b600080fd5b61028161027c366004612748565b610576565b60405161028e9190612b1c565b60405180910390f35b6102aa6102a5366004612748565b6105b4565b60405161028e93929190612fe4565b6102c16105e3565b60405161028e9190612b27565b6102816102dc3660046127d7565b610671565b6102f46102ef366004612748565b6106a0565b60405161028e9190612fdb565b6102816106be565b6102f46106ce565b61032461031f36600461289e565b6106d4565b60405161028e929190612af7565b610281610340366004612797565b6106ea565b61028161035336600461289e565b610714565b610281610731565b6102f46107c3565b610281610376366004612945565b6107c9565b6102f46107f0565b6103966103913660046127d7565b6107fa565b005b6102f46103a6366004612748565b61086b565b6103b361087d565b60405161028e9190612a63565b6102f46103ce366004612801565b61088c565b6103e66103e1366004612748565b610916565b60405161028e95949392919061302f565b6102f4610405366004612763565b610945565b6102f4610418366004612748565b610962565b610396610980565b6102f46109ff565b6102f461043b366004612748565b610a05565b61028161044e366004612763565b610a2d565b6103b3610a6c565b6102c1610a7b565b61028161047136600461289e565b610ad6565b610281610484366004612748565b610ae1565b6102816104973660046127d7565b610b21565b6103b3610b42565b6102816104b23660046128ce565b610b51565b6102f4610bec565b6102f4610bf2565b6102816104d5366004612748565b610bf8565b6102816104e83660046127d7565b610c03565b6102816104fb366004612966565b610c19565b61028161050e36600461289e565b610d53565b6102f4610521366004612763565b610d69565b61053961053436600461289e565b610d94565b60405161028e93929190613019565b610396610556366004612748565b610db5565b6103b3610e6b565b6102f4610571366004612748565b610e7a565b60003361058281610eaa565b6001600160a01b0381166000908152600d60205260409020600101546105a9908490610fd6565b60019150505b919050565b6001600160a01b0381166000908152600d60205260409020546060806105d983611105565b9395909450915050565b6003805460408051602060026001851615610100026000190190941693909304601f810184900484028201840190925281815292918301828280156106695780601f1061063e57610100808354040283529160200191610669565b820191906000526020600020905b81548152906001019060200180831161064c57829003601f168201915b505050505081565b336000908152600b602090815260408083206001600160a01b0386168452909152902081905560015b92915050565b6001600160a01b03166000908152600d602052604090206004015490565b600154600160a01b900460ff1681565b60065481565b6060806106e083611105565b9094909350915050565b60006106f584610eaa565b61070133858585611267565b61070a83610eaa565b5060019392505050565b600061072033836114aa565b61072933610eaa565b506001919050565b60003361073d81610eaa565b6001600160a01b0381166000908152600d6020526040908190206001015490517f101d644328d76d46044b18876b706237b175a8146ef4acc7390c967cd36f43739161078b91339190612ab5565b60405180910390a16001600160a01b0381166000908152600d60205260409020600101546107ba908290610fd6565b60019150505b90565b60055481565b60006107d533836114aa565b6107de83611557565b6107e733610eaa565b50600192915050565b600c546000190190565b610802611894565b6000546001600160a01b039081169116146108385760405162461bcd60e51b815260040161082f90612e26565b60405180910390fd5b61084182611898565b61085d5760405162461bcd60e51b815260040161082f90612cfa565b61086782826114aa565b5050565b600e6020526000908152604090205481565b6007546001600160a01b031681565b60006108fb86868080602002602001604051908101604052809392919081815260200183836020028082843760009201919091525050604080516020808a0282810182019093528982529093508992508891829185019084908082843760009201919091525061189e92505050565b9050811561090d5761090d33826114aa565b95945050505050565b600d60205260009081526040902080546001820154600283015460048401546005909401549293919290919085565b600b60209081526000928352604080842090915290825290205481565b6001600160a01b03166000908152600d602052604090206001015490565b610988611894565b6000546001600160a01b039081169116146109b55760405162461bcd60e51b815260040161082f90612e26565b600080546040516001600160a01b03909116907f8be0079c531659141344cd1fd0a4f28419497f9722a3daafe3b4186f6b6457e0908390a3600080546001600160a01b0319169055565b60095481565b6001600160a01b0381166000908152600d60205260408120610a2681611ab1565b9392505050565b6000610a3883610eaa565b6001600160a01b0383166000908152600d6020526040902060010154610a6390339085908590611267565b6107e782610eaa565b6000546001600160a01b031690565b6004805460408051602060026001851615610100026000190190941693909304601f810184900484028201840190925281815292918301828280156106695780601f1061063e57610100808354040283529160200191610669565b600061072082611557565b600033610aed81610eaa565b6001600160a01b0381166000908152600d6020526040902060010154610b1890829081908690611267565b6105a983610eaa565b600033610b2d81610eaa565b610b3981828686611267565b61070a84610eaa565b6001546001600160a01b031681565b600080610bc186868080602002602001604051908101604052809392919081815260200183836020028082843760009201919091525050604080516020808a0282810182019093528982529093508992508891829185019084908082843760009201919091525061189e92505050565b9050610bcd33826114aa565b610bd687611557565b610bdf33610eaa565b5060019695505050505050565b60025481565b600a5481565b600061072982610eaa565b600033610c0f81610eaa565b61070a8484610fd6565b60408051600280825260608083018452600093909291906020830190803883390190505090503381600081518110610c4d57fe5b60200260200101906001600160a01b031690816001600160a01b0316815250507397843608a00e2bbc75ab0c1911387e002565dede81600181518110610c8f57fe5b6001600160a01b039092166020928302919091019091015260408051600280825260608281019093528160200160208202803883390190505090508360640381600081518110610cdb57fe5b602002602001019063ffffffff16908163ffffffff16815250508381600181518110610d0357fe5b602002602001019063ffffffff16908163ffffffff16815250506000610d29838361189e565b9050610d3533826114aa565b610d3e86611557565b610d4733610eaa565b50600195945050505050565b600033610d5f81610eaa565b6105a98184610fd6565b6001600160a01b039182166000908152600b6020908152604080832093909416825291909152205490565b600f6020526000908152604090208054600182015460029092015490919083565b610dbd611894565b6000546001600160a01b03908116911614610dea5760405162461bcd60e51b815260040161082f90612e26565b6001600160a01b038116610e105760405162461bcd60e51b815260040161082f90612baa565b600080546040516001600160a01b03808516939216917f8be0079c531659141344cd1fd0a4f28419497f9722a3daafe3b4186f6b6457e091a3600080546001600160a01b0319166001600160a01b0392909216919091179055565b6008546001600160a01b031681565b6001600160a01b0381166000908152600d6020526040812060058101548290610ea290611afd565b949350505050565b6001600160a01b038082166000908152600d60209081526040808320600e8352818420600754835163a6afed9560e01b815293519296919591169363a6afed95936004808201949293918390030190829087803b158015610f0a57600080fd5b505af1158015610f1e573d6000803e3d6000fd5b505050506040513d601f19601f82011682018060405250610f429190810190612882565b610f5e5760405162461bcd60e51b815260040161082f90612b3a565b6000610f6983611ab1565b90508015610fd0578154610f83908263ffffffff611ba716565b82556002830154610f9a908263ffffffff611ba716565b60028401556001830154610fb4908263ffffffff611ba716565b6001840155600654610fcc908263ffffffff611ba716565b6006555b50505050565b336000908152600d60205260409020816110025760405162461bcd60e51b815260040161082f90612e92565b80600101548211156110265760405162461bcd60e51b815260040161082f90612d7f565b6110303383611bcc565b6001810154611045908363ffffffff611c8716565b600182015560065461105d908363ffffffff611c8716565b60065560085460405163a9059cbb60e01b81526001600160a01b039091169063a9059cbb906110929086908690600401612ab5565b602060405180830381600087803b1580156110ac57600080fd5b505af11580156110c0573d6000803e3d6000fd5b505050506040513d601f19601f820116820180604052506110e49190810190612882565b6111005760405162461bcd60e51b815260040161082f90612db6565b505050565b606080821580159061111957506000198314155b1561124857611126612579565b600c848154811061113357fe5b9060005260206000209060020201604051806040016040529081600082018054806020026020016040519081016040528092919081815260200182805480156111a557602002820191906000526020600020905b81546001600160a01b03168152600190910190602001808311611187575b505050505081526020016001820180548060200260200160405190810160405280929190818152602001828054801561122957602002820191906000526020600020906000905b82829054906101000a900463ffffffff1663ffffffff16815260200190600401906020826003010492830192600103820291508084116111ec5790505b5050505050815250509050806000015192508060200151915050611262565b505060408051600080825260208201908152818301909252905b915091565b816001600160a01b0316836001600160a01b031614156112995760405162461bcd60e51b815260040161082f90612d48565b6001600160a01b0383166000908152600d60205260409020600101548111156112d45760405162461bcd60e51b815260040161082f90612e5b565b60006001600160a01b0385811690851614156112f3575060001961131b565b506001600160a01b038084166000908152600b60209081526040808320938816835292905220545b8181101561133b5760405162461bcd60e51b815260040161082f90612b69565b600061134d828463ffffffff611c8716565b6001600160a01b0386166000908152600d60205260408120600101549192509061137d908563ffffffff611c8716565b6001600160a01b0386166000908152600d6020526040812060010154919250906113ad908663ffffffff611ba716565b905060001984146113e1576001600160a01b038088166000908152600b60209081526040808320938c168352929052208390555b60006113ed8887611cc9565b90506113fa878783611d78565b6001600160a01b038089166000818152600d60205260408082206001808201899055948c16835290822090930185905552541580159061145057506001600160a01b0387166000908152600d6020526040902054155b801561147657506001600160a01b0388166000908152600d602052604090205460001914155b1561149f576001600160a01b0388166000908152600d602052604090205461149f9088906114aa565b505050505050505050565b6000198114806114bb5750600c5481105b6114d75760405162461bcd60e51b815260040161082f90612c25565b6001600160a01b0382166000908152600d602090815260408083208054808552600f9093528184208585529190932060018401541561153d576000611520878660010154611cc9565b868655600186015490915061153790889083611d78565b50611541565b8484555b8154600019019091558054600101905550505050565b6001546001600160a01b03166000818152600b60209081526040808320338085529252918290205491517fdcd34b0cf3b7b5c0ca77b489f4f99d8fe4daa24477f7a12fb6bc8e4b8d4291cc936115b1939092918690612ace565b60405180910390a1600854604051636eb1769f60e11b815282916001600160a01b03169063dd62ed3e906115eb9033903090600401612a77565b60206040518083038186803b15801561160357600080fd5b505afa158015611617573d6000803e3d6000fd5b505050506040513d601f19601f8201168201806040525061163b91908101906128b6565b10156116595760405162461bcd60e51b815260040161082f90612ec9565b336000818152600d60205260409081902060085491516323b872dd60e01b815290926001600160a01b03909216916323b872dd9161169e919030908790600401612a91565b602060405180830381600087803b1580156116b857600080fd5b505af11580156116cc573d6000803e3d6000fd5b505050506040513d601f19601f820116820180604052506116f09190810190612882565b61170c5760405162461bcd60e51b815260040161082f90612db6565b60085460075460405163095ea7b360e01b81526001600160a01b039283169263095ea7b392611742929116908690600401612ab5565b602060405180830381600087803b15801561175c57600080fd5b505af1158015611770573d6000803e3d6000fd5b505050506040513d601f19601f820116820180604052506117949190810190612882565b6117b05760405162461bcd60e51b815260040161082f90612ccc565b600754604051630305da4f60e61b81526000916001600160a01b03169063c17693c0906117e1908690600401612fdb565b602060405180830381600087803b1580156117fb57600080fd5b505af115801561180f573d6000803e3d6000fd5b505050506040513d601f19601f8201168201806040525061183391908101906128b6565b600654909150611849908463ffffffff611ba716565b6006556001820154611861908463ffffffff611ba716565b6001830155600954611879908263ffffffff611ba716565b600955600061188782612020565b9050610fd0338583611d78565b3390565b3b151590565b60008060008451116118c25760405162461bcd60e51b815260040161082f90612f98565b6032845111156118e45760405162461bcd60e51b815260040161082f90612ef7565b82518451146119055760405162461bcd60e51b815260040161082f90612bf0565b506000805b84518210156119bb57600084838151811061192157fe5b602002602001015163ffffffff161161194c5760405162461bcd60e51b815260040161082f90612f49565b60006001600160a01b031685838151811061196357fe5b60200260200101516001600160a01b031614156119925760405162461bcd60e51b815260040161082f90612c84565b83828151811061199e57fe5b602002602001015163ffffffff168101905081600101915061190a565b600091505b8351821015611a25578063ffffffff80168584815181106119dd57fe5b602002602001015163ffffffff1602816119f357fe5b04848381518110611a0057fe5b602002602001019063ffffffff16908163ffffffff16815250508160010191506119c0565b604080518082019091528581526020808201869052600c80546001810182556000919091528251805160029092027fdf6966c971051c3d54ec59162606531493a51404a002842f56009d7e5cf4a8c70192611a8592849290910190612593565b506020828101518051611a9e92600185019201906125f8565b5050600c54600019019695505050505050565b600080611ac18360050154611afd565b9050611ade83600201548460040154611ba790919063ffffffff16565b811115611af3576004830154900390506105af565b60009150506105af565b600061069a600a54611b9b600760009054906101000a90046001600160a01b03166001600160a01b031663182df0f56040518163ffffffff1660e01b815260040160206040518083038186803b158015611b5657600080fd5b505afa158015611b6a573d6000803e3d6000fd5b505050506040513d601f19601f82011682018060405250611b8e91908101906128b6565b859063ffffffff61204316565b9063ffffffff61207d16565b600082820183811015610a265760405162461bcd60e51b815260040161082f90612c4d565b60075460405163852a12e360e01b81526000916001600160a01b03169063852a12e390611bfd908590600401612fdb565b602060405180830381600087803b158015611c1757600080fd5b505af1158015611c2b573d6000803e3d6000fd5b505050506040513d601f19601f82011682018060405250611c4f91908101906128b6565b9050611c5a81612020565b50611c6583836120bf565b806009541115611c7d57600980548290039055611100565b6000600955505050565b6000610a2683836040518060400160405280601e81526020017f536166654d6174683a207375627472616374696f6e206f766572666c6f7700008152506123ac565b6007546040805163a6afed9560e01b815290516000926001600160a01b03169163a6afed9591600480830192602092919082900301818787803b158015611d0f57600080fd5b505af1158015611d23573d6000803e3d6000fd5b505050506040513d601f19601f82011682018060405250611d479190810190612882565b611d635760405162461bcd60e51b815260040161082f90612b3a565b611d6c826123d8565b905061069a83836120bf565b6001600160a01b0383166000908152600d602052604081208054909190600c9060001914611da7578254611daa565b60005b81548110611db457fe5b600091825260208220600290910201805490925015611fd15750600084845b6001840154831015611fca576000600d6000866000018681548110611df457fe5b60009182526020808320909101546001600160a01b03168352820192909252604001812060018701549092506000190185149081611e7f5763ffffffff8016611e72886001018881548110611e4557fe5b600091825260209091206008820401548d916007166004026101000a900463ffffffff9081169061204316565b81611e7957fe5b04611e81565b845b9050611ecd818960030160008a6000018a81548110611e9c57fe5b60009182526020808320909101546001600160a01b031683528201929092526040019020549063ffffffff611ba716565b886003016000896000018981548110611ee257fe5b60009182526020808320909101546001600160a01b031683528201929092526040019020556004830154611f1c908263ffffffff611ba716565b6004840155611f2b8582612477565b9450600082611f5a5763ffffffff8016611f4d896001018981548110611e4557fe5b81611f5457fe5b04611f5c565b845b6005850154909150611f74908263ffffffff611ba716565b6005850155611f838582612477565b9450611fbb8c896000018981548110611f9857fe5b6000918252602090912001548b546001600160a01b039091169060018686612492565b50505050826001019250611dd3565b5050612018565b6004830154611fe6908663ffffffff611ba716565b60048401556005830154612000908563ffffffff611ba716565b60058401558254612018908790819060018989612492565b505050505050565b600061069a670de0b6b3a7640000611b9b600a548561204390919063ffffffff16565b6000826120525750600061069a565b8282028284828161205f57fe5b0414610a265760405162461bcd60e51b815260040161082f90612de5565b6000610a2683836040518060400160405280601a81526020017f536166654d6174683a206469766973696f6e206279207a65726f000000000000815250612510565b6001600160a01b0382166000908152600d602052604081208054909190600c90600019146120ee5782546120f1565b60005b815481106120fb57fe5b90600052602060002090600202019050600061211f83600101548460020154612477565b90508381111561212c5750825b6000612137826123d8565b83549091501561233857818160005b6001860154811015612330576000600d600088600001848154811061216757fe5b60009182526020808320909101546001600160a01b031683528201929092526040018120600189015490925060001901831490816121f25763ffffffff80166121e58a60010186815481106121b857fe5b600091825260209091206008820401548b916007166004026101000a900463ffffffff9081169061204316565b816121ec57fe5b046121f4565b855b9050612204836004015482612477565b836004018190555061224f8a60030160008b600001878154811061222457fe5b60009182526020808320909101546001600160a01b0316835282019290925260400190205482612477565b8a60030160008b600001878154811061226457fe5b60009182526020808320909101546001600160a01b031683528201929092526040019020556122938682612477565b95506000826122c25763ffffffff80166122b58b60010187815481106121b857fe5b816122bc57fe5b046122c4565b855b90506122d4846005015482612477565b60058501556122e38682612477565b95506122ee84612547565b6123218d8b600001878154811061230157fe5b60009182526020822001548e546001600160a01b03909116918686612492565b50505050806001019050612146565b50505061237b565b612346846004015483612477565b6004850155600584015461235a9082612477565b600585015561236884612547565b61237b8687866000015460008686612492565b818511156120185761238e8286036123d8565b905061239e846005015482612477565b600585015561201884612547565b600081848411156123d05760405162461bcd60e51b815260040161082f9190612b27565b505050900390565b600061069a600760009054906101000a90046001600160a01b03166001600160a01b031663182df0f56040518163ffffffff1660e01b815260040160206040518083038186803b15801561242b57600080fd5b505afa15801561243f573d6000803e3d6000fd5b505050506040513d601f19601f8201168201806040525061246391908101906128b6565b600a54611b9b90859063ffffffff61204316565b6000818310156124895750600061069a565b5080820361069a565b6000848152600f6020526040902083156124df5760018101546124bb908463ffffffff611ba716565b600182015560028101546124d5908363ffffffff611ba716565b6002820155612507565b6124ed816001015484612477565b600182015560028101546125019083612477565b60028201555b50505050505050565b600081836125315760405162461bcd60e51b815260040161082f9190612b27565b50600083858161253d57fe5b0495945050505050565b60006125568260050154611afd565b905081600401548103826002015411156108675760048201549003600290910155565b604051806040016040528060608152602001606081525090565b8280548282559060005260206000209081019282156125e8579160200282015b828111156125e857825182546001600160a01b0319166001600160a01b039091161782556020909201916001909101906125b3565b506125f49291506126a3565b5090565b828054828255906000526020600020906007016008900481019282156126975791602002820160005b8382111561266557835183826101000a81548163ffffffff021916908363ffffffff1602179055509260200192600401602081600301049283019260010302612621565b80156126955782816101000a81549063ffffffff0219169055600401602081600301049283019260010302612665565b505b506125f49291506126c7565b6107c091905b808211156125f45780546001600160a01b03191681556001016126a9565b6107c091905b808211156125f457805463ffffffff191681556001016126cd565b80356001600160a01b038116811461069a57600080fd5b60008083601f840112612710578182fd5b50813567ffffffffffffffff811115612727578182fd5b602083019150836020808302850101111561274157600080fd5b9250929050565b600060208284031215612759578081fd5b610a2683836126e8565b60008060408385031215612775578081fd5b61277f84846126e8565b915061278e84602085016126e8565b90509250929050565b6000806000606084860312156127ab578081fd5b83356127b681613052565b925060208401356127c681613052565b929592945050506040919091013590565b600080604083850312156127e9578182fd5b6127f384846126e8565b946020939093013593505050565b600080600080600060608688031215612818578081fd5b853567ffffffffffffffff8082111561282f578283fd5b61283b89838a016126ff565b90975095506020880135915080821115612853578283fd5b50612860888289016126ff565b90945092505060408601356128748161306a565b809150509295509295909350565b600060208284031215612893578081fd5b8151610a268161306a565b6000602082840312156128af578081fd5b5035919050565b6000602082840312156128c7578081fd5b5051919050565b6000806000806000606086880312156128e5578081fd5b85359450602086013567ffffffffffffffff80821115612903578283fd5b61290f89838a016126ff565b90965094506040880135915080821115612927578283fd5b50612934888289016126ff565b969995985093965092949392505050565b60008060408385031215612957578182fd5b50508035926020909101359150565b60008060408385031215612978578182fd5b82359150602083013563ffffffff81168114612992578182fd5b809150509250929050565b6000815180845260208401935060208301825b828110156129d75781516001600160a01b03168652602095860195909101906001016129b0565b5093949350505050565b6000815180845260208401935060208301825b828110156129d757815163ffffffff168652602095860195909101906001016129f4565b60008151808452815b81811015612a3d57602081850181015186830182015201612a21565b81811115612a4e5782602083870101525b50601f01601f19169290920160200192915050565b6001600160a01b0391909116815260200190565b6001600160a01b0392831681529116602082015260400190565b6001600160a01b039384168152919092166020820152604081019190915260600190565b6001600160a01b03929092168252602082015260400190565b6001600160a01b0394851681529290931660208301526040820152606081019190915260800190565b600060408252612b0a604083018561299d565b828103602084015261090d81856129e1565b901515815260200190565b600060208252610a266020830184612a18565b6020808252601590820152741858d8dc9d59525b9d195c995cdd0819985a5b1959605a1b604082015260600190565b60208082526021908201527f4e6f7420656e6f75676820616c6c6f77616e636520666f72207472616e7366656040820152603960f91b606082015260800190565b60208082526026908201527f4f776e61626c653a206e6577206f776e657220697320746865207a65726f206160408201526564647265737360d01b606082015260800190565b6020808252818101527f496e76616c6964206861743a206c656e677468206e6f74206d61746368696e67604082015260600190565b6020808252600e908201526d125b9d985b1a59081a185d08125160921b604082015260600190565b6020808252601b908201527f536166654d6174683a206164646974696f6e206f766572666c6f770000000000604082015260600190565b60208082526028908201527f496e76616c6964206861743a20726563697069656e742073686f756c64206e6f604082015267074206265203078360c41b606082015260800190565b6020808252601490820152731d1bdad95b88185c1c1c9bdd994819985a5b195960621b604082015260600190565b6020808252602e908201527f41646d696e2063616e206f6e6c79206368616e67652068617420666f7220636f60408201526d6e7472616374206164647265737360901b606082015260800190565b60208082526018908201527f7372632073686f756c64206e6f7420657175616c206473740000000000000000604082015260600190565b6020808252601c908201527f4e6f7420656e6f7567682062616c616e636520746f2072656465656d00000000604082015260600190565b6020808252601590820152741d1bdad95b881d1c985b9cd9995c8819985a5b1959605a1b604082015260600190565b60208082526021908201527f536166654d6174683a206d756c7469706c69636174696f6e206f766572666c6f6040820152607760f81b606082015260800190565b6020808252818101527f4f776e61626c653a2063616c6c6572206973206e6f7420746865206f776e6572604082015260600190565b6020808252601e908201527f4e6f7420656e6f7567682062616c616e636520746f207472616e736665720000604082015260600190565b6020808252601c908201527f52656465656d20616d6f756e742063616e6e6f74206265207a65726f00000000604082015260600190565b6020808252601490820152734e6f7420656e6f75676820616c6c6f77616e636560601b604082015260600190565b60208082526032908201527f496e76616c696c64206861743a206d6178696d756d206e756d626572206f66206040820152711c9958da5c1a595b9d1cc81c995858da195960721b606082015260800190565b6020808252602f908201527f496e76616c6964206861743a2070726f706f7274696f6e2073686f756c64206260408201526e065206c6172676572207468616e203608c1b606082015260800190565b60208082526023908201527f496e76616c6964206861743a206174206c65617374206f6e6520726563697069604082015262195b9d60ea1b606082015260800190565b90815260200190565b600084825260606020830152612ffd606083018561299d565b828103604084015261300f81856129e1565b9695505050505050565b9283526020830191909152604082015260600190565b948552602085019390935260408401919091526060830152608082015260a00190565b6001600160a01b038116811461306757600080fd5b50565b801515811461306757600080fdfea264697066735822122002cc2ab602e5582d9e778c668ef2f15f871ec8f8c7af56be11534a0d30e132d564736f6c63430006000033",
  "linkReferences": {},
  "deployedLinkReferences": {}
}