{
  "contracts/RScaffold.sol": {
    "RScaffold": {
      "abi": [
        {
          "inputs": [
            {
              "internalType": "contract IAllocationStrategy",
              "name": "allocationStrategy",
              "type": "address"
            },
            {
              "internalType": "string",
              "name": "name_",
              "type": "string"
            },
            {
              "internalType": "string",
              "name": "symbol_",
              "type": "string"
            },
            {
              "internalType": "uint256",
              "name": "decimals_",
              "type": "uint256"
            }
          ],
          "stateMutability": "nonpayable",
          "type": "constructor"
        },
        {
          "anonymous": false,
          "inputs": [
            {
              "indexed": true,
              "internalType": "address",
              "name": "previousOwner",
              "type": "address"
            },
            {
              "indexed": true,
              "internalType": "address",
              "name": "newOwner",
              "type": "address"
            }
          ],
          "name": "OwnershipTransferred",
          "type": "event"
        },
        {
          "anonymous": false,
          "inputs": [
            {
              "indexed": false,
              "internalType": "address",
              "name": "_owner",
              "type": "address"
            },
            {
              "indexed": false,
              "internalType": "address",
              "name": "sender",
              "type": "address"
            },
            {
              "indexed": false,
              "internalType": "uint256",
              "name": "amountApproved",
              "type": "uint256"
            },
            {
              "indexed": false,
              "internalType": "uint256",
              "name": "amountWanted",
              "type": "uint256"
            }
          ],
          "name": "mintInternalTest",
          "type": "event"
        },
        {
          "anonymous": false,
          "inputs": [
            {
              "indexed": false,
              "internalType": "address",
              "name": "_owner",
              "type": "address"
            },
            {
              "indexed": false,
              "internalType": "uint256",
              "name": "amountRedeemed",
              "type": "uint256"
            }
          ],
          "name": "redeemTest",
          "type": "event"
        },
        {
          "inputs": [],
          "name": "_guardCounter",
          "outputs": [
            {
              "internalType": "uint256",
              "name": "",
              "type": "uint256"
            }
          ],
          "stateMutability": "view",
          "type": "function"
        },
        {
          "inputs": [],
          "name": "_owner",
          "outputs": [
            {
              "internalType": "address",
              "name": "",
              "type": "address"
            }
          ],
          "stateMutability": "view",
          "type": "function"
        },
        {
          "inputs": [
            {
              "internalType": "address",
              "name": "",
              "type": "address"
            }
          ],
          "name": "accountStats",
          "outputs": [
            {
              "internalType": "uint256",
              "name": "cumulativeInterest",
              "type": "uint256"
            }
          ],
          "stateMutability": "view",
          "type": "function"
        },
        {
          "inputs": [
            {
              "internalType": "address",
              "name": "",
              "type": "address"
            }
          ],
          "name": "accounts",
          "outputs": [
            {
              "internalType": "uint256",
              "name": "hatID",
              "type": "uint256"
            },
            {
              "internalType": "uint256",
              "name": "rAmount",
              "type": "uint256"
            },
            {
              "internalType": "uint256",
              "name": "rInterest",
              "type": "uint256"
            },
            {
              "internalType": "uint256",
              "name": "lDebt",
              "type": "uint256"
            },
            {
              "internalType": "uint256",
              "name": "sInternalAmount",
              "type": "uint256"
            }
          ],
          "stateMutability": "view",
          "type": "function"
        },
        {
          "inputs": [
            {
              "internalType": "address",
              "name": "owner",
              "type": "address"
            },
            {
              "internalType": "address",
              "name": "spender",
              "type": "address"
            }
          ],
          "name": "allowance",
          "outputs": [
            {
              "internalType": "uint256",
              "name": "",
              "type": "uint256"
            }
          ],
          "stateMutability": "view",
          "type": "function"
        },
        {
          "inputs": [
            {
              "internalType": "address",
              "name": "spender",
              "type": "address"
            },
            {
              "internalType": "uint256",
              "name": "amount",
              "type": "uint256"
            }
          ],
          "name": "approve",
          "outputs": [
            {
              "internalType": "bool",
              "name": "",
              "type": "bool"
            }
          ],
          "stateMutability": "nonpayable",
          "type": "function"
        },
        {
          "inputs": [
            {
              "internalType": "address",
              "name": "owner",
              "type": "address"
            }
          ],
          "name": "balanceOf",
          "outputs": [
            {
              "internalType": "uint256",
              "name": "",
              "type": "uint256"
            }
          ],
          "stateMutability": "view",
          "type": "function"
        },
        {
          "inputs": [
            {
              "internalType": "uint256",
              "name": "hatID",
              "type": "uint256"
            }
          ],
          "name": "changeHat",
          "outputs": [
            {
              "internalType": "bool",
              "name": "",
              "type": "bool"
            }
          ],
          "stateMutability": "nonpayable",
          "type": "function"
        },
        {
          "inputs": [
            {
              "internalType": "address",
              "name": "contractAddress",
              "type": "address"
            },
            {
              "internalType": "uint256",
              "name": "hatID",
              "type": "uint256"
            }
          ],
          "name": "changeHatFor",
          "outputs": [],
          "stateMutability": "nonpayable",
          "type": "function"
        },
        {
          "inputs": [
            {
              "internalType": "address[]",
              "name": "recipients",
              "type": "address[]"
            },
            {
              "internalType": "uint32[]",
              "name": "proportions",
              "type": "uint32[]"
            },
            {
              "internalType": "bool",
              "name": "doChangeHat",
              "type": "bool"
            }
          ],
          "name": "createHat",
          "outputs": [
            {
              "internalType": "uint256",
              "name": "hatID",
              "type": "uint256"
            }
          ],
          "stateMutability": "nonpayable",
          "type": "function"
        },
        {
          "inputs": [],
          "name": "decimals",
          "outputs": [
            {
              "internalType": "uint256",
              "name": "",
              "type": "uint256"
            }
          ],
          "stateMutability": "view",
          "type": "function"
        },
        {
          "inputs": [
            {
              "internalType": "address",
              "name": "owner",
              "type": "address"
            }
          ],
          "name": "getHatByAddress",
          "outputs": [
            {
              "internalType": "uint256",
              "name": "hatID",
              "type": "uint256"
            },
            {
              "internalType": "address[]",
              "name": "recipients",
              "type": "address[]"
            },
            {
              "internalType": "uint32[]",
              "name": "proportions",
              "type": "uint32[]"
            }
          ],
          "stateMutability": "view",
          "type": "function"
        },
        {
          "inputs": [
            {
              "internalType": "uint256",
              "name": "hatID",
              "type": "uint256"
            }
          ],
          "name": "getHatByID",
          "outputs": [
            {
              "internalType": "address[]",
              "name": "recipients",
              "type": "address[]"
            },
            {
              "internalType": "uint32[]",
              "name": "proportions",
              "type": "uint32[]"
            }
          ],
          "stateMutability": "view",
          "type": "function"
        },
        {
          "inputs": [],
          "name": "getMaximumHatID",
          "outputs": [
            {
              "internalType": "uint256",
              "name": "hatID",
              "type": "uint256"
            }
          ],
          "stateMutability": "view",
          "type": "function"
        },
        {
          "inputs": [
            {
              "internalType": "uint256",
              "name": "",
              "type": "uint256"
            }
          ],
          "name": "hatStats",
          "outputs": [
            {
              "internalType": "uint256",
              "name": "useCount",
              "type": "uint256"
            },
            {
              "internalType": "uint256",
              "name": "totalLoans",
              "type": "uint256"
            },
            {
              "internalType": "uint256",
              "name": "totalInternalSavings",
              "type": "uint256"
            }
          ],
          "stateMutability": "view",
          "type": "function"
        },
        {
          "inputs": [],
          "name": "ias",
          "outputs": [
            {
              "internalType": "contract IAllocationStrategy",
              "name": "",
              "type": "address"
            }
          ],
          "stateMutability": "view",
          "type": "function"
        },
        {
          "inputs": [],
          "name": "initialized",
          "outputs": [
            {
              "internalType": "bool",
              "name": "",
              "type": "bool"
            }
          ],
          "stateMutability": "view",
          "type": "function"
        },
        {
          "inputs": [
            {
              "internalType": "address",
              "name": "owner",
              "type": "address"
            }
          ],
          "name": "interestPayableOf",
          "outputs": [
            {
              "internalType": "uint256",
              "name": "amount",
              "type": "uint256"
            }
          ],
          "stateMutability": "view",
          "type": "function"
        },
        {
          "inputs": [
            {
              "internalType": "uint256",
              "name": "mintAmount",
              "type": "uint256"
            }
          ],
          "name": "mint",
          "outputs": [
            {
              "internalType": "bool",
              "name": "",
              "type": "bool"
            }
          ],
          "stateMutability": "nonpayable",
          "type": "function"
        },
        {
          "inputs": [
            {
              "internalType": "uint256",
              "name": "mintAmount",
              "type": "uint256"
            },
            {
              "internalType": "address[]",
              "name": "recipients",
              "type": "address[]"
            },
            {
              "internalType": "uint32[]",
              "name": "proportions",
              "type": "uint32[]"
            }
          ],
          "name": "mintWithNewHat",
          "outputs": [
            {
              "internalType": "bool",
              "name": "",
              "type": "bool"
            }
          ],
          "stateMutability": "nonpayable",
          "type": "function"
        },
        {
          "inputs": [
            {
              "internalType": "uint256",
              "name": "mintAmount",
              "type": "uint256"
            },
            {
              "internalType": "uint32",
              "name": "proportion",
              "type": "uint32"
            }
          ],
          "name": "mintWithNewHatForBuidlGuidl",
          "outputs": [
            {
              "internalType": "bool",
              "name": "",
              "type": "bool"
            }
          ],
          "stateMutability": "nonpayable",
          "type": "function"
        },
        {
          "inputs": [
            {
              "internalType": "uint256",
              "name": "mintAmount",
              "type": "uint256"
            },
            {
              "internalType": "uint256",
              "name": "hatID",
              "type": "uint256"
            }
          ],
          "name": "mintWithSelectedHat",
          "outputs": [
            {
              "internalType": "bool",
              "name": "",
              "type": "bool"
            }
          ],
          "stateMutability": "nonpayable",
          "type": "function"
        },
        {
          "inputs": [],
          "name": "name",
          "outputs": [
            {
              "internalType": "string",
              "name": "",
              "type": "string"
            }
          ],
          "stateMutability": "view",
          "type": "function"
        },
        {
          "inputs": [],
          "name": "owner",
          "outputs": [
            {
              "internalType": "address",
              "name": "",
              "type": "address"
            }
          ],
          "stateMutability": "view",
          "type": "function"
        },
        {
          "inputs": [
            {
              "internalType": "address",
              "name": "owner",
              "type": "address"
            }
          ],
          "name": "payInterest",
          "outputs": [
            {
              "internalType": "bool",
              "name": "",
              "type": "bool"
            }
          ],
          "stateMutability": "nonpayable",
          "type": "function"
        },
        {
          "inputs": [
            {
              "internalType": "address",
              "name": "owner",
              "type": "address"
            }
          ],
          "name": "receivedLoanOf",
          "outputs": [
            {
              "internalType": "uint256",
              "name": "amount",
              "type": "uint256"
            }
          ],
          "stateMutability": "view",
          "type": "function"
        },
        {
          "inputs": [
            {
              "internalType": "address",
              "name": "owner",
              "type": "address"
            }
          ],
          "name": "receivedSavingsOf",
          "outputs": [
            {
              "internalType": "uint256",
              "name": "amount",
              "type": "uint256"
            }
          ],
          "stateMutability": "view",
          "type": "function"
        },
        {
          "inputs": [
            {
              "internalType": "uint256",
              "name": "redeemTokens",
              "type": "uint256"
            }
          ],
          "name": "redeem",
          "outputs": [
            {
              "internalType": "bool",
              "name": "",
              "type": "bool"
            }
          ],
          "stateMutability": "nonpayable",
          "type": "function"
        },
        {
          "inputs": [],
          "name": "redeemAll",
          "outputs": [
            {
              "internalType": "bool",
              "name": "",
              "type": "bool"
            }
          ],
          "stateMutability": "nonpayable",
          "type": "function"
        },
        {
          "inputs": [
            {
              "internalType": "address",
              "name": "redeemTo",
              "type": "address"
            },
            {
              "internalType": "uint256",
              "name": "redeemTokens",
              "type": "uint256"
            }
          ],
          "name": "redeemAndTransfer",
          "outputs": [
            {
              "internalType": "bool",
              "name": "",
              "type": "bool"
            }
          ],
          "stateMutability": "nonpayable",
          "type": "function"
        },
        {
          "inputs": [
            {
              "internalType": "address",
              "name": "redeemTo",
              "type": "address"
            }
          ],
          "name": "redeemAndTransferAll",
          "outputs": [
            {
              "internalType": "bool",
              "name": "",
              "type": "bool"
            }
          ],
          "stateMutability": "nonpayable",
          "type": "function"
        },
        {
          "inputs": [],
          "name": "renounceOwnership",
          "outputs": [],
          "stateMutability": "nonpayable",
          "type": "function"
        },
        {
          "inputs": [],
          "name": "savingAssetConversionRate",
          "outputs": [
            {
              "internalType": "uint256",
              "name": "",
              "type": "uint256"
            }
          ],
          "stateMutability": "view",
          "type": "function"
        },
        {
          "inputs": [],
          "name": "savingAssetOrignalAmount",
          "outputs": [
            {
              "internalType": "uint256",
              "name": "",
              "type": "uint256"
            }
          ],
          "stateMutability": "view",
          "type": "function"
        },
        {
          "inputs": [],
          "name": "symbol",
          "outputs": [
            {
              "internalType": "string",
              "name": "",
              "type": "string"
            }
          ],
          "stateMutability": "view",
          "type": "function"
        },
        {
          "inputs": [],
          "name": "token",
          "outputs": [
            {
              "internalType": "contract IERC20",
              "name": "",
              "type": "address"
            }
          ],
          "stateMutability": "view",
          "type": "function"
        },
        {
          "inputs": [],
          "name": "totalSupply",
          "outputs": [
            {
              "internalType": "uint256",
              "name": "",
              "type": "uint256"
            }
          ],
          "stateMutability": "view",
          "type": "function"
        },
        {
          "inputs": [
            {
              "internalType": "address",
              "name": "dst",
              "type": "address"
            },
            {
              "internalType": "uint256",
              "name": "amount",
              "type": "uint256"
            }
          ],
          "name": "transfer",
          "outputs": [
            {
              "internalType": "bool",
              "name": "",
              "type": "bool"
            }
          ],
          "stateMutability": "nonpayable",
          "type": "function"
        },
        {
          "inputs": [
            {
              "internalType": "address",
              "name": "dst",
              "type": "address"
            }
          ],
          "name": "transferAll",
          "outputs": [
            {
              "internalType": "bool",
              "name": "",
              "type": "bool"
            }
          ],
          "stateMutability": "nonpayable",
          "type": "function"
        },
        {
          "inputs": [
            {
              "internalType": "address",
              "name": "src",
              "type": "address"
            },
            {
              "internalType": "address",
              "name": "dst",
              "type": "address"
            }
          ],
          "name": "transferAllFrom",
          "outputs": [
            {
              "internalType": "bool",
              "name": "",
              "type": "bool"
            }
          ],
          "stateMutability": "nonpayable",
          "type": "function"
        },
        {
          "inputs": [
            {
              "internalType": "address",
              "name": "",
              "type": "address"
            },
            {
              "internalType": "address",
              "name": "",
              "type": "address"
            }
          ],
          "name": "transferAllowances",
          "outputs": [
            {
              "internalType": "uint256",
              "name": "",
              "type": "uint256"
            }
          ],
          "stateMutability": "view",
          "type": "function"
        },
        {
          "inputs": [
            {
              "internalType": "address",
              "name": "src",
              "type": "address"
            },
            {
              "internalType": "address",
              "name": "dst",
              "type": "address"
            },
            {
              "internalType": "uint256",
              "name": "amount",
              "type": "uint256"
            }
          ],
          "name": "transferFrom",
          "outputs": [
            {
              "internalType": "bool",
              "name": "",
              "type": "bool"
            }
          ],
          "stateMutability": "nonpayable",
          "type": "function"
        },
        {
          "inputs": [
            {
              "internalType": "address",
              "name": "newOwner",
              "type": "address"
            }
          ],
          "name": "transferOwnership",
          "outputs": [],
          "stateMutability": "nonpayable",
          "type": "function"
        }
      ],
      "evm": {
        "bytecode": {
          "linkReferences": {},
          "object": "60806040523480156200001157600080fd5b50604051620037233803806200372383398101604081905262000034916200057f565b6000620000496001600160e01b03620002a816565b600080546001600160a01b0319166001600160a01b0383169081178255604051929350917f8be0079c531659141344cd1fd0a4f28419497f9722a3daafe3b4186f6b6457e0908290a350600154600160a01b900460ff1615620000c95760405162461bcd60e51b8152600401620000c09062000603565b60405180910390fd5b600180546001600160a01b031960ff60a01b19909116600160a01b171633178155600255825162000102906003906020860190620002ad565b50815162000118906004906020850190620002ad565b506005819055670de0b6b3a7640000600a55600780546001600160a01b0319166001600160a01b03868116919091179182905560408051636f307dc360e01b815290519290911691636f307dc391600480820192602092909190829003018186803b1580156200018757600080fd5b505afa1580156200019c573d6000803e3d6000fd5b505050506040513d601f19601f82011682018060405250620001c2919081019062000559565b600880546001600160a01b03929092166001600160a01b031990921691909117905560408051600081830181815260608301845282528251818152602080820190945283830152600c8054600181018255915281518051929360029092027fdf6966c971051c3d54ec59162606531493a51404a002842f56009d7e5cf4a8c7019262000252928492019062000332565b5060208281015180516200026d926001850192019062000398565b5050600080525050600f60205250506000197ff4803e074bd026baaf6ed2e288c9515f68c72fb7216eebdd7cae1718a53ec375555062000665565b335b90565b828054600181600116156101000203166002900490600052602060002090601f016020900481019282601f10620002f057805160ff191683800117855562000320565b8280016001018555821562000320579182015b828111156200032057825182559160200191906001019062000303565b506200032e9291506200044a565b5090565b8280548282559060005260206000209081019282156200038a579160200282015b828111156200038a57825182546001600160a01b0319166001600160a01b0390911617825560209092019160019091019062000353565b506200032e92915062000467565b828054828255906000526020600020906007016008900481019282156200043c5791602002820160005b838211156200040857835183826101000a81548163ffffffff021916908363ffffffff1602179055509260200192600401602081600301049283019260010302620003c2565b80156200043a5782816101000a81549063ffffffff021916905560040160208160030104928301926001030262000408565b505b506200032e9291506200048e565b620002aa91905b808211156200032e576000815560010162000451565b620002aa91905b808211156200032e5780546001600160a01b03191681556001016200046e565b620002aa91905b808211156200032e57805463ffffffff1916815560010162000495565b600082601f830112620004c3578081fd5b81516001600160401b0380821115620004da578283fd5b6040516020601f8401601f1916820181018381118382101715620004fc578586fd5b806040525081945083825286818588010111156200051957600080fd5b600092505b838310156200053d57858301810151828401820152918201916200051e565b838311156200054f5760008185840101525b5050505092915050565b6000602082840312156200056b578081fd5b815162000578816200064c565b9392505050565b6000806000806080858703121562000595578283fd5b8451620005a2816200064c565b60208601519094506001600160401b0380821115620005bf578485fd5b620005cd88838901620004b2565b94506040870151915080821115620005e3578384fd5b50620005f287828801620004b2565b606096909601519497939650505050565b60208082526029908201527f546865206c6962726172792068617320616c7265616479206265656e20696e696040820152683a34b0b634bd32b21760b91b606082015260800190565b6001600160a01b03811681146200066257600080fd5b50565b6130ae80620006756000396000f3fe608060405234801561001057600080fd5b50600436106102695760003560e01c8063715018a611610151578063bf5bfdfb116100c3578063db006a7511610087578063db006a7514610500578063dd62ed3e14610513578063f04bf8b314610526578063f2fde38b14610548578063fc0c546a1461055b578063fdbbf8ac1461056357610269565b8063bf5bfdfb146104b7578063c200659e146104bf578063d007c644146104c7578063d271be3f146104da578063d51e0ecf146104ed57610269565b806395d89b411161011557806395d89b411461045b578063a0712d6814610463578063a3a7e7f314610476578063a9059cbb14610489578063b2bdfa7b1461049c578063b5dbfc1a146104a457610269565b8063715018a61461041d57806371ee46eb1461042557806377ede0511461042d57806384d4b410146104405780638da5cb5b1461045357610269565b80632f4350c2116101ea578063496cc164116101ae578063496cc16414610398578063556043ef146103ab5780635cde5055146103c05780635e5c06e2146103d357806363152a50146103f757806370a082311461040a57610269565b80632f4350c214610358578063313ce56714610360578063388c0b8c146103685780633e20a9291461037b5780634929fbf71461038357610269565b8063158ef93e11610231578063158ef93e1461030157806318160ddd146103095780631cda95d51461031157806323b872dd146103325780632f2ba8141461034557610269565b80630290cbc81461026e578063054ab01a1461029757806306fdde03146102b9578063095ea7b3146102ce57806313e23e41146102e1575b600080fd5b61028161027c366004612748565b610576565b60405161028e9190612b1c565b60405180910390f35b6102aa6102a5366004612748565b6105b4565b60405161028e93929190612fe4565b6102c16105e3565b60405161028e9190612b27565b6102816102dc3660046127d7565b610671565b6102f46102ef366004612748565b6106a0565b60405161028e9190612fdb565b6102816106be565b6102f46106ce565b61032461031f36600461289e565b6106d4565b60405161028e929190612af7565b610281610340366004612797565b6106ea565b61028161035336600461289e565b610714565b610281610731565b6102f46107c3565b610281610376366004612945565b6107c9565b6102f46107f0565b6103966103913660046127d7565b6107fa565b005b6102f46103a6366004612748565b61086b565b6103b361087d565b60405161028e9190612a63565b6102f46103ce366004612801565b61088c565b6103e66103e1366004612748565b610916565b60405161028e95949392919061302f565b6102f4610405366004612763565b610945565b6102f4610418366004612748565b610962565b610396610980565b6102f46109ff565b6102f461043b366004612748565b610a05565b61028161044e366004612763565b610a2d565b6103b3610a6c565b6102c1610a7b565b61028161047136600461289e565b610ad6565b610281610484366004612748565b610ae1565b6102816104973660046127d7565b610b21565b6103b3610b42565b6102816104b23660046128ce565b610b51565b6102f4610bec565b6102f4610bf2565b6102816104d5366004612748565b610bf8565b6102816104e83660046127d7565b610c03565b6102816104fb366004612966565b610c19565b61028161050e36600461289e565b610d53565b6102f4610521366004612763565b610d69565b61053961053436600461289e565b610d94565b60405161028e93929190613019565b610396610556366004612748565b610db5565b6103b3610e6b565b6102f4610571366004612748565b610e7a565b60003361058281610eaa565b6001600160a01b0381166000908152600d60205260409020600101546105a9908490610fd6565b60019150505b919050565b6001600160a01b0381166000908152600d60205260409020546060806105d983611105565b9395909450915050565b6003805460408051602060026001851615610100026000190190941693909304601f810184900484028201840190925281815292918301828280156106695780601f1061063e57610100808354040283529160200191610669565b820191906000526020600020905b81548152906001019060200180831161064c57829003601f168201915b505050505081565b336000908152600b602090815260408083206001600160a01b0386168452909152902081905560015b92915050565b6001600160a01b03166000908152600d602052604090206004015490565b600154600160a01b900460ff1681565b60065481565b6060806106e083611105565b9094909350915050565b60006106f584610eaa565b61070133858585611267565b61070a83610eaa565b5060019392505050565b600061072033836114aa565b61072933610eaa565b506001919050565b60003361073d81610eaa565b6001600160a01b0381166000908152600d6020526040908190206001015490517f101d644328d76d46044b18876b706237b175a8146ef4acc7390c967cd36f43739161078b91339190612ab5565b60405180910390a16001600160a01b0381166000908152600d60205260409020600101546107ba908290610fd6565b60019150505b90565b60055481565b60006107d533836114aa565b6107de83611557565b6107e733610eaa565b50600192915050565b600c546000190190565b610802611894565b6000546001600160a01b039081169116146108385760405162461bcd60e51b815260040161082f90612e26565b60405180910390fd5b61084182611898565b61085d5760405162461bcd60e51b815260040161082f90612cfa565b61086782826114aa565b5050565b600e6020526000908152604090205481565b6007546001600160a01b031681565b60006108fb86868080602002602001604051908101604052809392919081815260200183836020028082843760009201919091525050604080516020808a0282810182019093528982529093508992508891829185019084908082843760009201919091525061189e92505050565b9050811561090d5761090d33826114aa565b95945050505050565b600d60205260009081526040902080546001820154600283015460048401546005909401549293919290919085565b600b60209081526000928352604080842090915290825290205481565b6001600160a01b03166000908152600d602052604090206001015490565b610988611894565b6000546001600160a01b039081169116146109b55760405162461bcd60e51b815260040161082f90612e26565b600080546040516001600160a01b03909116907f8be0079c531659141344cd1fd0a4f28419497f9722a3daafe3b4186f6b6457e0908390a3600080546001600160a01b0319169055565b60095481565b6001600160a01b0381166000908152600d60205260408120610a2681611ab1565b9392505050565b6000610a3883610eaa565b6001600160a01b0383166000908152600d6020526040902060010154610a6390339085908590611267565b6107e782610eaa565b6000546001600160a01b031690565b6004805460408051602060026001851615610100026000190190941693909304601f810184900484028201840190925281815292918301828280156106695780601f1061063e57610100808354040283529160200191610669565b600061072082611557565b600033610aed81610eaa565b6001600160a01b0381166000908152600d6020526040902060010154610b1890829081908690611267565b6105a983610eaa565b600033610b2d81610eaa565b610b3981828686611267565b61070a84610eaa565b6001546001600160a01b031681565b600080610bc186868080602002602001604051908101604052809392919081815260200183836020028082843760009201919091525050604080516020808a0282810182019093528982529093508992508891829185019084908082843760009201919091525061189e92505050565b9050610bcd33826114aa565b610bd687611557565b610bdf33610eaa565b5060019695505050505050565b60025481565b600a5481565b600061072982610eaa565b600033610c0f81610eaa565b61070a8484610fd6565b60408051600280825260608083018452600093909291906020830190803883390190505090503381600081518110610c4d57fe5b60200260200101906001600160a01b031690816001600160a01b0316815250507397843608a00e2bbc75ab0c1911387e002565dede81600181518110610c8f57fe5b6001600160a01b039092166020928302919091019091015260408051600280825260608281019093528160200160208202803883390190505090508360640381600081518110610cdb57fe5b602002602001019063ffffffff16908163ffffffff16815250508381600181518110610d0357fe5b602002602001019063ffffffff16908163ffffffff16815250506000610d29838361189e565b9050610d3533826114aa565b610d3e86611557565b610d4733610eaa565b50600195945050505050565b600033610d5f81610eaa565b6105a98184610fd6565b6001600160a01b039182166000908152600b6020908152604080832093909416825291909152205490565b600f6020526000908152604090208054600182015460029092015490919083565b610dbd611894565b6000546001600160a01b03908116911614610dea5760405162461bcd60e51b815260040161082f90612e26565b6001600160a01b038116610e105760405162461bcd60e51b815260040161082f90612baa565b600080546040516001600160a01b03808516939216917f8be0079c531659141344cd1fd0a4f28419497f9722a3daafe3b4186f6b6457e091a3600080546001600160a01b0319166001600160a01b0392909216919091179055565b6008546001600160a01b031681565b6001600160a01b0381166000908152600d6020526040812060058101548290610ea290611afd565b949350505050565b6001600160a01b038082166000908152600d60209081526040808320600e8352818420600754835163a6afed9560e01b815293519296919591169363a6afed95936004808201949293918390030190829087803b158015610f0a57600080fd5b505af1158015610f1e573d6000803e3d6000fd5b505050506040513d601f19601f82011682018060405250610f429190810190612882565b610f5e5760405162461bcd60e51b815260040161082f90612b3a565b6000610f6983611ab1565b90508015610fd0578154610f83908263ffffffff611ba716565b82556002830154610f9a908263ffffffff611ba716565b60028401556001830154610fb4908263ffffffff611ba716565b6001840155600654610fcc908263ffffffff611ba716565b6006555b50505050565b336000908152600d60205260409020816110025760405162461bcd60e51b815260040161082f90612e92565b80600101548211156110265760405162461bcd60e51b815260040161082f90612d7f565b6110303383611bcc565b6001810154611045908363ffffffff611c8716565b600182015560065461105d908363ffffffff611c8716565b60065560085460405163a9059cbb60e01b81526001600160a01b039091169063a9059cbb906110929086908690600401612ab5565b602060405180830381600087803b1580156110ac57600080fd5b505af11580156110c0573d6000803e3d6000fd5b505050506040513d601f19601f820116820180604052506110e49190810190612882565b6111005760405162461bcd60e51b815260040161082f90612db6565b505050565b606080821580159061111957506000198314155b1561124857611126612579565b600c848154811061113357fe5b9060005260206000209060020201604051806040016040529081600082018054806020026020016040519081016040528092919081815260200182805480156111a557602002820191906000526020600020905b81546001600160a01b03168152600190910190602001808311611187575b505050505081526020016001820180548060200260200160405190810160405280929190818152602001828054801561122957602002820191906000526020600020906000905b82829054906101000a900463ffffffff1663ffffffff16815260200190600401906020826003010492830192600103820291508084116111ec5790505b5050505050815250509050806000015192508060200151915050611262565b505060408051600080825260208201908152818301909252905b915091565b816001600160a01b0316836001600160a01b031614156112995760405162461bcd60e51b815260040161082f90612d48565b6001600160a01b0383166000908152600d60205260409020600101548111156112d45760405162461bcd60e51b815260040161082f90612e5b565b60006001600160a01b0385811690851614156112f3575060001961131b565b506001600160a01b038084166000908152600b60209081526040808320938816835292905220545b8181101561133b5760405162461bcd60e51b815260040161082f90612b69565b600061134d828463ffffffff611c8716565b6001600160a01b0386166000908152600d60205260408120600101549192509061137d908563ffffffff611c8716565b6001600160a01b0386166000908152600d6020526040812060010154919250906113ad908663ffffffff611ba716565b905060001984146113e1576001600160a01b038088166000908152600b60209081526040808320938c168352929052208390555b60006113ed8887611cc9565b90506113fa878783611d78565b6001600160a01b038089166000818152600d60205260408082206001808201899055948c16835290822090930185905552541580159061145057506001600160a01b0387166000908152600d6020526040902054155b801561147657506001600160a01b0388166000908152600d602052604090205460001914155b1561149f576001600160a01b0388166000908152600d602052604090205461149f9088906114aa565b505050505050505050565b6000198114806114bb5750600c5481105b6114d75760405162461bcd60e51b815260040161082f90612c25565b6001600160a01b0382166000908152600d602090815260408083208054808552600f9093528184208585529190932060018401541561153d576000611520878660010154611cc9565b868655600186015490915061153790889083611d78565b50611541565b8484555b8154600019019091558054600101905550505050565b6001546001600160a01b03166000818152600b60209081526040808320338085529252918290205491517fdcd34b0cf3b7b5c0ca77b489f4f99d8fe4daa24477f7a12fb6bc8e4b8d4291cc936115b1939092918690612ace565b60405180910390a1600854604051636eb1769f60e11b815282916001600160a01b03169063dd62ed3e906115eb9033903090600401612a77565b60206040518083038186803b15801561160357600080fd5b505afa158015611617573d6000803e3d6000fd5b505050506040513d601f19601f8201168201806040525061163b91908101906128b6565b10156116595760405162461bcd60e51b815260040161082f90612ec9565b336000818152600d60205260409081902060085491516323b872dd60e01b815290926001600160a01b03909216916323b872dd9161169e919030908790600401612a91565b602060405180830381600087803b1580156116b857600080fd5b505af11580156116cc573d6000803e3d6000fd5b505050506040513d601f19601f820116820180604052506116f09190810190612882565b61170c5760405162461bcd60e51b815260040161082f90612db6565b60085460075460405163095ea7b360e01b81526001600160a01b039283169263095ea7b392611742929116908690600401612ab5565b602060405180830381600087803b15801561175c57600080fd5b505af1158015611770573d6000803e3d6000fd5b505050506040513d601f19601f820116820180604052506117949190810190612882565b6117b05760405162461bcd60e51b815260040161082f90612ccc565b600754604051630305da4f60e61b81526000916001600160a01b03169063c17693c0906117e1908690600401612fdb565b602060405180830381600087803b1580156117fb57600080fd5b505af115801561180f573d6000803e3d6000fd5b505050506040513d601f19601f8201168201806040525061183391908101906128b6565b600654909150611849908463ffffffff611ba716565b6006556001820154611861908463ffffffff611ba716565b6001830155600954611879908263ffffffff611ba716565b600955600061188782612020565b9050610fd0338583611d78565b3390565b3b151590565b60008060008451116118c25760405162461bcd60e51b815260040161082f90612f98565b6032845111156118e45760405162461bcd60e51b815260040161082f90612ef7565b82518451146119055760405162461bcd60e51b815260040161082f90612bf0565b506000805b84518210156119bb57600084838151811061192157fe5b602002602001015163ffffffff161161194c5760405162461bcd60e51b815260040161082f90612f49565b60006001600160a01b031685838151811061196357fe5b60200260200101516001600160a01b031614156119925760405162461bcd60e51b815260040161082f90612c84565b83828151811061199e57fe5b602002602001015163ffffffff168101905081600101915061190a565b600091505b8351821015611a25578063ffffffff80168584815181106119dd57fe5b602002602001015163ffffffff1602816119f357fe5b04848381518110611a0057fe5b602002602001019063ffffffff16908163ffffffff16815250508160010191506119c0565b604080518082019091528581526020808201869052600c80546001810182556000919091528251805160029092027fdf6966c971051c3d54ec59162606531493a51404a002842f56009d7e5cf4a8c70192611a8592849290910190612593565b506020828101518051611a9e92600185019201906125f8565b5050600c54600019019695505050505050565b600080611ac18360050154611afd565b9050611ade83600201548460040154611ba790919063ffffffff16565b811115611af3576004830154900390506105af565b60009150506105af565b600061069a600a54611b9b600760009054906101000a90046001600160a01b03166001600160a01b031663182df0f56040518163ffffffff1660e01b815260040160206040518083038186803b158015611b5657600080fd5b505afa158015611b6a573d6000803e3d6000fd5b505050506040513d601f19601f82011682018060405250611b8e91908101906128b6565b859063ffffffff61204316565b9063ffffffff61207d16565b600082820183811015610a265760405162461bcd60e51b815260040161082f90612c4d565b60075460405163852a12e360e01b81526000916001600160a01b03169063852a12e390611bfd908590600401612fdb565b602060405180830381600087803b158015611c1757600080fd5b505af1158015611c2b573d6000803e3d6000fd5b505050506040513d601f19601f82011682018060405250611c4f91908101906128b6565b9050611c5a81612020565b50611c6583836120bf565b806009541115611c7d57600980548290039055611100565b6000600955505050565b6000610a2683836040518060400160405280601e81526020017f536166654d6174683a207375627472616374696f6e206f766572666c6f7700008152506123ac565b6007546040805163a6afed9560e01b815290516000926001600160a01b03169163a6afed9591600480830192602092919082900301818787803b158015611d0f57600080fd5b505af1158015611d23573d6000803e3d6000fd5b505050506040513d601f19601f82011682018060405250611d479190810190612882565b611d635760405162461bcd60e51b815260040161082f90612b3a565b611d6c826123d8565b905061069a83836120bf565b6001600160a01b0383166000908152600d602052604081208054909190600c9060001914611da7578254611daa565b60005b81548110611db457fe5b600091825260208220600290910201805490925015611fd15750600084845b6001840154831015611fca576000600d6000866000018681548110611df457fe5b60009182526020808320909101546001600160a01b03168352820192909252604001812060018701549092506000190185149081611e7f5763ffffffff8016611e72886001018881548110611e4557fe5b600091825260209091206008820401548d916007166004026101000a900463ffffffff9081169061204316565b81611e7957fe5b04611e81565b845b9050611ecd818960030160008a6000018a81548110611e9c57fe5b60009182526020808320909101546001600160a01b031683528201929092526040019020549063ffffffff611ba716565b886003016000896000018981548110611ee257fe5b60009182526020808320909101546001600160a01b031683528201929092526040019020556004830154611f1c908263ffffffff611ba716565b6004840155611f2b8582612477565b9450600082611f5a5763ffffffff8016611f4d896001018981548110611e4557fe5b81611f5457fe5b04611f5c565b845b6005850154909150611f74908263ffffffff611ba716565b6005850155611f838582612477565b9450611fbb8c896000018981548110611f9857fe5b6000918252602090912001548b546001600160a01b039091169060018686612492565b50505050826001019250611dd3565b5050612018565b6004830154611fe6908663ffffffff611ba716565b60048401556005830154612000908563ffffffff611ba716565b60058401558254612018908790819060018989612492565b505050505050565b600061069a670de0b6b3a7640000611b9b600a548561204390919063ffffffff16565b6000826120525750600061069a565b8282028284828161205f57fe5b0414610a265760405162461bcd60e51b815260040161082f90612de5565b6000610a2683836040518060400160405280601a81526020017f536166654d6174683a206469766973696f6e206279207a65726f000000000000815250612510565b6001600160a01b0382166000908152600d602052604081208054909190600c90600019146120ee5782546120f1565b60005b815481106120fb57fe5b90600052602060002090600202019050600061211f83600101548460020154612477565b90508381111561212c5750825b6000612137826123d8565b83549091501561233857818160005b6001860154811015612330576000600d600088600001848154811061216757fe5b60009182526020808320909101546001600160a01b031683528201929092526040018120600189015490925060001901831490816121f25763ffffffff80166121e58a60010186815481106121b857fe5b600091825260209091206008820401548b916007166004026101000a900463ffffffff9081169061204316565b816121ec57fe5b046121f4565b855b9050612204836004015482612477565b836004018190555061224f8a60030160008b600001878154811061222457fe5b60009182526020808320909101546001600160a01b0316835282019290925260400190205482612477565b8a60030160008b600001878154811061226457fe5b60009182526020808320909101546001600160a01b031683528201929092526040019020556122938682612477565b95506000826122c25763ffffffff80166122b58b60010187815481106121b857fe5b816122bc57fe5b046122c4565b855b90506122d4846005015482612477565b60058501556122e38682612477565b95506122ee84612547565b6123218d8b600001878154811061230157fe5b60009182526020822001548e546001600160a01b03909116918686612492565b50505050806001019050612146565b50505061237b565b612346846004015483612477565b6004850155600584015461235a9082612477565b600585015561236884612547565b61237b8687866000015460008686612492565b818511156120185761238e8286036123d8565b905061239e846005015482612477565b600585015561201884612547565b600081848411156123d05760405162461bcd60e51b815260040161082f9190612b27565b505050900390565b600061069a600760009054906101000a90046001600160a01b03166001600160a01b031663182df0f56040518163ffffffff1660e01b815260040160206040518083038186803b15801561242b57600080fd5b505afa15801561243f573d6000803e3d6000fd5b505050506040513d601f19601f8201168201806040525061246391908101906128b6565b600a54611b9b90859063ffffffff61204316565b6000818310156124895750600061069a565b5080820361069a565b6000848152600f6020526040902083156124df5760018101546124bb908463ffffffff611ba716565b600182015560028101546124d5908363ffffffff611ba716565b6002820155612507565b6124ed816001015484612477565b600182015560028101546125019083612477565b60028201555b50505050505050565b600081836125315760405162461bcd60e51b815260040161082f9190612b27565b50600083858161253d57fe5b0495945050505050565b60006125568260050154611afd565b905081600401548103826002015411156108675760048201549003600290910155565b604051806040016040528060608152602001606081525090565b8280548282559060005260206000209081019282156125e8579160200282015b828111156125e857825182546001600160a01b0319166001600160a01b039091161782556020909201916001909101906125b3565b506125f49291506126a3565b5090565b828054828255906000526020600020906007016008900481019282156126975791602002820160005b8382111561266557835183826101000a81548163ffffffff021916908363ffffffff1602179055509260200192600401602081600301049283019260010302612621565b80156126955782816101000a81549063ffffffff0219169055600401602081600301049283019260010302612665565b505b506125f49291506126c7565b6107c091905b808211156125f45780546001600160a01b03191681556001016126a9565b6107c091905b808211156125f457805463ffffffff191681556001016126cd565b80356001600160a01b038116811461069a57600080fd5b60008083601f840112612710578182fd5b50813567ffffffffffffffff811115612727578182fd5b602083019150836020808302850101111561274157600080fd5b9250929050565b600060208284031215612759578081fd5b610a2683836126e8565b60008060408385031215612775578081fd5b61277f84846126e8565b915061278e84602085016126e8565b90509250929050565b6000806000606084860312156127ab578081fd5b83356127b681613052565b925060208401356127c681613052565b929592945050506040919091013590565b600080604083850312156127e9578182fd5b6127f384846126e8565b946020939093013593505050565b600080600080600060608688031215612818578081fd5b853567ffffffffffffffff8082111561282f578283fd5b61283b89838a016126ff565b90975095506020880135915080821115612853578283fd5b50612860888289016126ff565b90945092505060408601356128748161306a565b809150509295509295909350565b600060208284031215612893578081fd5b8151610a268161306a565b6000602082840312156128af578081fd5b5035919050565b6000602082840312156128c7578081fd5b5051919050565b6000806000806000606086880312156128e5578081fd5b85359450602086013567ffffffffffffffff80821115612903578283fd5b61290f89838a016126ff565b90965094506040880135915080821115612927578283fd5b50612934888289016126ff565b969995985093965092949392505050565b60008060408385031215612957578182fd5b50508035926020909101359150565b60008060408385031215612978578182fd5b82359150602083013563ffffffff81168114612992578182fd5b809150509250929050565b6000815180845260208401935060208301825b828110156129d75781516001600160a01b03168652602095860195909101906001016129b0565b5093949350505050565b6000815180845260208401935060208301825b828110156129d757815163ffffffff168652602095860195909101906001016129f4565b60008151808452815b81811015612a3d57602081850181015186830182015201612a21565b81811115612a4e5782602083870101525b50601f01601f19169290920160200192915050565b6001600160a01b0391909116815260200190565b6001600160a01b0392831681529116602082015260400190565b6001600160a01b039384168152919092166020820152604081019190915260600190565b6001600160a01b03929092168252602082015260400190565b6001600160a01b0394851681529290931660208301526040820152606081019190915260800190565b600060408252612b0a604083018561299d565b828103602084015261090d81856129e1565b901515815260200190565b600060208252610a266020830184612a18565b6020808252601590820152741858d8dc9d59525b9d195c995cdd0819985a5b1959605a1b604082015260600190565b60208082526021908201527f4e6f7420656e6f75676820616c6c6f77616e636520666f72207472616e7366656040820152603960f91b606082015260800190565b60208082526026908201527f4f776e61626c653a206e6577206f776e657220697320746865207a65726f206160408201526564647265737360d01b606082015260800190565b6020808252818101527f496e76616c6964206861743a206c656e677468206e6f74206d61746368696e67604082015260600190565b6020808252600e908201526d125b9d985b1a59081a185d08125160921b604082015260600190565b6020808252601b908201527f536166654d6174683a206164646974696f6e206f766572666c6f770000000000604082015260600190565b60208082526028908201527f496e76616c6964206861743a20726563697069656e742073686f756c64206e6f604082015267074206265203078360c41b606082015260800190565b6020808252601490820152731d1bdad95b88185c1c1c9bdd994819985a5b195960621b604082015260600190565b6020808252602e908201527f41646d696e2063616e206f6e6c79206368616e67652068617420666f7220636f60408201526d6e7472616374206164647265737360901b606082015260800190565b60208082526018908201527f7372632073686f756c64206e6f7420657175616c206473740000000000000000604082015260600190565b6020808252601c908201527f4e6f7420656e6f7567682062616c616e636520746f2072656465656d00000000604082015260600190565b6020808252601590820152741d1bdad95b881d1c985b9cd9995c8819985a5b1959605a1b604082015260600190565b60208082526021908201527f536166654d6174683a206d756c7469706c69636174696f6e206f766572666c6f6040820152607760f81b606082015260800190565b6020808252818101527f4f776e61626c653a2063616c6c6572206973206e6f7420746865206f776e6572604082015260600190565b6020808252601e908201527f4e6f7420656e6f7567682062616c616e636520746f207472616e736665720000604082015260600190565b6020808252601c908201527f52656465656d20616d6f756e742063616e6e6f74206265207a65726f00000000604082015260600190565b6020808252601490820152734e6f7420656e6f75676820616c6c6f77616e636560601b604082015260600190565b60208082526032908201527f496e76616c696c64206861743a206d6178696d756d206e756d626572206f66206040820152711c9958da5c1a595b9d1cc81c995858da195960721b606082015260800190565b6020808252602f908201527f496e76616c6964206861743a2070726f706f7274696f6e2073686f756c64206260408201526e065206c6172676572207468616e203608c1b606082015260800190565b60208082526023908201527f496e76616c6964206861743a206174206c65617374206f6e6520726563697069604082015262195b9d60ea1b606082015260800190565b90815260200190565b600084825260606020830152612ffd606083018561299d565b828103604084015261300f81856129e1565b9695505050505050565b9283526020830191909152604082015260600190565b948552602085019390935260408401919091526060830152608082015260a00190565b6001600160a01b038116811461306757600080fd5b50565b801515811461306757600080fdfea264697066735822122002cc2ab602e5582d9e778c668ef2f15f871ec8f8c7af56be11534a0d30e132d564736f6c63430006000033",
          "opcodes": "PUSH1 0x80 PUSH1 0x40 MSTORE CALLVALUE DUP1 ISZERO PUSH3 0x11 JUMPI PUSH1 0x0 DUP1 REVERT JUMPDEST POP PUSH1 0x40 MLOAD PUSH3 0x3723 CODESIZE SUB DUP1 PUSH3 0x3723 DUP4 CODECOPY DUP2 ADD PUSH1 0x40 DUP2 SWAP1 MSTORE PUSH3 0x34 SWAP2 PUSH3 0x57F JUMP JUMPDEST PUSH1 0x0 PUSH3 0x49 PUSH1 0x1 PUSH1 0x1 PUSH1 0xE0 SHL SUB PUSH3 0x2A8 AND JUMP JUMPDEST PUSH1 0x0 DUP1 SLOAD PUSH1 0x1 PUSH1 0x1 PUSH1 0xA0 SHL SUB NOT AND PUSH1 0x1 PUSH1 0x1 PUSH1 0xA0 SHL SUB DUP4 AND SWAP1 DUP2 OR DUP3 SSTORE PUSH1 0x40 MLOAD SWAP3 SWAP4 POP SWAP2 PUSH32 0x8BE0079C531659141344CD1FD0A4F28419497F9722A3DAAFE3B4186F6B6457E0 SWAP1 DUP3 SWAP1 LOG3 POP PUSH1 0x1 SLOAD PUSH1 0x1 PUSH1 0xA0 SHL SWAP1 DIV PUSH1 0xFF AND ISZERO PUSH3 0xC9 JUMPI PUSH1 0x40 MLOAD PUSH3 0x461BCD PUSH1 0xE5 SHL DUP2 MSTORE PUSH1 0x4 ADD PUSH3 0xC0 SWAP1 PUSH3 0x603 JUMP JUMPDEST PUSH1 0x40 MLOAD DUP1 SWAP2 SUB SWAP1 REVERT JUMPDEST PUSH1 0x1 DUP1 SLOAD PUSH1 0x1 PUSH1 0x1 PUSH1 0xA0 SHL SUB NOT PUSH1 0xFF PUSH1 0xA0 SHL NOT SWAP1 SWAP2 AND PUSH1 0x1 PUSH1 0xA0 SHL OR AND CALLER OR DUP2 SSTORE PUSH1 0x2 SSTORE DUP3 MLOAD PUSH3 0x102 SWAP1 PUSH1 0x3 SWAP1 PUSH1 0x20 DUP7 ADD SWAP1 PUSH3 0x2AD JUMP JUMPDEST POP DUP2 MLOAD PUSH3 0x118 SWAP1 PUSH1 0x4 SWAP1 PUSH1 0x20 DUP6 ADD SWAP1 PUSH3 0x2AD JUMP JUMPDEST POP PUSH1 0x5 DUP2 SWAP1 SSTORE PUSH8 0xDE0B6B3A7640000 PUSH1 0xA SSTORE PUSH1 0x7 DUP1 SLOAD PUSH1 0x1 PUSH1 0x1 PUSH1 0xA0 SHL SUB NOT AND PUSH1 0x1 PUSH1 0x1 PUSH1 0xA0 SHL SUB DUP7 DUP2 AND SWAP2 SWAP1 SWAP2 OR SWAP2 DUP3 SWAP1 SSTORE PUSH1 0x40 DUP1 MLOAD PUSH4 0x6F307DC3 PUSH1 0xE0 SHL DUP2 MSTORE SWAP1 MLOAD SWAP3 SWAP1 SWAP2 AND SWAP2 PUSH4 0x6F307DC3 SWAP2 PUSH1 0x4 DUP1 DUP3 ADD SWAP3 PUSH1 0x20 SWAP3 SWAP1 SWAP2 SWAP1 DUP3 SWAP1 SUB ADD DUP2 DUP7 DUP1 EXTCODESIZE ISZERO DUP1 ISZERO PUSH3 0x187 JUMPI PUSH1 0x0 DUP1 REVERT JUMPDEST POP GAS STATICCALL ISZERO DUP1 ISZERO PUSH3 0x19C JUMPI RETURNDATASIZE PUSH1 0x0 DUP1 RETURNDATACOPY RETURNDATASIZE PUSH1 0x0 REVERT JUMPDEST POP POP POP POP PUSH1 0x40 MLOAD RETURNDATASIZE PUSH1 0x1F NOT PUSH1 0x1F DUP3 ADD AND DUP3 ADD DUP1 PUSH1 0x40 MSTORE POP PUSH3 0x1C2 SWAP2 SWAP1 DUP2 ADD SWAP1 PUSH3 0x559 JUMP JUMPDEST PUSH1 0x8 DUP1 SLOAD PUSH1 0x1 PUSH1 0x1 PUSH1 0xA0 SHL SUB SWAP3 SWAP1 SWAP3 AND PUSH1 0x1 PUSH1 0x1 PUSH1 0xA0 SHL SUB NOT SWAP1 SWAP3 AND SWAP2 SWAP1 SWAP2 OR SWAP1 SSTORE PUSH1 0x40 DUP1 MLOAD PUSH1 0x0 DUP2 DUP4 ADD DUP2 DUP2 MSTORE PUSH1 0x60 DUP4 ADD DUP5 MSTORE DUP3 MSTORE DUP3 MLOAD DUP2 DUP2 MSTORE PUSH1 0x20 DUP1 DUP3 ADD SWAP1 SWAP5 MSTORE DUP4 DUP4 ADD MSTORE PUSH1 0xC DUP1 SLOAD PUSH1 0x1 DUP2 ADD DUP3 SSTORE SWAP2 MSTORE DUP2 MLOAD DUP1 MLOAD SWAP3 SWAP4 PUSH1 0x2 SWAP1 SWAP3 MUL PUSH32 0xDF6966C971051C3D54EC59162606531493A51404A002842F56009D7E5CF4A8C7 ADD SWAP3 PUSH3 0x252 SWAP3 DUP5 SWAP3 ADD SWAP1 PUSH3 0x332 JUMP JUMPDEST POP PUSH1 0x20 DUP3 DUP2 ADD MLOAD DUP1 MLOAD PUSH3 0x26D SWAP3 PUSH1 0x1 DUP6 ADD SWAP3 ADD SWAP1 PUSH3 0x398 JUMP JUMPDEST POP POP PUSH1 0x0 DUP1 MSTORE POP POP PUSH1 0xF PUSH1 0x20 MSTORE POP POP PUSH1 0x0 NOT PUSH32 0xF4803E074BD026BAAF6ED2E288C9515F68C72FB7216EEBDD7CAE1718A53EC375 SSTORE POP PUSH3 0x665 JUMP JUMPDEST CALLER JUMPDEST SWAP1 JUMP JUMPDEST DUP3 DUP1 SLOAD PUSH1 0x1 DUP2 PUSH1 0x1 AND ISZERO PUSH2 0x100 MUL SUB AND PUSH1 0x2 SWAP1 DIV SWAP1 PUSH1 0x0 MSTORE PUSH1 0x20 PUSH1 0x0 KECCAK256 SWAP1 PUSH1 0x1F ADD PUSH1 0x20 SWAP1 DIV DUP2 ADD SWAP3 DUP3 PUSH1 0x1F LT PUSH3 0x2F0 JUMPI DUP1 MLOAD PUSH1 0xFF NOT AND DUP4 DUP1 ADD OR DUP6 SSTORE PUSH3 0x320 JUMP JUMPDEST DUP3 DUP1 ADD PUSH1 0x1 ADD DUP6 SSTORE DUP3 ISZERO PUSH3 0x320 JUMPI SWAP2 DUP3 ADD JUMPDEST DUP3 DUP2 GT ISZERO PUSH3 0x320 JUMPI DUP3 MLOAD DUP3 SSTORE SWAP2 PUSH1 0x20 ADD SWAP2 SWAP1 PUSH1 0x1 ADD SWAP1 PUSH3 0x303 JUMP JUMPDEST POP PUSH3 0x32E SWAP3 SWAP2 POP PUSH3 0x44A JUMP JUMPDEST POP SWAP1 JUMP JUMPDEST DUP3 DUP1 SLOAD DUP3 DUP3 SSTORE SWAP1 PUSH1 0x0 MSTORE PUSH1 0x20 PUSH1 0x0 KECCAK256 SWAP1 DUP2 ADD SWAP3 DUP3 ISZERO PUSH3 0x38A JUMPI SWAP2 PUSH1 0x20 MUL DUP3 ADD JUMPDEST DUP3 DUP2 GT ISZERO PUSH3 0x38A JUMPI DUP3 MLOAD DUP3 SLOAD PUSH1 0x1 PUSH1 0x1 PUSH1 0xA0 SHL SUB NOT AND PUSH1 0x1 PUSH1 0x1 PUSH1 0xA0 SHL SUB SWAP1 SWAP2 AND OR DUP3 SSTORE PUSH1 0x20 SWAP1 SWAP3 ADD SWAP2 PUSH1 0x1 SWAP1 SWAP2 ADD SWAP1 PUSH3 0x353 JUMP JUMPDEST POP PUSH3 0x32E SWAP3 SWAP2 POP PUSH3 0x467 JUMP JUMPDEST DUP3 DUP1 SLOAD DUP3 DUP3 SSTORE SWAP1 PUSH1 0x0 MSTORE PUSH1 0x20 PUSH1 0x0 KECCAK256 SWAP1 PUSH1 0x7 ADD PUSH1 0x8 SWAP1 DIV DUP2 ADD SWAP3 DUP3 ISZERO PUSH3 0x43C JUMPI SWAP2 PUSH1 0x20 MUL DUP3 ADD PUSH1 0x0 JUMPDEST DUP4 DUP3 GT ISZERO PUSH3 0x408 JUMPI DUP4 MLOAD DUP4 DUP3 PUSH2 0x100 EXP DUP2 SLOAD DUP2 PUSH4 0xFFFFFFFF MUL NOT AND SWAP1 DUP4 PUSH4 0xFFFFFFFF AND MUL OR SWAP1 SSTORE POP SWAP3 PUSH1 0x20 ADD SWAP3 PUSH1 0x4 ADD PUSH1 0x20 DUP2 PUSH1 0x3 ADD DIV SWAP3 DUP4 ADD SWAP3 PUSH1 0x1 SUB MUL PUSH3 0x3C2 JUMP JUMPDEST DUP1 ISZERO PUSH3 0x43A JUMPI DUP3 DUP2 PUSH2 0x100 EXP DUP2 SLOAD SWAP1 PUSH4 0xFFFFFFFF MUL NOT AND SWAP1 SSTORE PUSH1 0x4 ADD PUSH1 0x20 DUP2 PUSH1 0x3 ADD DIV SWAP3 DUP4 ADD SWAP3 PUSH1 0x1 SUB MUL PUSH3 0x408 JUMP JUMPDEST POP JUMPDEST POP PUSH3 0x32E SWAP3 SWAP2 POP PUSH3 0x48E JUMP JUMPDEST PUSH3 0x2AA SWAP2 SWAP1 JUMPDEST DUP1 DUP3 GT ISZERO PUSH3 0x32E JUMPI PUSH1 0x0 DUP2 SSTORE PUSH1 0x1 ADD PUSH3 0x451 JUMP JUMPDEST PUSH3 0x2AA SWAP2 SWAP1 JUMPDEST DUP1 DUP3 GT ISZERO PUSH3 0x32E JUMPI DUP1 SLOAD PUSH1 0x1 PUSH1 0x1 PUSH1 0xA0 SHL SUB NOT AND DUP2 SSTORE PUSH1 0x1 ADD PUSH3 0x46E JUMP JUMPDEST PUSH3 0x2AA SWAP2 SWAP1 JUMPDEST DUP1 DUP3 GT ISZERO PUSH3 0x32E JUMPI DUP1 SLOAD PUSH4 0xFFFFFFFF NOT AND DUP2 SSTORE PUSH1 0x1 ADD PUSH3 0x495 JUMP JUMPDEST PUSH1 0x0 DUP3 PUSH1 0x1F DUP4 ADD SLT PUSH3 0x4C3 JUMPI DUP1 DUP2 REVERT JUMPDEST DUP2 MLOAD PUSH1 0x1 PUSH1 0x1 PUSH1 0x40 SHL SUB DUP1 DUP3 GT ISZERO PUSH3 0x4DA JUMPI DUP3 DUP4 REVERT JUMPDEST PUSH1 0x40 MLOAD PUSH1 0x20 PUSH1 0x1F DUP5 ADD PUSH1 0x1F NOT AND DUP3 ADD DUP2 ADD DUP4 DUP2 GT DUP4 DUP3 LT OR ISZERO PUSH3 0x4FC JUMPI DUP6 DUP7 REVERT JUMPDEST DUP1 PUSH1 0x40 MSTORE POP DUP2 SWAP5 POP DUP4 DUP3 MSTORE DUP7 DUP2 DUP6 DUP9 ADD ADD GT ISZERO PUSH3 0x519 JUMPI PUSH1 0x0 DUP1 REVERT JUMPDEST PUSH1 0x0 SWAP3 POP JUMPDEST DUP4 DUP4 LT ISZERO PUSH3 0x53D JUMPI DUP6 DUP4 ADD DUP2 ADD MLOAD DUP3 DUP5 ADD DUP3 ADD MSTORE SWAP2 DUP3 ADD SWAP2 PUSH3 0x51E JUMP JUMPDEST DUP4 DUP4 GT ISZERO PUSH3 0x54F JUMPI PUSH1 0x0 DUP2 DUP6 DUP5 ADD ADD MSTORE JUMPDEST POP POP POP POP SWAP3 SWAP2 POP POP JUMP JUMPDEST PUSH1 0x0 PUSH1 0x20 DUP3 DUP5 SUB SLT ISZERO PUSH3 0x56B JUMPI DUP1 DUP2 REVERT JUMPDEST DUP2 MLOAD PUSH3 0x578 DUP2 PUSH3 0x64C JUMP JUMPDEST SWAP4 SWAP3 POP POP POP JUMP JUMPDEST PUSH1 0x0 DUP1 PUSH1 0x0 DUP1 PUSH1 0x80 DUP6 DUP8 SUB SLT ISZERO PUSH3 0x595 JUMPI DUP3 DUP4 REVERT JUMPDEST DUP5 MLOAD PUSH3 0x5A2 DUP2 PUSH3 0x64C JUMP JUMPDEST PUSH1 0x20 DUP7 ADD MLOAD SWAP1 SWAP5 POP PUSH1 0x1 PUSH1 0x1 PUSH1 0x40 SHL SUB DUP1 DUP3 GT ISZERO PUSH3 0x5BF JUMPI DUP5 DUP6 REVERT JUMPDEST PUSH3 0x5CD DUP9 DUP4 DUP10 ADD PUSH3 0x4B2 JUMP JUMPDEST SWAP5 POP PUSH1 0x40 DUP8 ADD MLOAD SWAP2 POP DUP1 DUP3 GT ISZERO PUSH3 0x5E3 JUMPI DUP4 DUP5 REVERT JUMPDEST POP PUSH3 0x5F2 DUP8 DUP3 DUP9 ADD PUSH3 0x4B2 JUMP JUMPDEST PUSH1 0x60 SWAP7 SWAP1 SWAP7 ADD MLOAD SWAP5 SWAP8 SWAP4 SWAP7 POP POP POP POP JUMP JUMPDEST PUSH1 0x20 DUP1 DUP3 MSTORE PUSH1 0x29 SWAP1 DUP3 ADD MSTORE PUSH32 0x546865206C6962726172792068617320616C7265616479206265656E20696E69 PUSH1 0x40 DUP3 ADD MSTORE PUSH9 0x3A34B0B634BD32B217 PUSH1 0xB9 SHL PUSH1 0x60 DUP3 ADD MSTORE PUSH1 0x80 ADD SWAP1 JUMP JUMPDEST PUSH1 0x1 PUSH1 0x1 PUSH1 0xA0 SHL SUB DUP2 AND DUP2 EQ PUSH3 0x662 JUMPI PUSH1 0x0 DUP1 REVERT JUMPDEST POP JUMP JUMPDEST PUSH2 0x30AE DUP1 PUSH3 0x675 PUSH1 0x0 CODECOPY PUSH1 0x0 RETURN INVALID PUSH1 0x80 PUSH1 0x40 MSTORE CALLVALUE DUP1 ISZERO PUSH2 0x10 JUMPI PUSH1 0x0 DUP1 REVERT JUMPDEST POP PUSH1 0x4 CALLDATASIZE LT PUSH2 0x269 JUMPI PUSH1 0x0 CALLDATALOAD PUSH1 0xE0 SHR DUP1 PUSH4 0x715018A6 GT PUSH2 0x151 JUMPI DUP1 PUSH4 0xBF5BFDFB GT PUSH2 0xC3 JUMPI DUP1 PUSH4 0xDB006A75 GT PUSH2 0x87 JUMPI DUP1 PUSH4 0xDB006A75 EQ PUSH2 0x500 JUMPI DUP1 PUSH4 0xDD62ED3E EQ PUSH2 0x513 JUMPI DUP1 PUSH4 0xF04BF8B3 EQ PUSH2 0x526 JUMPI DUP1 PUSH4 0xF2FDE38B EQ PUSH2 0x548 JUMPI DUP1 PUSH4 0xFC0C546A EQ PUSH2 0x55B JUMPI DUP1 PUSH4 0xFDBBF8AC EQ PUSH2 0x563 JUMPI PUSH2 0x269 JUMP JUMPDEST DUP1 PUSH4 0xBF5BFDFB EQ PUSH2 0x4B7 JUMPI DUP1 PUSH4 0xC200659E EQ PUSH2 0x4BF JUMPI DUP1 PUSH4 0xD007C644 EQ PUSH2 0x4C7 JUMPI DUP1 PUSH4 0xD271BE3F EQ PUSH2 0x4DA JUMPI DUP1 PUSH4 0xD51E0ECF EQ PUSH2 0x4ED JUMPI PUSH2 0x269 JUMP JUMPDEST DUP1 PUSH4 0x95D89B41 GT PUSH2 0x115 JUMPI DUP1 PUSH4 0x95D89B41 EQ PUSH2 0x45B JUMPI DUP1 PUSH4 0xA0712D68 EQ PUSH2 0x463 JUMPI DUP1 PUSH4 0xA3A7E7F3 EQ PUSH2 0x476 JUMPI DUP1 PUSH4 0xA9059CBB EQ PUSH2 0x489 JUMPI DUP1 PUSH4 0xB2BDFA7B EQ PUSH2 0x49C JUMPI DUP1 PUSH4 0xB5DBFC1A EQ PUSH2 0x4A4 JUMPI PUSH2 0x269 JUMP JUMPDEST DUP1 PUSH4 0x715018A6 EQ PUSH2 0x41D JUMPI DUP1 PUSH4 0x71EE46EB EQ PUSH2 0x425 JUMPI DUP1 PUSH4 0x77EDE051 EQ PUSH2 0x42D JUMPI DUP1 PUSH4 0x84D4B410 EQ PUSH2 0x440 JUMPI DUP1 PUSH4 0x8DA5CB5B EQ PUSH2 0x453 JUMPI PUSH2 0x269 JUMP JUMPDEST DUP1 PUSH4 0x2F4350C2 GT PUSH2 0x1EA JUMPI DUP1 PUSH4 0x496CC164 GT PUSH2 0x1AE JUMPI DUP1 PUSH4 0x496CC164 EQ PUSH2 0x398 JUMPI DUP1 PUSH4 0x556043EF EQ PUSH2 0x3AB JUMPI DUP1 PUSH4 0x5CDE5055 EQ PUSH2 0x3C0 JUMPI DUP1 PUSH4 0x5E5C06E2 EQ PUSH2 0x3D3 JUMPI DUP1 PUSH4 0x63152A50 EQ PUSH2 0x3F7 JUMPI DUP1 PUSH4 0x70A08231 EQ PUSH2 0x40A JUMPI PUSH2 0x269 JUMP JUMPDEST DUP1 PUSH4 0x2F4350C2 EQ PUSH2 0x358 JUMPI DUP1 PUSH4 0x313CE567 EQ PUSH2 0x360 JUMPI DUP1 PUSH4 0x388C0B8C EQ PUSH2 0x368 JUMPI DUP1 PUSH4 0x3E20A929 EQ PUSH2 0x37B JUMPI DUP1 PUSH4 0x4929FBF7 EQ PUSH2 0x383 JUMPI PUSH2 0x269 JUMP JUMPDEST DUP1 PUSH4 0x158EF93E GT PUSH2 0x231 JUMPI DUP1 PUSH4 0x158EF93E EQ PUSH2 0x301 JUMPI DUP1 PUSH4 0x18160DDD EQ PUSH2 0x309 JUMPI DUP1 PUSH4 0x1CDA95D5 EQ PUSH2 0x311 JUMPI DUP1 PUSH4 0x23B872DD EQ PUSH2 0x332 JUMPI DUP1 PUSH4 0x2F2BA814 EQ PUSH2 0x345 JUMPI PUSH2 0x269 JUMP JUMPDEST DUP1 PUSH4 0x290CBC8 EQ PUSH2 0x26E JUMPI DUP1 PUSH4 0x54AB01A EQ PUSH2 0x297 JUMPI DUP1 PUSH4 0x6FDDE03 EQ PUSH2 0x2B9 JUMPI DUP1 PUSH4 0x95EA7B3 EQ PUSH2 0x2CE JUMPI DUP1 PUSH4 0x13E23E41 EQ PUSH2 0x2E1 JUMPI JUMPDEST PUSH1 0x0 DUP1 REVERT JUMPDEST PUSH2 0x281 PUSH2 0x27C CALLDATASIZE PUSH1 0x4 PUSH2 0x2748 JUMP JUMPDEST PUSH2 0x576 JUMP JUMPDEST PUSH1 0x40 MLOAD PUSH2 0x28E SWAP2 SWAP1 PUSH2 0x2B1C JUMP JUMPDEST PUSH1 0x40 MLOAD DUP1 SWAP2 SUB SWAP1 RETURN JUMPDEST PUSH2 0x2AA PUSH2 0x2A5 CALLDATASIZE PUSH1 0x4 PUSH2 0x2748 JUMP JUMPDEST PUSH2 0x5B4 JUMP JUMPDEST PUSH1 0x40 MLOAD PUSH2 0x28E SWAP4 SWAP3 SWAP2 SWAP1 PUSH2 0x2FE4 JUMP JUMPDEST PUSH2 0x2C1 PUSH2 0x5E3 JUMP JUMPDEST PUSH1 0x40 MLOAD PUSH2 0x28E SWAP2 SWAP1 PUSH2 0x2B27 JUMP JUMPDEST PUSH2 0x281 PUSH2 0x2DC CALLDATASIZE PUSH1 0x4 PUSH2 0x27D7 JUMP JUMPDEST PUSH2 0x671 JUMP JUMPDEST PUSH2 0x2F4 PUSH2 0x2EF CALLDATASIZE PUSH1 0x4 PUSH2 0x2748 JUMP JUMPDEST PUSH2 0x6A0 JUMP JUMPDEST PUSH1 0x40 MLOAD PUSH2 0x28E SWAP2 SWAP1 PUSH2 0x2FDB JUMP JUMPDEST PUSH2 0x281 PUSH2 0x6BE JUMP JUMPDEST PUSH2 0x2F4 PUSH2 0x6CE JUMP JUMPDEST PUSH2 0x324 PUSH2 0x31F CALLDATASIZE PUSH1 0x4 PUSH2 0x289E JUMP JUMPDEST PUSH2 0x6D4 JUMP JUMPDEST PUSH1 0x40 MLOAD PUSH2 0x28E SWAP3 SWAP2 SWAP1 PUSH2 0x2AF7 JUMP JUMPDEST PUSH2 0x281 PUSH2 0x340 CALLDATASIZE PUSH1 0x4 PUSH2 0x2797 JUMP JUMPDEST PUSH2 0x6EA JUMP JUMPDEST PUSH2 0x281 PUSH2 0x353 CALLDATASIZE PUSH1 0x4 PUSH2 0x289E JUMP JUMPDEST PUSH2 0x714 JUMP JUMPDEST PUSH2 0x281 PUSH2 0x731 JUMP JUMPDEST PUSH2 0x2F4 PUSH2 0x7C3 JUMP JUMPDEST PUSH2 0x281 PUSH2 0x376 CALLDATASIZE PUSH1 0x4 PUSH2 0x2945 JUMP JUMPDEST PUSH2 0x7C9 JUMP JUMPDEST PUSH2 0x2F4 PUSH2 0x7F0 JUMP JUMPDEST PUSH2 0x396 PUSH2 0x391 CALLDATASIZE PUSH1 0x4 PUSH2 0x27D7 JUMP JUMPDEST PUSH2 0x7FA JUMP JUMPDEST STOP JUMPDEST PUSH2 0x2F4 PUSH2 0x3A6 CALLDATASIZE PUSH1 0x4 PUSH2 0x2748 JUMP JUMPDEST PUSH2 0x86B JUMP JUMPDEST PUSH2 0x3B3 PUSH2 0x87D JUMP JUMPDEST PUSH1 0x40 MLOAD PUSH2 0x28E SWAP2 SWAP1 PUSH2 0x2A63 JUMP JUMPDEST PUSH2 0x2F4 PUSH2 0x3CE CALLDATASIZE PUSH1 0x4 PUSH2 0x2801 JUMP JUMPDEST PUSH2 0x88C JUMP JUMPDEST PUSH2 0x3E6 PUSH2 0x3E1 CALLDATASIZE PUSH1 0x4 PUSH2 0x2748 JUMP JUMPDEST PUSH2 0x916 JUMP JUMPDEST PUSH1 0x40 MLOAD PUSH2 0x28E SWAP6 SWAP5 SWAP4 SWAP3 SWAP2 SWAP1 PUSH2 0x302F JUMP JUMPDEST PUSH2 0x2F4 PUSH2 0x405 CALLDATASIZE PUSH1 0x4 PUSH2 0x2763 JUMP JUMPDEST PUSH2 0x945 JUMP JUMPDEST PUSH2 0x2F4 PUSH2 0x418 CALLDATASIZE PUSH1 0x4 PUSH2 0x2748 JUMP JUMPDEST PUSH2 0x962 JUMP JUMPDEST PUSH2 0x396 PUSH2 0x980 JUMP JUMPDEST PUSH2 0x2F4 PUSH2 0x9FF JUMP JUMPDEST PUSH2 0x2F4 PUSH2 0x43B CALLDATASIZE PUSH1 0x4 PUSH2 0x2748 JUMP JUMPDEST PUSH2 0xA05 JUMP JUMPDEST PUSH2 0x281 PUSH2 0x44E CALLDATASIZE PUSH1 0x4 PUSH2 0x2763 JUMP JUMPDEST PUSH2 0xA2D JUMP JUMPDEST PUSH2 0x3B3 PUSH2 0xA6C JUMP JUMPDEST PUSH2 0x2C1 PUSH2 0xA7B JUMP JUMPDEST PUSH2 0x281 PUSH2 0x471 CALLDATASIZE PUSH1 0x4 PUSH2 0x289E JUMP JUMPDEST PUSH2 0xAD6 JUMP JUMPDEST PUSH2 0x281 PUSH2 0x484 CALLDATASIZE PUSH1 0x4 PUSH2 0x2748 JUMP JUMPDEST PUSH2 0xAE1 JUMP JUMPDEST PUSH2 0x281 PUSH2 0x497 CALLDATASIZE PUSH1 0x4 PUSH2 0x27D7 JUMP JUMPDEST PUSH2 0xB21 JUMP JUMPDEST PUSH2 0x3B3 PUSH2 0xB42 JUMP JUMPDEST PUSH2 0x281 PUSH2 0x4B2 CALLDATASIZE PUSH1 0x4 PUSH2 0x28CE JUMP JUMPDEST PUSH2 0xB51 JUMP JUMPDEST PUSH2 0x2F4 PUSH2 0xBEC JUMP JUMPDEST PUSH2 0x2F4 PUSH2 0xBF2 JUMP JUMPDEST PUSH2 0x281 PUSH2 0x4D5 CALLDATASIZE PUSH1 0x4 PUSH2 0x2748 JUMP JUMPDEST PUSH2 0xBF8 JUMP JUMPDEST PUSH2 0x281 PUSH2 0x4E8 CALLDATASIZE PUSH1 0x4 PUSH2 0x27D7 JUMP JUMPDEST PUSH2 0xC03 JUMP JUMPDEST PUSH2 0x281 PUSH2 0x4FB CALLDATASIZE PUSH1 0x4 PUSH2 0x2966 JUMP JUMPDEST PUSH2 0xC19 JUMP JUMPDEST PUSH2 0x281 PUSH2 0x50E CALLDATASIZE PUSH1 0x4 PUSH2 0x289E JUMP JUMPDEST PUSH2 0xD53 JUMP JUMPDEST PUSH2 0x2F4 PUSH2 0x521 CALLDATASIZE PUSH1 0x4 PUSH2 0x2763 JUMP JUMPDEST PUSH2 0xD69 JUMP JUMPDEST PUSH2 0x539 PUSH2 0x534 CALLDATASIZE PUSH1 0x4 PUSH2 0x289E JUMP JUMPDEST PUSH2 0xD94 JUMP JUMPDEST PUSH1 0x40 MLOAD PUSH2 0x28E SWAP4 SWAP3 SWAP2 SWAP1 PUSH2 0x3019 JUMP JUMPDEST PUSH2 0x396 PUSH2 0x556 CALLDATASIZE PUSH1 0x4 PUSH2 0x2748 JUMP JUMPDEST PUSH2 0xDB5 JUMP JUMPDEST PUSH2 0x3B3 PUSH2 0xE6B JUMP JUMPDEST PUSH2 0x2F4 PUSH2 0x571 CALLDATASIZE PUSH1 0x4 PUSH2 0x2748 JUMP JUMPDEST PUSH2 0xE7A JUMP JUMPDEST PUSH1 0x0 CALLER PUSH2 0x582 DUP2 PUSH2 0xEAA JUMP JUMPDEST PUSH1 0x1 PUSH1 0x1 PUSH1 0xA0 SHL SUB DUP2 AND PUSH1 0x0 SWAP1 DUP2 MSTORE PUSH1 0xD PUSH1 0x20 MSTORE PUSH1 0x40 SWAP1 KECCAK256 PUSH1 0x1 ADD SLOAD PUSH2 0x5A9 SWAP1 DUP5 SWAP1 PUSH2 0xFD6 JUMP JUMPDEST PUSH1 0x1 SWAP2 POP POP JUMPDEST SWAP2 SWAP1 POP JUMP JUMPDEST PUSH1 0x1 PUSH1 0x1 PUSH1 0xA0 SHL SUB DUP2 AND PUSH1 0x0 SWAP1 DUP2 MSTORE PUSH1 0xD PUSH1 0x20 MSTORE PUSH1 0x40 SWAP1 KECCAK256 SLOAD PUSH1 0x60 DUP1 PUSH2 0x5D9 DUP4 PUSH2 0x1105 JUMP JUMPDEST SWAP4 SWAP6 SWAP1 SWAP5 POP SWAP2 POP POP JUMP JUMPDEST PUSH1 0x3 DUP1 SLOAD PUSH1 0x40 DUP1 MLOAD PUSH1 0x20 PUSH1 0x2 PUSH1 0x1 DUP6 AND ISZERO PUSH2 0x100 MUL PUSH1 0x0 NOT ADD SWAP1 SWAP5 AND SWAP4 SWAP1 SWAP4 DIV PUSH1 0x1F DUP2 ADD DUP5 SWAP1 DIV DUP5 MUL DUP3 ADD DUP5 ADD SWAP1 SWAP3 MSTORE DUP2 DUP2 MSTORE SWAP3 SWAP2 DUP4 ADD DUP3 DUP3 DUP1 ISZERO PUSH2 0x669 JUMPI DUP1 PUSH1 0x1F LT PUSH2 0x63E JUMPI PUSH2 0x100 DUP1 DUP4 SLOAD DIV MUL DUP4 MSTORE SWAP2 PUSH1 0x20 ADD SWAP2 PUSH2 0x669 JUMP JUMPDEST DUP3 ADD SWAP2 SWAP1 PUSH1 0x0 MSTORE PUSH1 0x20 PUSH1 0x0 KECCAK256 SWAP1 JUMPDEST DUP2 SLOAD DUP2 MSTORE SWAP1 PUSH1 0x1 ADD SWAP1 PUSH1 0x20 ADD DUP1 DUP4 GT PUSH2 0x64C JUMPI DUP3 SWAP1 SUB PUSH1 0x1F AND DUP3 ADD SWAP2 JUMPDEST POP POP POP POP POP DUP2 JUMP JUMPDEST CALLER PUSH1 0x0 SWAP1 DUP2 MSTORE PUSH1 0xB PUSH1 0x20 SWAP1 DUP2 MSTORE PUSH1 0x40 DUP1 DUP4 KECCAK256 PUSH1 0x1 PUSH1 0x1 PUSH1 0xA0 SHL SUB DUP7 AND DUP5 MSTORE SWAP1 SWAP2 MSTORE SWAP1 KECCAK256 DUP2 SWAP1 SSTORE PUSH1 0x1 JUMPDEST SWAP3 SWAP2 POP POP JUMP JUMPDEST PUSH1 0x1 PUSH1 0x1 PUSH1 0xA0 SHL SUB AND PUSH1 0x0 SWAP1 DUP2 MSTORE PUSH1 0xD PUSH1 0x20 MSTORE PUSH1 0x40 SWAP1 KECCAK256 PUSH1 0x4 ADD SLOAD SWAP1 JUMP JUMPDEST PUSH1 0x1 SLOAD PUSH1 0x1 PUSH1 0xA0 SHL SWAP1 DIV PUSH1 0xFF AND DUP2 JUMP JUMPDEST PUSH1 0x6 SLOAD DUP2 JUMP JUMPDEST PUSH1 0x60 DUP1 PUSH2 0x6E0 DUP4 PUSH2 0x1105 JUMP JUMPDEST SWAP1 SWAP5 SWAP1 SWAP4 POP SWAP2 POP POP JUMP JUMPDEST PUSH1 0x0 PUSH2 0x6F5 DUP5 PUSH2 0xEAA JUMP JUMPDEST PUSH2 0x701 CALLER DUP6 DUP6 DUP6 PUSH2 0x1267 JUMP JUMPDEST PUSH2 0x70A DUP4 PUSH2 0xEAA JUMP JUMPDEST POP PUSH1 0x1 SWAP4 SWAP3 POP POP POP JUMP JUMPDEST PUSH1 0x0 PUSH2 0x720 CALLER DUP4 PUSH2 0x14AA JUMP JUMPDEST PUSH2 0x729 CALLER PUSH2 0xEAA JUMP JUMPDEST POP PUSH1 0x1 SWAP2 SWAP1 POP JUMP JUMPDEST PUSH1 0x0 CALLER PUSH2 0x73D DUP2 PUSH2 0xEAA JUMP JUMPDEST PUSH1 0x1 PUSH1 0x1 PUSH1 0xA0 SHL SUB DUP2 AND PUSH1 0x0 SWAP1 DUP2 MSTORE PUSH1 0xD PUSH1 0x20 MSTORE PUSH1 0x40 SWAP1 DUP2 SWAP1 KECCAK256 PUSH1 0x1 ADD SLOAD SWAP1 MLOAD PUSH32 0x101D644328D76D46044B18876B706237B175A8146EF4ACC7390C967CD36F4373 SWAP2 PUSH2 0x78B SWAP2 CALLER SWAP2 SWAP1 PUSH2 0x2AB5 JUMP JUMPDEST PUSH1 0x40 MLOAD DUP1 SWAP2 SUB SWAP1 LOG1 PUSH1 0x1 PUSH1 0x1 PUSH1 0xA0 SHL SUB DUP2 AND PUSH1 0x0 SWAP1 DUP2 MSTORE PUSH1 0xD PUSH1 0x20 MSTORE PUSH1 0x40 SWAP1 KECCAK256 PUSH1 0x1 ADD SLOAD PUSH2 0x7BA SWAP1 DUP3 SWAP1 PUSH2 0xFD6 JUMP JUMPDEST PUSH1 0x1 SWAP2 POP POP JUMPDEST SWAP1 JUMP JUMPDEST PUSH1 0x5 SLOAD DUP2 JUMP JUMPDEST PUSH1 0x0 PUSH2 0x7D5 CALLER DUP4 PUSH2 0x14AA JUMP JUMPDEST PUSH2 0x7DE DUP4 PUSH2 0x1557 JUMP JUMPDEST PUSH2 0x7E7 CALLER PUSH2 0xEAA JUMP JUMPDEST POP PUSH1 0x1 SWAP3 SWAP2 POP POP JUMP JUMPDEST PUSH1 0xC SLOAD PUSH1 0x0 NOT ADD SWAP1 JUMP JUMPDEST PUSH2 0x802 PUSH2 0x1894 JUMP JUMPDEST PUSH1 0x0 SLOAD PUSH1 0x1 PUSH1 0x1 PUSH1 0xA0 SHL SUB SWAP1 DUP2 AND SWAP2 AND EQ PUSH2 0x838 JUMPI PUSH1 0x40 MLOAD PUSH3 0x461BCD PUSH1 0xE5 SHL DUP2 MSTORE PUSH1 0x4 ADD PUSH2 0x82F SWAP1 PUSH2 0x2E26 JUMP JUMPDEST PUSH1 0x40 MLOAD DUP1 SWAP2 SUB SWAP1 REVERT JUMPDEST PUSH2 0x841 DUP3 PUSH2 0x1898 JUMP JUMPDEST PUSH2 0x85D JUMPI PUSH1 0x40 MLOAD PUSH3 0x461BCD PUSH1 0xE5 SHL DUP2 MSTORE PUSH1 0x4 ADD PUSH2 0x82F SWAP1 PUSH2 0x2CFA JUMP JUMPDEST PUSH2 0x867 DUP3 DUP3 PUSH2 0x14AA JUMP JUMPDEST POP POP JUMP JUMPDEST PUSH1 0xE PUSH1 0x20 MSTORE PUSH1 0x0 SWAP1 DUP2 MSTORE PUSH1 0x40 SWAP1 KECCAK256 SLOAD DUP2 JUMP JUMPDEST PUSH1 0x7 SLOAD PUSH1 0x1 PUSH1 0x1 PUSH1 0xA0 SHL SUB AND DUP2 JUMP JUMPDEST PUSH1 0x0 PUSH2 0x8FB DUP7 DUP7 DUP1 DUP1 PUSH1 0x20 MUL PUSH1 0x20 ADD PUSH1 0x40 MLOAD SWAP1 DUP2 ADD PUSH1 0x40 MSTORE DUP1 SWAP4 SWAP3 SWAP2 SWAP1 DUP2 DUP2 MSTORE PUSH1 0x20 ADD DUP4 DUP4 PUSH1 0x20 MUL DUP1 DUP3 DUP5 CALLDATACOPY PUSH1 0x0 SWAP3 ADD SWAP2 SWAP1 SWAP2 MSTORE POP POP PUSH1 0x40 DUP1 MLOAD PUSH1 0x20 DUP1 DUP11 MUL DUP3 DUP2 ADD DUP3 ADD SWAP1 SWAP4 MSTORE DUP10 DUP3 MSTORE SWAP1 SWAP4 POP DUP10 SWAP3 POP DUP9 SWAP2 DUP3 SWAP2 DUP6 ADD SWAP1 DUP5 SWAP1 DUP1 DUP3 DUP5 CALLDATACOPY PUSH1 0x0 SWAP3 ADD SWAP2 SWAP1 SWAP2 MSTORE POP PUSH2 0x189E SWAP3 POP POP POP JUMP JUMPDEST SWAP1 POP DUP2 ISZERO PUSH2 0x90D JUMPI PUSH2 0x90D CALLER DUP3 PUSH2 0x14AA JUMP JUMPDEST SWAP6 SWAP5 POP POP POP POP POP JUMP JUMPDEST PUSH1 0xD PUSH1 0x20 MSTORE PUSH1 0x0 SWAP1 DUP2 MSTORE PUSH1 0x40 SWAP1 KECCAK256 DUP1 SLOAD PUSH1 0x1 DUP3 ADD SLOAD PUSH1 0x2 DUP4 ADD SLOAD PUSH1 0x4 DUP5 ADD SLOAD PUSH1 0x5 SWAP1 SWAP5 ADD SLOAD SWAP3 SWAP4 SWAP2 SWAP3 SWAP1 SWAP2 SWAP1 DUP6 JUMP JUMPDEST PUSH1 0xB PUSH1 0x20 SWAP1 DUP2 MSTORE PUSH1 0x0 SWAP3 DUP4 MSTORE PUSH1 0x40 DUP1 DUP5 KECCAK256 SWAP1 SWAP2 MSTORE SWAP1 DUP3 MSTORE SWAP1 KECCAK256 SLOAD DUP2 JUMP JUMPDEST PUSH1 0x1 PUSH1 0x1 PUSH1 0xA0 SHL SUB AND PUSH1 0x0 SWAP1 DUP2 MSTORE PUSH1 0xD PUSH1 0x20 MSTORE PUSH1 0x40 SWAP1 KECCAK256 PUSH1 0x1 ADD SLOAD SWAP1 JUMP JUMPDEST PUSH2 0x988 PUSH2 0x1894 JUMP JUMPDEST PUSH1 0x0 SLOAD PUSH1 0x1 PUSH1 0x1 PUSH1 0xA0 SHL SUB SWAP1 DUP2 AND SWAP2 AND EQ PUSH2 0x9B5 JUMPI PUSH1 0x40 MLOAD PUSH3 0x461BCD PUSH1 0xE5 SHL DUP2 MSTORE PUSH1 0x4 ADD PUSH2 0x82F SWAP1 PUSH2 0x2E26 JUMP JUMPDEST PUSH1 0x0 DUP1 SLOAD PUSH1 0x40 MLOAD PUSH1 0x1 PUSH1 0x1 PUSH1 0xA0 SHL SUB SWAP1 SWAP2 AND SWAP1 PUSH32 0x8BE0079C531659141344CD1FD0A4F28419497F9722A3DAAFE3B4186F6B6457E0 SWAP1 DUP4 SWAP1 LOG3 PUSH1 0x0 DUP1 SLOAD PUSH1 0x1 PUSH1 0x1 PUSH1 0xA0 SHL SUB NOT AND SWAP1 SSTORE JUMP JUMPDEST PUSH1 0x9 SLOAD DUP2 JUMP JUMPDEST PUSH1 0x1 PUSH1 0x1 PUSH1 0xA0 SHL SUB DUP2 AND PUSH1 0x0 SWAP1 DUP2 MSTORE PUSH1 0xD PUSH1 0x20 MSTORE PUSH1 0x40 DUP2 KECCAK256 PUSH2 0xA26 DUP2 PUSH2 0x1AB1 JUMP JUMPDEST SWAP4 SWAP3 POP POP POP JUMP JUMPDEST PUSH1 0x0 PUSH2 0xA38 DUP4 PUSH2 0xEAA JUMP JUMPDEST PUSH1 0x1 PUSH1 0x1 PUSH1 0xA0 SHL SUB DUP4 AND PUSH1 0x0 SWAP1 DUP2 MSTORE PUSH1 0xD PUSH1 0x20 MSTORE PUSH1 0x40 SWAP1 KECCAK256 PUSH1 0x1 ADD SLOAD PUSH2 0xA63 SWAP1 CALLER SWAP1 DUP6 SWAP1 DUP6 SWAP1 PUSH2 0x1267 JUMP JUMPDEST PUSH2 0x7E7 DUP3 PUSH2 0xEAA JUMP JUMPDEST PUSH1 0x0 SLOAD PUSH1 0x1 PUSH1 0x1 PUSH1 0xA0 SHL SUB AND SWAP1 JUMP JUMPDEST PUSH1 0x4 DUP1 SLOAD PUSH1 0x40 DUP1 MLOAD PUSH1 0x20 PUSH1 0x2 PUSH1 0x1 DUP6 AND ISZERO PUSH2 0x100 MUL PUSH1 0x0 NOT ADD SWAP1 SWAP5 AND SWAP4 SWAP1 SWAP4 DIV PUSH1 0x1F DUP2 ADD DUP5 SWAP1 DIV DUP5 MUL DUP3 ADD DUP5 ADD SWAP1 SWAP3 MSTORE DUP2 DUP2 MSTORE SWAP3 SWAP2 DUP4 ADD DUP3 DUP3 DUP1 ISZERO PUSH2 0x669 JUMPI DUP1 PUSH1 0x1F LT PUSH2 0x63E JUMPI PUSH2 0x100 DUP1 DUP4 SLOAD DIV MUL DUP4 MSTORE SWAP2 PUSH1 0x20 ADD SWAP2 PUSH2 0x669 JUMP JUMPDEST PUSH1 0x0 PUSH2 0x720 DUP3 PUSH2 0x1557 JUMP JUMPDEST PUSH1 0x0 CALLER PUSH2 0xAED DUP2 PUSH2 0xEAA JUMP JUMPDEST PUSH1 0x1 PUSH1 0x1 PUSH1 0xA0 SHL SUB DUP2 AND PUSH1 0x0 SWAP1 DUP2 MSTORE PUSH1 0xD PUSH1 0x20 MSTORE PUSH1 0x40 SWAP1 KECCAK256 PUSH1 0x1 ADD SLOAD PUSH2 0xB18 SWAP1 DUP3 SWAP1 DUP2 SWAP1 DUP7 SWAP1 PUSH2 0x1267 JUMP JUMPDEST PUSH2 0x5A9 DUP4 PUSH2 0xEAA JUMP JUMPDEST PUSH1 0x0 CALLER PUSH2 0xB2D DUP2 PUSH2 0xEAA JUMP JUMPDEST PUSH2 0xB39 DUP2 DUP3 DUP7 DUP7 PUSH2 0x1267 JUMP JUMPDEST PUSH2 0x70A DUP5 PUSH2 0xEAA JUMP JUMPDEST PUSH1 0x1 SLOAD PUSH1 0x1 PUSH1 0x1 PUSH1 0xA0 SHL SUB AND DUP2 JUMP JUMPDEST PUSH1 0x0 DUP1 PUSH2 0xBC1 DUP7 DUP7 DUP1 DUP1 PUSH1 0x20 MUL PUSH1 0x20 ADD PUSH1 0x40 MLOAD SWAP1 DUP2 ADD PUSH1 0x40 MSTORE DUP1 SWAP4 SWAP3 SWAP2 SWAP1 DUP2 DUP2 MSTORE PUSH1 0x20 ADD DUP4 DUP4 PUSH1 0x20 MUL DUP1 DUP3 DUP5 CALLDATACOPY PUSH1 0x0 SWAP3 ADD SWAP2 SWAP1 SWAP2 MSTORE POP POP PUSH1 0x40 DUP1 MLOAD PUSH1 0x20 DUP1 DUP11 MUL DUP3 DUP2 ADD DUP3 ADD SWAP1 SWAP4 MSTORE DUP10 DUP3 MSTORE SWAP1 SWAP4 POP DUP10 SWAP3 POP DUP9 SWAP2 DUP3 SWAP2 DUP6 ADD SWAP1 DUP5 SWAP1 DUP1 DUP3 DUP5 CALLDATACOPY PUSH1 0x0 SWAP3 ADD SWAP2 SWAP1 SWAP2 MSTORE POP PUSH2 0x189E SWAP3 POP POP POP JUMP JUMPDEST SWAP1 POP PUSH2 0xBCD CALLER DUP3 PUSH2 0x14AA JUMP JUMPDEST PUSH2 0xBD6 DUP8 PUSH2 0x1557 JUMP JUMPDEST PUSH2 0xBDF CALLER PUSH2 0xEAA JUMP JUMPDEST POP PUSH1 0x1 SWAP7 SWAP6 POP POP POP POP POP POP JUMP JUMPDEST PUSH1 0x2 SLOAD DUP2 JUMP JUMPDEST PUSH1 0xA SLOAD DUP2 JUMP JUMPDEST PUSH1 0x0 PUSH2 0x729 DUP3 PUSH2 0xEAA JUMP JUMPDEST PUSH1 0x0 CALLER PUSH2 0xC0F DUP2 PUSH2 0xEAA JUMP JUMPDEST PUSH2 0x70A DUP5 DUP5 PUSH2 0xFD6 JUMP JUMPDEST PUSH1 0x40 DUP1 MLOAD PUSH1 0x2 DUP1 DUP3 MSTORE PUSH1 0x60 DUP1 DUP4 ADD DUP5 MSTORE PUSH1 0x0 SWAP4 SWAP1 SWAP3 SWAP2 SWAP1 PUSH1 0x20 DUP4 ADD SWAP1 DUP1 CODESIZE DUP4 CODECOPY ADD SWAP1 POP POP SWAP1 POP CALLER DUP2 PUSH1 0x0 DUP2 MLOAD DUP2 LT PUSH2 0xC4D JUMPI INVALID JUMPDEST PUSH1 0x20 MUL PUSH1 0x20 ADD ADD SWAP1 PUSH1 0x1 PUSH1 0x1 PUSH1 0xA0 SHL SUB AND SWAP1 DUP2 PUSH1 0x1 PUSH1 0x1 PUSH1 0xA0 SHL SUB AND DUP2 MSTORE POP POP PUSH20 0x97843608A00E2BBC75AB0C1911387E002565DEDE DUP2 PUSH1 0x1 DUP2 MLOAD DUP2 LT PUSH2 0xC8F JUMPI INVALID JUMPDEST PUSH1 0x1 PUSH1 0x1 PUSH1 0xA0 SHL SUB SWAP1 SWAP3 AND PUSH1 0x20 SWAP3 DUP4 MUL SWAP2 SWAP1 SWAP2 ADD SWAP1 SWAP2 ADD MSTORE PUSH1 0x40 DUP1 MLOAD PUSH1 0x2 DUP1 DUP3 MSTORE PUSH1 0x60 DUP3 DUP2 ADD SWAP1 SWAP4 MSTORE DUP2 PUSH1 0x20 ADD PUSH1 0x20 DUP3 MUL DUP1 CODESIZE DUP4 CODECOPY ADD SWAP1 POP POP SWAP1 POP DUP4 PUSH1 0x64 SUB DUP2 PUSH1 0x0 DUP2 MLOAD DUP2 LT PUSH2 0xCDB JUMPI INVALID JUMPDEST PUSH1 0x20 MUL PUSH1 0x20 ADD ADD SWAP1 PUSH4 0xFFFFFFFF AND SWAP1 DUP2 PUSH4 0xFFFFFFFF AND DUP2 MSTORE POP POP DUP4 DUP2 PUSH1 0x1 DUP2 MLOAD DUP2 LT PUSH2 0xD03 JUMPI INVALID JUMPDEST PUSH1 0x20 MUL PUSH1 0x20 ADD ADD SWAP1 PUSH4 0xFFFFFFFF AND SWAP1 DUP2 PUSH4 0xFFFFFFFF AND DUP2 MSTORE POP POP PUSH1 0x0 PUSH2 0xD29 DUP4 DUP4 PUSH2 0x189E JUMP JUMPDEST SWAP1 POP PUSH2 0xD35 CALLER DUP3 PUSH2 0x14AA JUMP JUMPDEST PUSH2 0xD3E DUP7 PUSH2 0x1557 JUMP JUMPDEST PUSH2 0xD47 CALLER PUSH2 0xEAA JUMP JUMPDEST POP PUSH1 0x1 SWAP6 SWAP5 POP POP POP POP POP JUMP JUMPDEST PUSH1 0x0 CALLER PUSH2 0xD5F DUP2 PUSH2 0xEAA JUMP JUMPDEST PUSH2 0x5A9 DUP2 DUP5 PUSH2 0xFD6 JUMP JUMPDEST PUSH1 0x1 PUSH1 0x1 PUSH1 0xA0 SHL SUB SWAP2 DUP3 AND PUSH1 0x0 SWAP1 DUP2 MSTORE PUSH1 0xB PUSH1 0x20 SWAP1 DUP2 MSTORE PUSH1 0x40 DUP1 DUP4 KECCAK256 SWAP4 SWAP1 SWAP5 AND DUP3 MSTORE SWAP2 SWAP1 SWAP2 MSTORE KECCAK256 SLOAD SWAP1 JUMP JUMPDEST PUSH1 0xF PUSH1 0x20 MSTORE PUSH1 0x0 SWAP1 DUP2 MSTORE PUSH1 0x40 SWAP1 KECCAK256 DUP1 SLOAD PUSH1 0x1 DUP3 ADD SLOAD PUSH1 0x2 SWAP1 SWAP3 ADD SLOAD SWAP1 SWAP2 SWAP1 DUP4 JUMP JUMPDEST PUSH2 0xDBD PUSH2 0x1894 JUMP JUMPDEST PUSH1 0x0 SLOAD PUSH1 0x1 PUSH1 0x1 PUSH1 0xA0 SHL SUB SWAP1 DUP2 AND SWAP2 AND EQ PUSH2 0xDEA JUMPI PUSH1 0x40 MLOAD PUSH3 0x461BCD PUSH1 0xE5 SHL DUP2 MSTORE PUSH1 0x4 ADD PUSH2 0x82F SWAP1 PUSH2 0x2E26 JUMP JUMPDEST PUSH1 0x1 PUSH1 0x1 PUSH1 0xA0 SHL SUB DUP2 AND PUSH2 0xE10 JUMPI PUSH1 0x40 MLOAD PUSH3 0x461BCD PUSH1 0xE5 SHL DUP2 MSTORE PUSH1 0x4 ADD PUSH2 0x82F SWAP1 PUSH2 0x2BAA JUMP JUMPDEST PUSH1 0x0 DUP1 SLOAD PUSH1 0x40 MLOAD PUSH1 0x1 PUSH1 0x1 PUSH1 0xA0 SHL SUB DUP1 DUP6 AND SWAP4 SWAP3 AND SWAP2 PUSH32 0x8BE0079C531659141344CD1FD0A4F28419497F9722A3DAAFE3B4186F6B6457E0 SWAP2 LOG3 PUSH1 0x0 DUP1 SLOAD PUSH1 0x1 PUSH1 0x1 PUSH1 0xA0 SHL SUB NOT AND PUSH1 0x1 PUSH1 0x1 PUSH1 0xA0 SHL SUB SWAP3 SWAP1 SWAP3 AND SWAP2 SWAP1 SWAP2 OR SWAP1 SSTORE JUMP JUMPDEST PUSH1 0x8 SLOAD PUSH1 0x1 PUSH1 0x1 PUSH1 0xA0 SHL SUB AND DUP2 JUMP JUMPDEST PUSH1 0x1 PUSH1 0x1 PUSH1 0xA0 SHL SUB DUP2 AND PUSH1 0x0 SWAP1 DUP2 MSTORE PUSH1 0xD PUSH1 0x20 MSTORE PUSH1 0x40 DUP2 KECCAK256 PUSH1 0x5 DUP2 ADD SLOAD DUP3 SWAP1 PUSH2 0xEA2 SWAP1 PUSH2 0x1AFD JUMP JUMPDEST SWAP5 SWAP4 POP POP POP POP JUMP JUMPDEST PUSH1 0x1 PUSH1 0x1 PUSH1 0xA0 SHL SUB DUP1 DUP3 AND PUSH1 0x0 SWAP1 DUP2 MSTORE PUSH1 0xD PUSH1 0x20 SWAP1 DUP2 MSTORE PUSH1 0x40 DUP1 DUP4 KECCAK256 PUSH1 0xE DUP4 MSTORE DUP2 DUP5 KECCAK256 PUSH1 0x7 SLOAD DUP4 MLOAD PUSH4 0xA6AFED95 PUSH1 0xE0 SHL DUP2 MSTORE SWAP4 MLOAD SWAP3 SWAP7 SWAP2 SWAP6 SWAP2 AND SWAP4 PUSH4 0xA6AFED95 SWAP4 PUSH1 0x4 DUP1 DUP3 ADD SWAP5 SWAP3 SWAP4 SWAP2 DUP4 SWAP1 SUB ADD SWAP1 DUP3 SWAP1 DUP8 DUP1 EXTCODESIZE ISZERO DUP1 ISZERO PUSH2 0xF0A JUMPI PUSH1 0x0 DUP1 REVERT JUMPDEST POP GAS CALL ISZERO DUP1 ISZERO PUSH2 0xF1E JUMPI RETURNDATASIZE PUSH1 0x0 DUP1 RETURNDATACOPY RETURNDATASIZE PUSH1 0x0 REVERT JUMPDEST POP POP POP POP PUSH1 0x40 MLOAD RETURNDATASIZE PUSH1 0x1F NOT PUSH1 0x1F DUP3 ADD AND DUP3 ADD DUP1 PUSH1 0x40 MSTORE POP PUSH2 0xF42 SWAP2 SWAP1 DUP2 ADD SWAP1 PUSH2 0x2882 JUMP JUMPDEST PUSH2 0xF5E JUMPI PUSH1 0x40 MLOAD PUSH3 0x461BCD PUSH1 0xE5 SHL DUP2 MSTORE PUSH1 0x4 ADD PUSH2 0x82F SWAP1 PUSH2 0x2B3A JUMP JUMPDEST PUSH1 0x0 PUSH2 0xF69 DUP4 PUSH2 0x1AB1 JUMP JUMPDEST SWAP1 POP DUP1 ISZERO PUSH2 0xFD0 JUMPI DUP2 SLOAD PUSH2 0xF83 SWAP1 DUP3 PUSH4 0xFFFFFFFF PUSH2 0x1BA7 AND JUMP JUMPDEST DUP3 SSTORE PUSH1 0x2 DUP4 ADD SLOAD PUSH2 0xF9A SWAP1 DUP3 PUSH4 0xFFFFFFFF PUSH2 0x1BA7 AND JUMP JUMPDEST PUSH1 0x2 DUP5 ADD SSTORE PUSH1 0x1 DUP4 ADD SLOAD PUSH2 0xFB4 SWAP1 DUP3 PUSH4 0xFFFFFFFF PUSH2 0x1BA7 AND JUMP JUMPDEST PUSH1 0x1 DUP5 ADD SSTORE PUSH1 0x6 SLOAD PUSH2 0xFCC SWAP1 DUP3 PUSH4 0xFFFFFFFF PUSH2 0x1BA7 AND JUMP JUMPDEST PUSH1 0x6 SSTORE JUMPDEST POP POP POP POP JUMP JUMPDEST CALLER PUSH1 0x0 SWAP1 DUP2 MSTORE PUSH1 0xD PUSH1 0x20 MSTORE PUSH1 0x40 SWAP1 KECCAK256 DUP2 PUSH2 0x1002 JUMPI PUSH1 0x40 MLOAD PUSH3 0x461BCD PUSH1 0xE5 SHL DUP2 MSTORE PUSH1 0x4 ADD PUSH2 0x82F SWAP1 PUSH2 0x2E92 JUMP JUMPDEST DUP1 PUSH1 0x1 ADD SLOAD DUP3 GT ISZERO PUSH2 0x1026 JUMPI PUSH1 0x40 MLOAD PUSH3 0x461BCD PUSH1 0xE5 SHL DUP2 MSTORE PUSH1 0x4 ADD PUSH2 0x82F SWAP1 PUSH2 0x2D7F JUMP JUMPDEST PUSH2 0x1030 CALLER DUP4 PUSH2 0x1BCC JUMP JUMPDEST PUSH1 0x1 DUP2 ADD SLOAD PUSH2 0x1045 SWAP1 DUP4 PUSH4 0xFFFFFFFF PUSH2 0x1C87 AND JUMP JUMPDEST PUSH1 0x1 DUP3 ADD SSTORE PUSH1 0x6 SLOAD PUSH2 0x105D SWAP1 DUP4 PUSH4 0xFFFFFFFF PUSH2 0x1C87 AND JUMP JUMPDEST PUSH1 0x6 SSTORE PUSH1 0x8 SLOAD PUSH1 0x40 MLOAD PUSH4 0xA9059CBB PUSH1 0xE0 SHL DUP2 MSTORE PUSH1 0x1 PUSH1 0x1 PUSH1 0xA0 SHL SUB SWAP1 SWAP2 AND SWAP1 PUSH4 0xA9059CBB SWAP1 PUSH2 0x1092 SWAP1 DUP7 SWAP1 DUP7 SWAP1 PUSH1 0x4 ADD PUSH2 0x2AB5 JUMP JUMPDEST PUSH1 0x20 PUSH1 0x40 MLOAD DUP1 DUP4 SUB DUP2 PUSH1 0x0 DUP8 DUP1 EXTCODESIZE ISZERO DUP1 ISZERO PUSH2 0x10AC JUMPI PUSH1 0x0 DUP1 REVERT JUMPDEST POP GAS CALL ISZERO DUP1 ISZERO PUSH2 0x10C0 JUMPI RETURNDATASIZE PUSH1 0x0 DUP1 RETURNDATACOPY RETURNDATASIZE PUSH1 0x0 REVERT JUMPDEST POP POP POP POP PUSH1 0x40 MLOAD RETURNDATASIZE PUSH1 0x1F NOT PUSH1 0x1F DUP3 ADD AND DUP3 ADD DUP1 PUSH1 0x40 MSTORE POP PUSH2 0x10E4 SWAP2 SWAP1 DUP2 ADD SWAP1 PUSH2 0x2882 JUMP JUMPDEST PUSH2 0x1100 JUMPI PUSH1 0x40 MLOAD PUSH3 0x461BCD PUSH1 0xE5 SHL DUP2 MSTORE PUSH1 0x4 ADD PUSH2 0x82F SWAP1 PUSH2 0x2DB6 JUMP JUMPDEST POP POP POP JUMP JUMPDEST PUSH1 0x60 DUP1 DUP3 ISZERO DUP1 ISZERO SWAP1 PUSH2 0x1119 JUMPI POP PUSH1 0x0 NOT DUP4 EQ ISZERO JUMPDEST ISZERO PUSH2 0x1248 JUMPI PUSH2 0x1126 PUSH2 0x2579 JUMP JUMPDEST PUSH1 0xC DUP5 DUP2 SLOAD DUP2 LT PUSH2 0x1133 JUMPI INVALID JUMPDEST SWAP1 PUSH1 0x0 MSTORE PUSH1 0x20 PUSH1 0x0 KECCAK256 SWAP1 PUSH1 0x2 MUL ADD PUSH1 0x40 MLOAD DUP1 PUSH1 0x40 ADD PUSH1 0x40 MSTORE SWAP1 DUP2 PUSH1 0x0 DUP3 ADD DUP1 SLOAD DUP1 PUSH1 0x20 MUL PUSH1 0x20 ADD PUSH1 0x40 MLOAD SWAP1 DUP2 ADD PUSH1 0x40 MSTORE DUP1 SWAP3 SWAP2 SWAP1 DUP2 DUP2 MSTORE PUSH1 0x20 ADD DUP3 DUP1 SLOAD DUP1 ISZERO PUSH2 0x11A5 JUMPI PUSH1 0x20 MUL DUP3 ADD SWAP2 SWAP1 PUSH1 0x0 MSTORE PUSH1 0x20 PUSH1 0x0 KECCAK256 SWAP1 JUMPDEST DUP2 SLOAD PUSH1 0x1 PUSH1 0x1 PUSH1 0xA0 SHL SUB AND DUP2 MSTORE PUSH1 0x1 SWAP1 SWAP2 ADD SWAP1 PUSH1 0x20 ADD DUP1 DUP4 GT PUSH2 0x1187 JUMPI JUMPDEST POP POP POP POP POP DUP2 MSTORE PUSH1 0x20 ADD PUSH1 0x1 DUP3 ADD DUP1 SLOAD DUP1 PUSH1 0x20 MUL PUSH1 0x20 ADD PUSH1 0x40 MLOAD SWAP1 DUP2 ADD PUSH1 0x40 MSTORE DUP1 SWAP3 SWAP2 SWAP1 DUP2 DUP2 MSTORE PUSH1 0x20 ADD DUP3 DUP1 SLOAD DUP1 ISZERO PUSH2 0x1229 JUMPI PUSH1 0x20 MUL DUP3 ADD SWAP2 SWAP1 PUSH1 0x0 MSTORE PUSH1 0x20 PUSH1 0x0 KECCAK256 SWAP1 PUSH1 0x0 SWAP1 JUMPDEST DUP3 DUP3 SWAP1 SLOAD SWAP1 PUSH2 0x100 EXP SWAP1 DIV PUSH4 0xFFFFFFFF AND PUSH4 0xFFFFFFFF AND DUP2 MSTORE PUSH1 0x20 ADD SWAP1 PUSH1 0x4 ADD SWAP1 PUSH1 0x20 DUP3 PUSH1 0x3 ADD DIV SWAP3 DUP4 ADD SWAP3 PUSH1 0x1 SUB DUP3 MUL SWAP2 POP DUP1 DUP5 GT PUSH2 0x11EC JUMPI SWAP1 POP JUMPDEST POP POP POP POP POP DUP2 MSTORE POP POP SWAP1 POP DUP1 PUSH1 0x0 ADD MLOAD SWAP3 POP DUP1 PUSH1 0x20 ADD MLOAD SWAP2 POP POP PUSH2 0x1262 JUMP JUMPDEST POP POP PUSH1 0x40 DUP1 MLOAD PUSH1 0x0 DUP1 DUP3 MSTORE PUSH1 0x20 DUP3 ADD SWAP1 DUP2 MSTORE DUP2 DUP4 ADD SWAP1 SWAP3 MSTORE SWAP1 JUMPDEST SWAP2 POP SWAP2 JUMP JUMPDEST DUP2 PUSH1 0x1 PUSH1 0x1 PUSH1 0xA0 SHL SUB AND DUP4 PUSH1 0x1 PUSH1 0x1 PUSH1 0xA0 SHL SUB AND EQ ISZERO PUSH2 0x1299 JUMPI PUSH1 0x40 MLOAD PUSH3 0x461BCD PUSH1 0xE5 SHL DUP2 MSTORE PUSH1 0x4 ADD PUSH2 0x82F SWAP1 PUSH2 0x2D48 JUMP JUMPDEST PUSH1 0x1 PUSH1 0x1 PUSH1 0xA0 SHL SUB DUP4 AND PUSH1 0x0 SWAP1 DUP2 MSTORE PUSH1 0xD PUSH1 0x20 MSTORE PUSH1 0x40 SWAP1 KECCAK256 PUSH1 0x1 ADD SLOAD DUP2 GT ISZERO PUSH2 0x12D4 JUMPI PUSH1 0x40 MLOAD PUSH3 0x461BCD PUSH1 0xE5 SHL DUP2 MSTORE PUSH1 0x4 ADD PUSH2 0x82F SWAP1 PUSH2 0x2E5B JUMP JUMPDEST PUSH1 0x0 PUSH1 0x1 PUSH1 0x1 PUSH1 0xA0 SHL SUB DUP6 DUP2 AND SWAP1 DUP6 AND EQ ISZERO PUSH2 0x12F3 JUMPI POP PUSH1 0x0 NOT PUSH2 0x131B JUMP JUMPDEST POP PUSH1 0x1 PUSH1 0x1 PUSH1 0xA0 SHL SUB DUP1 DUP5 AND PUSH1 0x0 SWAP1 DUP2 MSTORE PUSH1 0xB PUSH1 0x20 SWAP1 DUP2 MSTORE PUSH1 0x40 DUP1 DUP4 KECCAK256 SWAP4 DUP9 AND DUP4 MSTORE SWAP3 SWAP1 MSTORE KECCAK256 SLOAD JUMPDEST DUP2 DUP2 LT ISZERO PUSH2 0x133B JUMPI PUSH1 0x40 MLOAD PUSH3 0x461BCD PUSH1 0xE5 SHL DUP2 MSTORE PUSH1 0x4 ADD PUSH2 0x82F SWAP1 PUSH2 0x2B69 JUMP JUMPDEST PUSH1 0x0 PUSH2 0x134D DUP3 DUP5 PUSH4 0xFFFFFFFF PUSH2 0x1C87 AND JUMP JUMPDEST PUSH1 0x1 PUSH1 0x1 PUSH1 0xA0 SHL SUB DUP7 AND PUSH1 0x0 SWAP1 DUP2 MSTORE PUSH1 0xD PUSH1 0x20 MSTORE PUSH1 0x40 DUP2 KECCAK256 PUSH1 0x1 ADD SLOAD SWAP2 SWAP3 POP SWAP1 PUSH2 0x137D SWAP1 DUP6 PUSH4 0xFFFFFFFF PUSH2 0x1C87 AND JUMP JUMPDEST PUSH1 0x1 PUSH1 0x1 PUSH1 0xA0 SHL SUB DUP7 AND PUSH1 0x0 SWAP1 DUP2 MSTORE PUSH1 0xD PUSH1 0x20 MSTORE PUSH1 0x40 DUP2 KECCAK256 PUSH1 0x1 ADD SLOAD SWAP2 SWAP3 POP SWAP1 PUSH2 0x13AD SWAP1 DUP7 PUSH4 0xFFFFFFFF PUSH2 0x1BA7 AND JUMP JUMPDEST SWAP1 POP PUSH1 0x0 NOT DUP5 EQ PUSH2 0x13E1 JUMPI PUSH1 0x1 PUSH1 0x1 PUSH1 0xA0 SHL SUB DUP1 DUP9 AND PUSH1 0x0 SWAP1 DUP2 MSTORE PUSH1 0xB PUSH1 0x20 SWAP1 DUP2 MSTORE PUSH1 0x40 DUP1 DUP4 KECCAK256 SWAP4 DUP13 AND DUP4 MSTORE SWAP3 SWAP1 MSTORE KECCAK256 DUP4 SWAP1 SSTORE JUMPDEST PUSH1 0x0 PUSH2 0x13ED DUP9 DUP8 PUSH2 0x1CC9 JUMP JUMPDEST SWAP1 POP PUSH2 0x13FA DUP8 DUP8 DUP4 PUSH2 0x1D78 JUMP JUMPDEST PUSH1 0x1 PUSH1 0x1 PUSH1 0xA0 SHL SUB DUP1 DUP10 AND PUSH1 0x0 DUP2 DUP2 MSTORE PUSH1 0xD PUSH1 0x20 MSTORE PUSH1 0x40 DUP1 DUP3 KECCAK256 PUSH1 0x1 DUP1 DUP3 ADD DUP10 SWAP1 SSTORE SWAP5 DUP13 AND DUP4 MSTORE SWAP1 DUP3 KECCAK256 SWAP1 SWAP4 ADD DUP6 SWAP1 SSTORE MSTORE SLOAD ISZERO DUP1 ISZERO SWAP1 PUSH2 0x1450 JUMPI POP PUSH1 0x1 PUSH1 0x1 PUSH1 0xA0 SHL SUB DUP8 AND PUSH1 0x0 SWAP1 DUP2 MSTORE PUSH1 0xD PUSH1 0x20 MSTORE PUSH1 0x40 SWAP1 KECCAK256 SLOAD ISZERO JUMPDEST DUP1 ISZERO PUSH2 0x1476 JUMPI POP PUSH1 0x1 PUSH1 0x1 PUSH1 0xA0 SHL SUB DUP9 AND PUSH1 0x0 SWAP1 DUP2 MSTORE PUSH1 0xD PUSH1 0x20 MSTORE PUSH1 0x40 SWAP1 KECCAK256 SLOAD PUSH1 0x0 NOT EQ ISZERO JUMPDEST ISZERO PUSH2 0x149F JUMPI PUSH1 0x1 PUSH1 0x1 PUSH1 0xA0 SHL SUB DUP9 AND PUSH1 0x0 SWAP1 DUP2 MSTORE PUSH1 0xD PUSH1 0x20 MSTORE PUSH1 0x40 SWAP1 KECCAK256 SLOAD PUSH2 0x149F SWAP1 DUP9 SWAP1 PUSH2 0x14AA JUMP JUMPDEST POP POP POP POP POP POP POP POP POP JUMP JUMPDEST PUSH1 0x0 NOT DUP2 EQ DUP1 PUSH2 0x14BB JUMPI POP PUSH1 0xC SLOAD DUP2 LT JUMPDEST PUSH2 0x14D7 JUMPI PUSH1 0x40 MLOAD PUSH3 0x461BCD PUSH1 0xE5 SHL DUP2 MSTORE PUSH1 0x4 ADD PUSH2 0x82F SWAP1 PUSH2 0x2C25 JUMP JUMPDEST PUSH1 0x1 PUSH1 0x1 PUSH1 0xA0 SHL SUB DUP3 AND PUSH1 0x0 SWAP1 DUP2 MSTORE PUSH1 0xD PUSH1 0x20 SWAP1 DUP2 MSTORE PUSH1 0x40 DUP1 DUP4 KECCAK256 DUP1 SLOAD DUP1 DUP6 MSTORE PUSH1 0xF SWAP1 SWAP4 MSTORE DUP2 DUP5 KECCAK256 DUP6 DUP6 MSTORE SWAP2 SWAP1 SWAP4 KECCAK256 PUSH1 0x1 DUP5 ADD SLOAD ISZERO PUSH2 0x153D JUMPI PUSH1 0x0 PUSH2 0x1520 DUP8 DUP7 PUSH1 0x1 ADD SLOAD PUSH2 0x1CC9 JUMP JUMPDEST DUP7 DUP7 SSTORE PUSH1 0x1 DUP7 ADD SLOAD SWAP1 SWAP2 POP PUSH2 0x1537 SWAP1 DUP9 SWAP1 DUP4 PUSH2 0x1D78 JUMP JUMPDEST POP PUSH2 0x1541 JUMP JUMPDEST DUP5 DUP5 SSTORE JUMPDEST DUP2 SLOAD PUSH1 0x0 NOT ADD SWAP1 SWAP2 SSTORE DUP1 SLOAD PUSH1 0x1 ADD SWAP1 SSTORE POP POP POP POP JUMP JUMPDEST PUSH1 0x1 SLOAD PUSH1 0x1 PUSH1 0x1 PUSH1 0xA0 SHL SUB AND PUSH1 0x0 DUP2 DUP2 MSTORE PUSH1 0xB PUSH1 0x20 SWAP1 DUP2 MSTORE PUSH1 0x40 DUP1 DUP4 KECCAK256 CALLER DUP1 DUP6 MSTORE SWAP3 MSTORE SWAP2 DUP3 SWAP1 KECCAK256 SLOAD SWAP2 MLOAD PUSH32 0xDCD34B0CF3B7B5C0CA77B489F4F99D8FE4DAA24477F7A12FB6BC8E4B8D4291CC SWAP4 PUSH2 0x15B1 SWAP4 SWAP1 SWAP3 SWAP2 DUP7 SWAP1 PUSH2 0x2ACE JUMP JUMPDEST PUSH1 0x40 MLOAD DUP1 SWAP2 SUB SWAP1 LOG1 PUSH1 0x8 SLOAD PUSH1 0x40 MLOAD PUSH4 0x6EB1769F PUSH1 0xE1 SHL DUP2 MSTORE DUP3 SWAP2 PUSH1 0x1 PUSH1 0x1 PUSH1 0xA0 SHL SUB AND SWAP1 PUSH4 0xDD62ED3E SWAP1 PUSH2 0x15EB SWAP1 CALLER SWAP1 ADDRESS SWAP1 PUSH1 0x4 ADD PUSH2 0x2A77 JUMP JUMPDEST PUSH1 0x20 PUSH1 0x40 MLOAD DUP1 DUP4 SUB DUP2 DUP7 DUP1 EXTCODESIZE ISZERO DUP1 ISZERO PUSH2 0x1603 JUMPI PUSH1 0x0 DUP1 REVERT JUMPDEST POP GAS STATICCALL ISZERO DUP1 ISZERO PUSH2 0x1617 JUMPI RETURNDATASIZE PUSH1 0x0 DUP1 RETURNDATACOPY RETURNDATASIZE PUSH1 0x0 REVERT JUMPDEST POP POP POP POP PUSH1 0x40 MLOAD RETURNDATASIZE PUSH1 0x1F NOT PUSH1 0x1F DUP3 ADD AND DUP3 ADD DUP1 PUSH1 0x40 MSTORE POP PUSH2 0x163B SWAP2 SWAP1 DUP2 ADD SWAP1 PUSH2 0x28B6 JUMP JUMPDEST LT ISZERO PUSH2 0x1659 JUMPI PUSH1 0x40 MLOAD PUSH3 0x461BCD PUSH1 0xE5 SHL DUP2 MSTORE PUSH1 0x4 ADD PUSH2 0x82F SWAP1 PUSH2 0x2EC9 JUMP JUMPDEST CALLER PUSH1 0x0 DUP2 DUP2 MSTORE PUSH1 0xD PUSH1 0x20 MSTORE PUSH1 0x40 SWAP1 DUP2 SWAP1 KECCAK256 PUSH1 0x8 SLOAD SWAP2 MLOAD PUSH4 0x23B872DD PUSH1 0xE0 SHL DUP2 MSTORE SWAP1 SWAP3 PUSH1 0x1 PUSH1 0x1 PUSH1 0xA0 SHL SUB SWAP1 SWAP3 AND SWAP2 PUSH4 0x23B872DD SWAP2 PUSH2 0x169E SWAP2 SWAP1 ADDRESS SWAP1 DUP8 SWAP1 PUSH1 0x4 ADD PUSH2 0x2A91 JUMP JUMPDEST PUSH1 0x20 PUSH1 0x40 MLOAD DUP1 DUP4 SUB DUP2 PUSH1 0x0 DUP8 DUP1 EXTCODESIZE ISZERO DUP1 ISZERO PUSH2 0x16B8 JUMPI PUSH1 0x0 DUP1 REVERT JUMPDEST POP GAS CALL ISZERO DUP1 ISZERO PUSH2 0x16CC JUMPI RETURNDATASIZE PUSH1 0x0 DUP1 RETURNDATACOPY RETURNDATASIZE PUSH1 0x0 REVERT JUMPDEST POP POP POP POP PUSH1 0x40 MLOAD RETURNDATASIZE PUSH1 0x1F NOT PUSH1 0x1F DUP3 ADD AND DUP3 ADD DUP1 PUSH1 0x40 MSTORE POP PUSH2 0x16F0 SWAP2 SWAP1 DUP2 ADD SWAP1 PUSH2 0x2882 JUMP JUMPDEST PUSH2 0x170C JUMPI PUSH1 0x40 MLOAD PUSH3 0x461BCD PUSH1 0xE5 SHL DUP2 MSTORE PUSH1 0x4 ADD PUSH2 0x82F SWAP1 PUSH2 0x2DB6 JUMP JUMPDEST PUSH1 0x8 SLOAD PUSH1 0x7 SLOAD PUSH1 0x40 MLOAD PUSH4 0x95EA7B3 PUSH1 0xE0 SHL DUP2 MSTORE PUSH1 0x1 PUSH1 0x1 PUSH1 0xA0 SHL SUB SWAP3 DUP4 AND SWAP3 PUSH4 0x95EA7B3 SWAP3 PUSH2 0x1742 SWAP3 SWAP2 AND SWAP1 DUP7 SWAP1 PUSH1 0x4 ADD PUSH2 0x2AB5 JUMP JUMPDEST PUSH1 0x20 PUSH1 0x40 MLOAD DUP1 DUP4 SUB DUP2 PUSH1 0x0 DUP8 DUP1 EXTCODESIZE ISZERO DUP1 ISZERO PUSH2 0x175C JUMPI PUSH1 0x0 DUP1 REVERT JUMPDEST POP GAS CALL ISZERO DUP1 ISZERO PUSH2 0x1770 JUMPI RETURNDATASIZE PUSH1 0x0 DUP1 RETURNDATACOPY RETURNDATASIZE PUSH1 0x0 REVERT JUMPDEST POP POP POP POP PUSH1 0x40 MLOAD RETURNDATASIZE PUSH1 0x1F NOT PUSH1 0x1F DUP3 ADD AND DUP3 ADD DUP1 PUSH1 0x40 MSTORE POP PUSH2 0x1794 SWAP2 SWAP1 DUP2 ADD SWAP1 PUSH2 0x2882 JUMP JUMPDEST PUSH2 0x17B0 JUMPI PUSH1 0x40 MLOAD PUSH3 0x461BCD PUSH1 0xE5 SHL DUP2 MSTORE PUSH1 0x4 ADD PUSH2 0x82F SWAP1 PUSH2 0x2CCC JUMP JUMPDEST PUSH1 0x7 SLOAD PUSH1 0x40 MLOAD PUSH4 0x305DA4F PUSH1 0xE6 SHL DUP2 MSTORE PUSH1 0x0 SWAP2 PUSH1 0x1 PUSH1 0x1 PUSH1 0xA0 SHL SUB AND SWAP1 PUSH4 0xC17693C0 SWAP1 PUSH2 0x17E1 SWAP1 DUP7 SWAP1 PUSH1 0x4 ADD PUSH2 0x2FDB JUMP JUMPDEST PUSH1 0x20 PUSH1 0x40 MLOAD DUP1 DUP4 SUB DUP2 PUSH1 0x0 DUP8 DUP1 EXTCODESIZE ISZERO DUP1 ISZERO PUSH2 0x17FB JUMPI PUSH1 0x0 DUP1 REVERT JUMPDEST POP GAS CALL ISZERO DUP1 ISZERO PUSH2 0x180F JUMPI RETURNDATASIZE PUSH1 0x0 DUP1 RETURNDATACOPY RETURNDATASIZE PUSH1 0x0 REVERT JUMPDEST POP POP POP POP PUSH1 0x40 MLOAD RETURNDATASIZE PUSH1 0x1F NOT PUSH1 0x1F DUP3 ADD AND DUP3 ADD DUP1 PUSH1 0x40 MSTORE POP PUSH2 0x1833 SWAP2 SWAP1 DUP2 ADD SWAP1 PUSH2 0x28B6 JUMP JUMPDEST PUSH1 0x6 SLOAD SWAP1 SWAP2 POP PUSH2 0x1849 SWAP1 DUP5 PUSH4 0xFFFFFFFF PUSH2 0x1BA7 AND JUMP JUMPDEST PUSH1 0x6 SSTORE PUSH1 0x1 DUP3 ADD SLOAD PUSH2 0x1861 SWAP1 DUP5 PUSH4 0xFFFFFFFF PUSH2 0x1BA7 AND JUMP JUMPDEST PUSH1 0x1 DUP4 ADD SSTORE PUSH1 0x9 SLOAD PUSH2 0x1879 SWAP1 DUP3 PUSH4 0xFFFFFFFF PUSH2 0x1BA7 AND JUMP JUMPDEST PUSH1 0x9 SSTORE PUSH1 0x0 PUSH2 0x1887 DUP3 PUSH2 0x2020 JUMP JUMPDEST SWAP1 POP PUSH2 0xFD0 CALLER DUP6 DUP4 PUSH2 0x1D78 JUMP JUMPDEST CALLER SWAP1 JUMP JUMPDEST EXTCODESIZE ISZERO ISZERO SWAP1 JUMP JUMPDEST PUSH1 0x0 DUP1 PUSH1 0x0 DUP5 MLOAD GT PUSH2 0x18C2 JUMPI PUSH1 0x40 MLOAD PUSH3 0x461BCD PUSH1 0xE5 SHL DUP2 MSTORE PUSH1 0x4 ADD PUSH2 0x82F SWAP1 PUSH2 0x2F98 JUMP JUMPDEST PUSH1 0x32 DUP5 MLOAD GT ISZERO PUSH2 0x18E4 JUMPI PUSH1 0x40 MLOAD PUSH3 0x461BCD PUSH1 0xE5 SHL DUP2 MSTORE PUSH1 0x4 ADD PUSH2 0x82F SWAP1 PUSH2 0x2EF7 JUMP JUMPDEST DUP3 MLOAD DUP5 MLOAD EQ PUSH2 0x1905 JUMPI PUSH1 0x40 MLOAD PUSH3 0x461BCD PUSH1 0xE5 SHL DUP2 MSTORE PUSH1 0x4 ADD PUSH2 0x82F SWAP1 PUSH2 0x2BF0 JUMP JUMPDEST POP PUSH1 0x0 DUP1 JUMPDEST DUP5 MLOAD DUP3 LT ISZERO PUSH2 0x19BB JUMPI PUSH1 0x0 DUP5 DUP4 DUP2 MLOAD DUP2 LT PUSH2 0x1921 JUMPI INVALID JUMPDEST PUSH1 0x20 MUL PUSH1 0x20 ADD ADD MLOAD PUSH4 0xFFFFFFFF AND GT PUSH2 0x194C JUMPI PUSH1 0x40 MLOAD PUSH3 0x461BCD PUSH1 0xE5 SHL DUP2 MSTORE PUSH1 0x4 ADD PUSH2 0x82F SWAP1 PUSH2 0x2F49 JUMP JUMPDEST PUSH1 0x0 PUSH1 0x1 PUSH1 0x1 PUSH1 0xA0 SHL SUB AND DUP6 DUP4 DUP2 MLOAD DUP2 LT PUSH2 0x1963 JUMPI INVALID JUMPDEST PUSH1 0x20 MUL PUSH1 0x20 ADD ADD MLOAD PUSH1 0x1 PUSH1 0x1 PUSH1 0xA0 SHL SUB AND EQ ISZERO PUSH2 0x1992 JUMPI PUSH1 0x40 MLOAD PUSH3 0x461BCD PUSH1 0xE5 SHL DUP2 MSTORE PUSH1 0x4 ADD PUSH2 0x82F SWAP1 PUSH2 0x2C84 JUMP JUMPDEST DUP4 DUP3 DUP2 MLOAD DUP2 LT PUSH2 0x199E JUMPI INVALID JUMPDEST PUSH1 0x20 MUL PUSH1 0x20 ADD ADD MLOAD PUSH4 0xFFFFFFFF AND DUP2 ADD SWAP1 POP DUP2 PUSH1 0x1 ADD SWAP2 POP PUSH2 0x190A JUMP JUMPDEST PUSH1 0x0 SWAP2 POP JUMPDEST DUP4 MLOAD DUP3 LT ISZERO PUSH2 0x1A25 JUMPI DUP1 PUSH4 0xFFFFFFFF DUP1 AND DUP6 DUP5 DUP2 MLOAD DUP2 LT PUSH2 0x19DD JUMPI INVALID JUMPDEST PUSH1 0x20 MUL PUSH1 0x20 ADD ADD MLOAD PUSH4 0xFFFFFFFF AND MUL DUP2 PUSH2 0x19F3 JUMPI INVALID JUMPDEST DIV DUP5 DUP4 DUP2 MLOAD DUP2 LT PUSH2 0x1A00 JUMPI INVALID JUMPDEST PUSH1 0x20 MUL PUSH1 0x20 ADD ADD SWAP1 PUSH4 0xFFFFFFFF AND SWAP1 DUP2 PUSH4 0xFFFFFFFF AND DUP2 MSTORE POP POP DUP2 PUSH1 0x1 ADD SWAP2 POP PUSH2 0x19C0 JUMP JUMPDEST PUSH1 0x40 DUP1 MLOAD DUP1 DUP3 ADD SWAP1 SWAP2 MSTORE DUP6 DUP2 MSTORE PUSH1 0x20 DUP1 DUP3 ADD DUP7 SWAP1 MSTORE PUSH1 0xC DUP1 SLOAD PUSH1 0x1 DUP2 ADD DUP3 SSTORE PUSH1 0x0 SWAP2 SWAP1 SWAP2 MSTORE DUP3 MLOAD DUP1 MLOAD PUSH1 0x2 SWAP1 SWAP3 MUL PUSH32 0xDF6966C971051C3D54EC59162606531493A51404A002842F56009D7E5CF4A8C7 ADD SWAP3 PUSH2 0x1A85 SWAP3 DUP5 SWAP3 SWAP1 SWAP2 ADD SWAP1 PUSH2 0x2593 JUMP JUMPDEST POP PUSH1 0x20 DUP3 DUP2 ADD MLOAD DUP1 MLOAD PUSH2 0x1A9E SWAP3 PUSH1 0x1 DUP6 ADD SWAP3 ADD SWAP1 PUSH2 0x25F8 JUMP JUMPDEST POP POP PUSH1 0xC SLOAD PUSH1 0x0 NOT ADD SWAP7 SWAP6 POP POP POP POP POP POP JUMP JUMPDEST PUSH1 0x0 DUP1 PUSH2 0x1AC1 DUP4 PUSH1 0x5 ADD SLOAD PUSH2 0x1AFD JUMP JUMPDEST SWAP1 POP PUSH2 0x1ADE DUP4 PUSH1 0x2 ADD SLOAD DUP5 PUSH1 0x4 ADD SLOAD PUSH2 0x1BA7 SWAP1 SWAP2 SWAP1 PUSH4 0xFFFFFFFF AND JUMP JUMPDEST DUP2 GT ISZERO PUSH2 0x1AF3 JUMPI PUSH1 0x4 DUP4 ADD SLOAD SWAP1 SUB SWAP1 POP PUSH2 0x5AF JUMP JUMPDEST PUSH1 0x0 SWAP2 POP POP PUSH2 0x5AF JUMP JUMPDEST PUSH1 0x0 PUSH2 0x69A PUSH1 0xA SLOAD PUSH2 0x1B9B PUSH1 0x7 PUSH1 0x0 SWAP1 SLOAD SWAP1 PUSH2 0x100 EXP SWAP1 DIV PUSH1 0x1 PUSH1 0x1 PUSH1 0xA0 SHL SUB AND PUSH1 0x1 PUSH1 0x1 PUSH1 0xA0 SHL SUB AND PUSH4 0x182DF0F5 PUSH1 0x40 MLOAD DUP2 PUSH4 0xFFFFFFFF AND PUSH1 0xE0 SHL DUP2 MSTORE PUSH1 0x4 ADD PUSH1 0x20 PUSH1 0x40 MLOAD DUP1 DUP4 SUB DUP2 DUP7 DUP1 EXTCODESIZE ISZERO DUP1 ISZERO PUSH2 0x1B56 JUMPI PUSH1 0x0 DUP1 REVERT JUMPDEST POP GAS STATICCALL ISZERO DUP1 ISZERO PUSH2 0x1B6A JUMPI RETURNDATASIZE PUSH1 0x0 DUP1 RETURNDATACOPY RETURNDATASIZE PUSH1 0x0 REVERT JUMPDEST POP POP POP POP PUSH1 0x40 MLOAD RETURNDATASIZE PUSH1 0x1F NOT PUSH1 0x1F DUP3 ADD AND DUP3 ADD DUP1 PUSH1 0x40 MSTORE POP PUSH2 0x1B8E SWAP2 SWAP1 DUP2 ADD SWAP1 PUSH2 0x28B6 JUMP JUMPDEST DUP6 SWAP1 PUSH4 0xFFFFFFFF PUSH2 0x2043 AND JUMP JUMPDEST SWAP1 PUSH4 0xFFFFFFFF PUSH2 0x207D AND JUMP JUMPDEST PUSH1 0x0 DUP3 DUP3 ADD DUP4 DUP2 LT ISZERO PUSH2 0xA26 JUMPI PUSH1 0x40 MLOAD PUSH3 0x461BCD PUSH1 0xE5 SHL DUP2 MSTORE PUSH1 0x4 ADD PUSH2 0x82F SWAP1 PUSH2 0x2C4D JUMP JUMPDEST PUSH1 0x7 SLOAD PUSH1 0x40 MLOAD PUSH4 0x852A12E3 PUSH1 0xE0 SHL DUP2 MSTORE PUSH1 0x0 SWAP2 PUSH1 0x1 PUSH1 0x1 PUSH1 0xA0 SHL SUB AND SWAP1 PUSH4 0x852A12E3 SWAP1 PUSH2 0x1BFD SWAP1 DUP6 SWAP1 PUSH1 0x4 ADD PUSH2 0x2FDB JUMP JUMPDEST PUSH1 0x20 PUSH1 0x40 MLOAD DUP1 DUP4 SUB DUP2 PUSH1 0x0 DUP8 DUP1 EXTCODESIZE ISZERO DUP1 ISZERO PUSH2 0x1C17 JUMPI PUSH1 0x0 DUP1 REVERT JUMPDEST POP GAS CALL ISZERO DUP1 ISZERO PUSH2 0x1C2B JUMPI RETURNDATASIZE PUSH1 0x0 DUP1 RETURNDATACOPY RETURNDATASIZE PUSH1 0x0 REVERT JUMPDEST POP POP POP POP PUSH1 0x40 MLOAD RETURNDATASIZE PUSH1 0x1F NOT PUSH1 0x1F DUP3 ADD AND DUP3 ADD DUP1 PUSH1 0x40 MSTORE POP PUSH2 0x1C4F SWAP2 SWAP1 DUP2 ADD SWAP1 PUSH2 0x28B6 JUMP JUMPDEST SWAP1 POP PUSH2 0x1C5A DUP2 PUSH2 0x2020 JUMP JUMPDEST POP PUSH2 0x1C65 DUP4 DUP4 PUSH2 0x20BF JUMP JUMPDEST DUP1 PUSH1 0x9 SLOAD GT ISZERO PUSH2 0x1C7D JUMPI PUSH1 0x9 DUP1 SLOAD DUP3 SWAP1 SUB SWAP1 SSTORE PUSH2 0x1100 JUMP JUMPDEST PUSH1 0x0 PUSH1 0x9 SSTORE POP POP POP JUMP JUMPDEST PUSH1 0x0 PUSH2 0xA26 DUP4 DUP4 PUSH1 0x40 MLOAD DUP1 PUSH1 0x40 ADD PUSH1 0x40 MSTORE DUP1 PUSH1 0x1E DUP2 MSTORE PUSH1 0x20 ADD PUSH32 0x536166654D6174683A207375627472616374696F6E206F766572666C6F770000 DUP2 MSTORE POP PUSH2 0x23AC JUMP JUMPDEST PUSH1 0x7 SLOAD PUSH1 0x40 DUP1 MLOAD PUSH4 0xA6AFED95 PUSH1 0xE0 SHL DUP2 MSTORE SWAP1 MLOAD PUSH1 0x0 SWAP3 PUSH1 0x1 PUSH1 0x1 PUSH1 0xA0 SHL SUB AND SWAP2 PUSH4 0xA6AFED95 SWAP2 PUSH1 0x4 DUP1 DUP4 ADD SWAP3 PUSH1 0x20 SWAP3 SWAP2 SWAP1 DUP3 SWAP1 SUB ADD DUP2 DUP8 DUP8 DUP1 EXTCODESIZE ISZERO DUP1 ISZERO PUSH2 0x1D0F JUMPI PUSH1 0x0 DUP1 REVERT JUMPDEST POP GAS CALL ISZERO DUP1 ISZERO PUSH2 0x1D23 JUMPI RETURNDATASIZE PUSH1 0x0 DUP1 RETURNDATACOPY RETURNDATASIZE PUSH1 0x0 REVERT JUMPDEST POP POP POP POP PUSH1 0x40 MLOAD RETURNDATASIZE PUSH1 0x1F NOT PUSH1 0x1F DUP3 ADD AND DUP3 ADD DUP1 PUSH1 0x40 MSTORE POP PUSH2 0x1D47 SWAP2 SWAP1 DUP2 ADD SWAP1 PUSH2 0x2882 JUMP JUMPDEST PUSH2 0x1D63 JUMPI PUSH1 0x40 MLOAD PUSH3 0x461BCD PUSH1 0xE5 SHL DUP2 MSTORE PUSH1 0x4 ADD PUSH2 0x82F SWAP1 PUSH2 0x2B3A JUMP JUMPDEST PUSH2 0x1D6C DUP3 PUSH2 0x23D8 JUMP JUMPDEST SWAP1 POP PUSH2 0x69A DUP4 DUP4 PUSH2 0x20BF JUMP JUMPDEST PUSH1 0x1 PUSH1 0x1 PUSH1 0xA0 SHL SUB DUP4 AND PUSH1 0x0 SWAP1 DUP2 MSTORE PUSH1 0xD PUSH1 0x20 MSTORE PUSH1 0x40 DUP2 KECCAK256 DUP1 SLOAD SWAP1 SWAP2 SWAP1 PUSH1 0xC SWAP1 PUSH1 0x0 NOT EQ PUSH2 0x1DA7 JUMPI DUP3 SLOAD PUSH2 0x1DAA JUMP JUMPDEST PUSH1 0x0 JUMPDEST DUP2 SLOAD DUP2 LT PUSH2 0x1DB4 JUMPI INVALID JUMPDEST PUSH1 0x0 SWAP2 DUP3 MSTORE PUSH1 0x20 DUP3 KECCAK256 PUSH1 0x2 SWAP1 SWAP2 MUL ADD DUP1 SLOAD SWAP1 SWAP3 POP ISZERO PUSH2 0x1FD1 JUMPI POP PUSH1 0x0 DUP5 DUP5 JUMPDEST PUSH1 0x1 DUP5 ADD SLOAD DUP4 LT ISZERO PUSH2 0x1FCA JUMPI PUSH1 0x0 PUSH1 0xD PUSH1 0x0 DUP7 PUSH1 0x0 ADD DUP7 DUP2 SLOAD DUP2 LT PUSH2 0x1DF4 JUMPI INVALID JUMPDEST PUSH1 0x0 SWAP2 DUP3 MSTORE PUSH1 0x20 DUP1 DUP4 KECCAK256 SWAP1 SWAP2 ADD SLOAD PUSH1 0x1 PUSH1 0x1 PUSH1 0xA0 SHL SUB AND DUP4 MSTORE DUP3 ADD SWAP3 SWAP1 SWAP3 MSTORE PUSH1 0x40 ADD DUP2 KECCAK256 PUSH1 0x1 DUP8 ADD SLOAD SWAP1 SWAP3 POP PUSH1 0x0 NOT ADD DUP6 EQ SWAP1 DUP2 PUSH2 0x1E7F JUMPI PUSH4 0xFFFFFFFF DUP1 AND PUSH2 0x1E72 DUP9 PUSH1 0x1 ADD DUP9 DUP2 SLOAD DUP2 LT PUSH2 0x1E45 JUMPI INVALID JUMPDEST PUSH1 0x0 SWAP2 DUP3 MSTORE PUSH1 0x20 SWAP1 SWAP2 KECCAK256 PUSH1 0x8 DUP3 DIV ADD SLOAD DUP14 SWAP2 PUSH1 0x7 AND PUSH1 0x4 MUL PUSH2 0x100 EXP SWAP1 DIV PUSH4 0xFFFFFFFF SWAP1 DUP2 AND SWAP1 PUSH2 0x2043 AND JUMP JUMPDEST DUP2 PUSH2 0x1E79 JUMPI INVALID JUMPDEST DIV PUSH2 0x1E81 JUMP JUMPDEST DUP5 JUMPDEST SWAP1 POP PUSH2 0x1ECD DUP2 DUP10 PUSH1 0x3 ADD PUSH1 0x0 DUP11 PUSH1 0x0 ADD DUP11 DUP2 SLOAD DUP2 LT PUSH2 0x1E9C JUMPI INVALID JUMPDEST PUSH1 0x0 SWAP2 DUP3 MSTORE PUSH1 0x20 DUP1 DUP4 KECCAK256 SWAP1 SWAP2 ADD SLOAD PUSH1 0x1 PUSH1 0x1 PUSH1 0xA0 SHL SUB AND DUP4 MSTORE DUP3 ADD SWAP3 SWAP1 SWAP3 MSTORE PUSH1 0x40 ADD SWAP1 KECCAK256 SLOAD SWAP1 PUSH4 0xFFFFFFFF PUSH2 0x1BA7 AND JUMP JUMPDEST DUP9 PUSH1 0x3 ADD PUSH1 0x0 DUP10 PUSH1 0x0 ADD DUP10 DUP2 SLOAD DUP2 LT PUSH2 0x1EE2 JUMPI INVALID JUMPDEST PUSH1 0x0 SWAP2 DUP3 MSTORE PUSH1 0x20 DUP1 DUP4 KECCAK256 SWAP1 SWAP2 ADD SLOAD PUSH1 0x1 PUSH1 0x1 PUSH1 0xA0 SHL SUB AND DUP4 MSTORE DUP3 ADD SWAP3 SWAP1 SWAP3 MSTORE PUSH1 0x40 ADD SWAP1 KECCAK256 SSTORE PUSH1 0x4 DUP4 ADD SLOAD PUSH2 0x1F1C SWAP1 DUP3 PUSH4 0xFFFFFFFF PUSH2 0x1BA7 AND JUMP JUMPDEST PUSH1 0x4 DUP5 ADD SSTORE PUSH2 0x1F2B DUP6 DUP3 PUSH2 0x2477 JUMP JUMPDEST SWAP5 POP PUSH1 0x0 DUP3 PUSH2 0x1F5A JUMPI PUSH4 0xFFFFFFFF DUP1 AND PUSH2 0x1F4D DUP10 PUSH1 0x1 ADD DUP10 DUP2 SLOAD DUP2 LT PUSH2 0x1E45 JUMPI INVALID JUMPDEST DUP2 PUSH2 0x1F54 JUMPI INVALID JUMPDEST DIV PUSH2 0x1F5C JUMP JUMPDEST DUP5 JUMPDEST PUSH1 0x5 DUP6 ADD SLOAD SWAP1 SWAP2 POP PUSH2 0x1F74 SWAP1 DUP3 PUSH4 0xFFFFFFFF PUSH2 0x1BA7 AND JUMP JUMPDEST PUSH1 0x5 DUP6 ADD SSTORE PUSH2 0x1F83 DUP6 DUP3 PUSH2 0x2477 JUMP JUMPDEST SWAP5 POP PUSH2 0x1FBB DUP13 DUP10 PUSH1 0x0 ADD DUP10 DUP2 SLOAD DUP2 LT PUSH2 0x1F98 JUMPI INVALID JUMPDEST PUSH1 0x0 SWAP2 DUP3 MSTORE PUSH1 0x20 SWAP1 SWAP2 KECCAK256 ADD SLOAD DUP12 SLOAD PUSH1 0x1 PUSH1 0x1 PUSH1 0xA0 SHL SUB SWAP1 SWAP2 AND SWAP1 PUSH1 0x1 DUP7 DUP7 PUSH2 0x2492 JUMP JUMPDEST POP POP POP POP DUP3 PUSH1 0x1 ADD SWAP3 POP PUSH2 0x1DD3 JUMP JUMPDEST POP POP PUSH2 0x2018 JUMP JUMPDEST PUSH1 0x4 DUP4 ADD SLOAD PUSH2 0x1FE6 SWAP1 DUP7 PUSH4 0xFFFFFFFF PUSH2 0x1BA7 AND JUMP JUMPDEST PUSH1 0x4 DUP5 ADD SSTORE PUSH1 0x5 DUP4 ADD SLOAD PUSH2 0x2000 SWAP1 DUP6 PUSH4 0xFFFFFFFF PUSH2 0x1BA7 AND JUMP JUMPDEST PUSH1 0x5 DUP5 ADD SSTORE DUP3 SLOAD PUSH2 0x2018 SWAP1 DUP8 SWAP1 DUP2 SWAP1 PUSH1 0x1 DUP10 DUP10 PUSH2 0x2492 JUMP JUMPDEST POP POP POP POP POP POP JUMP JUMPDEST PUSH1 0x0 PUSH2 0x69A PUSH8 0xDE0B6B3A7640000 PUSH2 0x1B9B PUSH1 0xA SLOAD DUP6 PUSH2 0x2043 SWAP1 SWAP2 SWAP1 PUSH4 0xFFFFFFFF AND JUMP JUMPDEST PUSH1 0x0 DUP3 PUSH2 0x2052 JUMPI POP PUSH1 0x0 PUSH2 0x69A JUMP JUMPDEST DUP3 DUP3 MUL DUP3 DUP5 DUP3 DUP2 PUSH2 0x205F JUMPI INVALID JUMPDEST DIV EQ PUSH2 0xA26 JUMPI PUSH1 0x40 MLOAD PUSH3 0x461BCD PUSH1 0xE5 SHL DUP2 MSTORE PUSH1 0x4 ADD PUSH2 0x82F SWAP1 PUSH2 0x2DE5 JUMP JUMPDEST PUSH1 0x0 PUSH2 0xA26 DUP4 DUP4 PUSH1 0x40 MLOAD DUP1 PUSH1 0x40 ADD PUSH1 0x40 MSTORE DUP1 PUSH1 0x1A DUP2 MSTORE PUSH1 0x20 ADD PUSH32 0x536166654D6174683A206469766973696F6E206279207A65726F000000000000 DUP2 MSTORE POP PUSH2 0x2510 JUMP JUMPDEST PUSH1 0x1 PUSH1 0x1 PUSH1 0xA0 SHL SUB DUP3 AND PUSH1 0x0 SWAP1 DUP2 MSTORE PUSH1 0xD PUSH1 0x20 MSTORE PUSH1 0x40 DUP2 KECCAK256 DUP1 SLOAD SWAP1 SWAP2 SWAP1 PUSH1 0xC SWAP1 PUSH1 0x0 NOT EQ PUSH2 0x20EE JUMPI DUP3 SLOAD PUSH2 0x20F1 JUMP JUMPDEST PUSH1 0x0 JUMPDEST DUP2 SLOAD DUP2 LT PUSH2 0x20FB JUMPI INVALID JUMPDEST SWAP1 PUSH1 0x0 MSTORE PUSH1 0x20 PUSH1 0x0 KECCAK256 SWAP1 PUSH1 0x2 MUL ADD SWAP1 POP PUSH1 0x0 PUSH2 0x211F DUP4 PUSH1 0x1 ADD SLOAD DUP5 PUSH1 0x2 ADD SLOAD PUSH2 0x2477 JUMP JUMPDEST SWAP1 POP DUP4 DUP2 GT ISZERO PUSH2 0x212C JUMPI POP DUP3 JUMPDEST PUSH1 0x0 PUSH2 0x2137 DUP3 PUSH2 0x23D8 JUMP JUMPDEST DUP4 SLOAD SWAP1 SWAP2 POP ISZERO PUSH2 0x2338 JUMPI DUP2 DUP2 PUSH1 0x0 JUMPDEST PUSH1 0x1 DUP7 ADD SLOAD DUP2 LT ISZERO PUSH2 0x2330 JUMPI PUSH1 0x0 PUSH1 0xD PUSH1 0x0 DUP9 PUSH1 0x0 ADD DUP5 DUP2 SLOAD DUP2 LT PUSH2 0x2167 JUMPI INVALID JUMPDEST PUSH1 0x0 SWAP2 DUP3 MSTORE PUSH1 0x20 DUP1 DUP4 KECCAK256 SWAP1 SWAP2 ADD SLOAD PUSH1 0x1 PUSH1 0x1 PUSH1 0xA0 SHL SUB AND DUP4 MSTORE DUP3 ADD SWAP3 SWAP1 SWAP3 MSTORE PUSH1 0x40 ADD DUP2 KECCAK256 PUSH1 0x1 DUP10 ADD SLOAD SWAP1 SWAP3 POP PUSH1 0x0 NOT ADD DUP4 EQ SWAP1 DUP2 PUSH2 0x21F2 JUMPI PUSH4 0xFFFFFFFF DUP1 AND PUSH2 0x21E5 DUP11 PUSH1 0x1 ADD DUP7 DUP2 SLOAD DUP2 LT PUSH2 0x21B8 JUMPI INVALID JUMPDEST PUSH1 0x0 SWAP2 DUP3 MSTORE PUSH1 0x20 SWAP1 SWAP2 KECCAK256 PUSH1 0x8 DUP3 DIV ADD SLOAD DUP12 SWAP2 PUSH1 0x7 AND PUSH1 0x4 MUL PUSH2 0x100 EXP SWAP1 DIV PUSH4 0xFFFFFFFF SWAP1 DUP2 AND SWAP1 PUSH2 0x2043 AND JUMP JUMPDEST DUP2 PUSH2 0x21EC JUMPI INVALID JUMPDEST DIV PUSH2 0x21F4 JUMP JUMPDEST DUP6 JUMPDEST SWAP1 POP PUSH2 0x2204 DUP4 PUSH1 0x4 ADD SLOAD DUP3 PUSH2 0x2477 JUMP JUMPDEST DUP4 PUSH1 0x4 ADD DUP2 SWAP1 SSTORE POP PUSH2 0x224F DUP11 PUSH1 0x3 ADD PUSH1 0x0 DUP12 PUSH1 0x0 ADD DUP8 DUP2 SLOAD DUP2 LT PUSH2 0x2224 JUMPI INVALID JUMPDEST PUSH1 0x0 SWAP2 DUP3 MSTORE PUSH1 0x20 DUP1 DUP4 KECCAK256 SWAP1 SWAP2 ADD SLOAD PUSH1 0x1 PUSH1 0x1 PUSH1 0xA0 SHL SUB AND DUP4 MSTORE DUP3 ADD SWAP3 SWAP1 SWAP3 MSTORE PUSH1 0x40 ADD SWAP1 KECCAK256 SLOAD DUP3 PUSH2 0x2477 JUMP JUMPDEST DUP11 PUSH1 0x3 ADD PUSH1 0x0 DUP12 PUSH1 0x0 ADD DUP8 DUP2 SLOAD DUP2 LT PUSH2 0x2264 JUMPI INVALID JUMPDEST PUSH1 0x0 SWAP2 DUP3 MSTORE PUSH1 0x20 DUP1 DUP4 KECCAK256 SWAP1 SWAP2 ADD SLOAD PUSH1 0x1 PUSH1 0x1 PUSH1 0xA0 SHL SUB AND DUP4 MSTORE DUP3 ADD SWAP3 SWAP1 SWAP3 MSTORE PUSH1 0x40 ADD SWAP1 KECCAK256 SSTORE PUSH2 0x2293 DUP7 DUP3 PUSH2 0x2477 JUMP JUMPDEST SWAP6 POP PUSH1 0x0 DUP3 PUSH2 0x22C2 JUMPI PUSH4 0xFFFFFFFF DUP1 AND PUSH2 0x22B5 DUP12 PUSH1 0x1 ADD DUP8 DUP2 SLOAD DUP2 LT PUSH2 0x21B8 JUMPI INVALID JUMPDEST DUP2 PUSH2 0x22BC JUMPI INVALID JUMPDEST DIV PUSH2 0x22C4 JUMP JUMPDEST DUP6 JUMPDEST SWAP1 POP PUSH2 0x22D4 DUP5 PUSH1 0x5 ADD SLOAD DUP3 PUSH2 0x2477 JUMP JUMPDEST PUSH1 0x5 DUP6 ADD SSTORE PUSH2 0x22E3 DUP7 DUP3 PUSH2 0x2477 JUMP JUMPDEST SWAP6 POP PUSH2 0x22EE DUP5 PUSH2 0x2547 JUMP JUMPDEST PUSH2 0x2321 DUP14 DUP12 PUSH1 0x0 ADD DUP8 DUP2 SLOAD DUP2 LT PUSH2 0x2301 JUMPI INVALID JUMPDEST PUSH1 0x0 SWAP2 DUP3 MSTORE PUSH1 0x20 DUP3 KECCAK256 ADD SLOAD DUP15 SLOAD PUSH1 0x1 PUSH1 0x1 PUSH1 0xA0 SHL SUB SWAP1 SWAP2 AND SWAP2 DUP7 DUP7 PUSH2 0x2492 JUMP JUMPDEST POP POP POP POP DUP1 PUSH1 0x1 ADD SWAP1 POP PUSH2 0x2146 JUMP JUMPDEST POP POP POP PUSH2 0x237B JUMP JUMPDEST PUSH2 0x2346 DUP5 PUSH1 0x4 ADD SLOAD DUP4 PUSH2 0x2477 JUMP JUMPDEST PUSH1 0x4 DUP6 ADD SSTORE PUSH1 0x5 DUP5 ADD SLOAD PUSH2 0x235A SWAP1 DUP3 PUSH2 0x2477 JUMP JUMPDEST PUSH1 0x5 DUP6 ADD SSTORE PUSH2 0x2368 DUP5 PUSH2 0x2547 JUMP JUMPDEST PUSH2 0x237B DUP7 DUP8 DUP7 PUSH1 0x0 ADD SLOAD PUSH1 0x0 DUP7 DUP7 PUSH2 0x2492 JUMP JUMPDEST DUP2 DUP6 GT ISZERO PUSH2 0x2018 JUMPI PUSH2 0x238E DUP3 DUP7 SUB PUSH2 0x23D8 JUMP JUMPDEST SWAP1 POP PUSH2 0x239E DUP5 PUSH1 0x5 ADD SLOAD DUP3 PUSH2 0x2477 JUMP JUMPDEST PUSH1 0x5 DUP6 ADD SSTORE PUSH2 0x2018 DUP5 PUSH2 0x2547 JUMP JUMPDEST PUSH1 0x0 DUP2 DUP5 DUP5 GT ISZERO PUSH2 0x23D0 JUMPI PUSH1 0x40 MLOAD PUSH3 0x461BCD PUSH1 0xE5 SHL DUP2 MSTORE PUSH1 0x4 ADD PUSH2 0x82F SWAP2 SWAP1 PUSH2 0x2B27 JUMP JUMPDEST POP POP POP SWAP1 SUB SWAP1 JUMP JUMPDEST PUSH1 0x0 PUSH2 0x69A PUSH1 0x7 PUSH1 0x0 SWAP1 SLOAD SWAP1 PUSH2 0x100 EXP SWAP1 DIV PUSH1 0x1 PUSH1 0x1 PUSH1 0xA0 SHL SUB AND PUSH1 0x1 PUSH1 0x1 PUSH1 0xA0 SHL SUB AND PUSH4 0x182DF0F5 PUSH1 0x40 MLOAD DUP2 PUSH4 0xFFFFFFFF AND PUSH1 0xE0 SHL DUP2 MSTORE PUSH1 0x4 ADD PUSH1 0x20 PUSH1 0x40 MLOAD DUP1 DUP4 SUB DUP2 DUP7 DUP1 EXTCODESIZE ISZERO DUP1 ISZERO PUSH2 0x242B JUMPI PUSH1 0x0 DUP1 REVERT JUMPDEST POP GAS STATICCALL ISZERO DUP1 ISZERO PUSH2 0x243F JUMPI RETURNDATASIZE PUSH1 0x0 DUP1 RETURNDATACOPY RETURNDATASIZE PUSH1 0x0 REVERT JUMPDEST POP POP POP POP PUSH1 0x40 MLOAD RETURNDATASIZE PUSH1 0x1F NOT PUSH1 0x1F DUP3 ADD AND DUP3 ADD DUP1 PUSH1 0x40 MSTORE POP PUSH2 0x2463 SWAP2 SWAP1 DUP2 ADD SWAP1 PUSH2 0x28B6 JUMP JUMPDEST PUSH1 0xA SLOAD PUSH2 0x1B9B SWAP1 DUP6 SWAP1 PUSH4 0xFFFFFFFF PUSH2 0x2043 AND JUMP JUMPDEST PUSH1 0x0 DUP2 DUP4 LT ISZERO PUSH2 0x2489 JUMPI POP PUSH1 0x0 PUSH2 0x69A JUMP JUMPDEST POP DUP1 DUP3 SUB PUSH2 0x69A JUMP JUMPDEST PUSH1 0x0 DUP5 DUP2 MSTORE PUSH1 0xF PUSH1 0x20 MSTORE PUSH1 0x40 SWAP1 KECCAK256 DUP4 ISZERO PUSH2 0x24DF JUMPI PUSH1 0x1 DUP2 ADD SLOAD PUSH2 0x24BB SWAP1 DUP5 PUSH4 0xFFFFFFFF PUSH2 0x1BA7 AND JUMP JUMPDEST PUSH1 0x1 DUP3 ADD SSTORE PUSH1 0x2 DUP2 ADD SLOAD PUSH2 0x24D5 SWAP1 DUP4 PUSH4 0xFFFFFFFF PUSH2 0x1BA7 AND JUMP JUMPDEST PUSH1 0x2 DUP3 ADD SSTORE PUSH2 0x2507 JUMP JUMPDEST PUSH2 0x24ED DUP2 PUSH1 0x1 ADD SLOAD DUP5 PUSH2 0x2477 JUMP JUMPDEST PUSH1 0x1 DUP3 ADD SSTORE PUSH1 0x2 DUP2 ADD SLOAD PUSH2 0x2501 SWAP1 DUP4 PUSH2 0x2477 JUMP JUMPDEST PUSH1 0x2 DUP3 ADD SSTORE JUMPDEST POP POP POP POP POP POP POP JUMP JUMPDEST PUSH1 0x0 DUP2 DUP4 PUSH2 0x2531 JUMPI PUSH1 0x40 MLOAD PUSH3 0x461BCD PUSH1 0xE5 SHL DUP2 MSTORE PUSH1 0x4 ADD PUSH2 0x82F SWAP2 SWAP1 PUSH2 0x2B27 JUMP JUMPDEST POP PUSH1 0x0 DUP4 DUP6 DUP2 PUSH2 0x253D JUMPI INVALID JUMPDEST DIV SWAP6 SWAP5 POP POP POP POP POP JUMP JUMPDEST PUSH1 0x0 PUSH2 0x2556 DUP3 PUSH1 0x5 ADD SLOAD PUSH2 0x1AFD JUMP JUMPDEST SWAP1 POP DUP2 PUSH1 0x4 ADD SLOAD DUP2 SUB DUP3 PUSH1 0x2 ADD SLOAD GT ISZERO PUSH2 0x867 JUMPI PUSH1 0x4 DUP3 ADD SLOAD SWAP1 SUB PUSH1 0x2 SWAP1 SWAP2 ADD SSTORE JUMP JUMPDEST PUSH1 0x40 MLOAD DUP1 PUSH1 0x40 ADD PUSH1 0x40 MSTORE DUP1 PUSH1 0x60 DUP2 MSTORE PUSH1 0x20 ADD PUSH1 0x60 DUP2 MSTORE POP SWAP1 JUMP JUMPDEST DUP3 DUP1 SLOAD DUP3 DUP3 SSTORE SWAP1 PUSH1 0x0 MSTORE PUSH1 0x20 PUSH1 0x0 KECCAK256 SWAP1 DUP2 ADD SWAP3 DUP3 ISZERO PUSH2 0x25E8 JUMPI SWAP2 PUSH1 0x20 MUL DUP3 ADD JUMPDEST DUP3 DUP2 GT ISZERO PUSH2 0x25E8 JUMPI DUP3 MLOAD DUP3 SLOAD PUSH1 0x1 PUSH1 0x1 PUSH1 0xA0 SHL SUB NOT AND PUSH1 0x1 PUSH1 0x1 PUSH1 0xA0 SHL SUB SWAP1 SWAP2 AND OR DUP3 SSTORE PUSH1 0x20 SWAP1 SWAP3 ADD SWAP2 PUSH1 0x1 SWAP1 SWAP2 ADD SWAP1 PUSH2 0x25B3 JUMP JUMPDEST POP PUSH2 0x25F4 SWAP3 SWAP2 POP PUSH2 0x26A3 JUMP JUMPDEST POP SWAP1 JUMP JUMPDEST DUP3 DUP1 SLOAD DUP3 DUP3 SSTORE SWAP1 PUSH1 0x0 MSTORE PUSH1 0x20 PUSH1 0x0 KECCAK256 SWAP1 PUSH1 0x7 ADD PUSH1 0x8 SWAP1 DIV DUP2 ADD SWAP3 DUP3 ISZERO PUSH2 0x2697 JUMPI SWAP2 PUSH1 0x20 MUL DUP3 ADD PUSH1 0x0 JUMPDEST DUP4 DUP3 GT ISZERO PUSH2 0x2665 JUMPI DUP4 MLOAD DUP4 DUP3 PUSH2 0x100 EXP DUP2 SLOAD DUP2 PUSH4 0xFFFFFFFF MUL NOT AND SWAP1 DUP4 PUSH4 0xFFFFFFFF AND MUL OR SWAP1 SSTORE POP SWAP3 PUSH1 0x20 ADD SWAP3 PUSH1 0x4 ADD PUSH1 0x20 DUP2 PUSH1 0x3 ADD DIV SWAP3 DUP4 ADD SWAP3 PUSH1 0x1 SUB MUL PUSH2 0x2621 JUMP JUMPDEST DUP1 ISZERO PUSH2 0x2695 JUMPI DUP3 DUP2 PUSH2 0x100 EXP DUP2 SLOAD SWAP1 PUSH4 0xFFFFFFFF MUL NOT AND SWAP1 SSTORE PUSH1 0x4 ADD PUSH1 0x20 DUP2 PUSH1 0x3 ADD DIV SWAP3 DUP4 ADD SWAP3 PUSH1 0x1 SUB MUL PUSH2 0x2665 JUMP JUMPDEST POP JUMPDEST POP PUSH2 0x25F4 SWAP3 SWAP2 POP PUSH2 0x26C7 JUMP JUMPDEST PUSH2 0x7C0 SWAP2 SWAP1 JUMPDEST DUP1 DUP3 GT ISZERO PUSH2 0x25F4 JUMPI DUP1 SLOAD PUSH1 0x1 PUSH1 0x1 PUSH1 0xA0 SHL SUB NOT AND DUP2 SSTORE PUSH1 0x1 ADD PUSH2 0x26A9 JUMP JUMPDEST PUSH2 0x7C0 SWAP2 SWAP1 JUMPDEST DUP1 DUP3 GT ISZERO PUSH2 0x25F4 JUMPI DUP1 SLOAD PUSH4 0xFFFFFFFF NOT AND DUP2 SSTORE PUSH1 0x1 ADD PUSH2 0x26CD JUMP JUMPDEST DUP1 CALLDATALOAD PUSH1 0x1 PUSH1 0x1 PUSH1 0xA0 SHL SUB DUP2 AND DUP2 EQ PUSH2 0x69A JUMPI PUSH1 0x0 DUP1 REVERT JUMPDEST PUSH1 0x0 DUP1 DUP4 PUSH1 0x1F DUP5 ADD SLT PUSH2 0x2710 JUMPI DUP2 DUP3 REVERT JUMPDEST POP DUP2 CALLDATALOAD PUSH8 0xFFFFFFFFFFFFFFFF DUP2 GT ISZERO PUSH2 0x2727 JUMPI DUP2 DUP3 REVERT JUMPDEST PUSH1 0x20 DUP4 ADD SWAP2 POP DUP4 PUSH1 0x20 DUP1 DUP4 MUL DUP6 ADD ADD GT ISZERO PUSH2 0x2741 JUMPI PUSH1 0x0 DUP1 REVERT JUMPDEST SWAP3 POP SWAP3 SWAP1 POP JUMP JUMPDEST PUSH1 0x0 PUSH1 0x20 DUP3 DUP5 SUB SLT ISZERO PUSH2 0x2759 JUMPI DUP1 DUP2 REVERT JUMPDEST PUSH2 0xA26 DUP4 DUP4 PUSH2 0x26E8 JUMP JUMPDEST PUSH1 0x0 DUP1 PUSH1 0x40 DUP4 DUP6 SUB SLT ISZERO PUSH2 0x2775 JUMPI DUP1 DUP2 REVERT JUMPDEST PUSH2 0x277F DUP5 DUP5 PUSH2 0x26E8 JUMP JUMPDEST SWAP2 POP PUSH2 0x278E DUP5 PUSH1 0x20 DUP6 ADD PUSH2 0x26E8 JUMP JUMPDEST SWAP1 POP SWAP3 POP SWAP3 SWAP1 POP JUMP JUMPDEST PUSH1 0x0 DUP1 PUSH1 0x0 PUSH1 0x60 DUP5 DUP7 SUB SLT ISZERO PUSH2 0x27AB JUMPI DUP1 DUP2 REVERT JUMPDEST DUP4 CALLDATALOAD PUSH2 0x27B6 DUP2 PUSH2 0x3052 JUMP JUMPDEST SWAP3 POP PUSH1 0x20 DUP5 ADD CALLDATALOAD PUSH2 0x27C6 DUP2 PUSH2 0x3052 JUMP JUMPDEST SWAP3 SWAP6 SWAP3 SWAP5 POP POP POP PUSH1 0x40 SWAP2 SWAP1 SWAP2 ADD CALLDATALOAD SWAP1 JUMP JUMPDEST PUSH1 0x0 DUP1 PUSH1 0x40 DUP4 DUP6 SUB SLT ISZERO PUSH2 0x27E9 JUMPI DUP2 DUP3 REVERT JUMPDEST PUSH2 0x27F3 DUP5 DUP5 PUSH2 0x26E8 JUMP JUMPDEST SWAP5 PUSH1 0x20 SWAP4 SWAP1 SWAP4 ADD CALLDATALOAD SWAP4 POP POP POP JUMP JUMPDEST PUSH1 0x0 DUP1 PUSH1 0x0 DUP1 PUSH1 0x0 PUSH1 0x60 DUP7 DUP9 SUB SLT ISZERO PUSH2 0x2818 JUMPI DUP1 DUP2 REVERT JUMPDEST DUP6 CALLDATALOAD PUSH8 0xFFFFFFFFFFFFFFFF DUP1 DUP3 GT ISZERO PUSH2 0x282F JUMPI DUP3 DUP4 REVERT JUMPDEST PUSH2 0x283B DUP10 DUP4 DUP11 ADD PUSH2 0x26FF JUMP JUMPDEST SWAP1 SWAP8 POP SWAP6 POP PUSH1 0x20 DUP9 ADD CALLDATALOAD SWAP2 POP DUP1 DUP3 GT ISZERO PUSH2 0x2853 JUMPI DUP3 DUP4 REVERT JUMPDEST POP PUSH2 0x2860 DUP9 DUP3 DUP10 ADD PUSH2 0x26FF JUMP JUMPDEST SWAP1 SWAP5 POP SWAP3 POP POP PUSH1 0x40 DUP7 ADD CALLDATALOAD PUSH2 0x2874 DUP2 PUSH2 0x306A JUMP JUMPDEST DUP1 SWAP2 POP POP SWAP3 SWAP6 POP SWAP3 SWAP6 SWAP1 SWAP4 POP JUMP JUMPDEST PUSH1 0x0 PUSH1 0x20 DUP3 DUP5 SUB SLT ISZERO PUSH2 0x2893 JUMPI DUP1 DUP2 REVERT JUMPDEST DUP2 MLOAD PUSH2 0xA26 DUP2 PUSH2 0x306A JUMP JUMPDEST PUSH1 0x0 PUSH1 0x20 DUP3 DUP5 SUB SLT ISZERO PUSH2 0x28AF JUMPI DUP1 DUP2 REVERT JUMPDEST POP CALLDATALOAD SWAP2 SWAP1 POP JUMP JUMPDEST PUSH1 0x0 PUSH1 0x20 DUP3 DUP5 SUB SLT ISZERO PUSH2 0x28C7 JUMPI DUP1 DUP2 REVERT JUMPDEST POP MLOAD SWAP2 SWAP1 POP JUMP JUMPDEST PUSH1 0x0 DUP1 PUSH1 0x0 DUP1 PUSH1 0x0 PUSH1 0x60 DUP7 DUP9 SUB SLT ISZERO PUSH2 0x28E5 JUMPI DUP1 DUP2 REVERT JUMPDEST DUP6 CALLDATALOAD SWAP5 POP PUSH1 0x20 DUP7 ADD CALLDATALOAD PUSH8 0xFFFFFFFFFFFFFFFF DUP1 DUP3 GT ISZERO PUSH2 0x2903 JUMPI DUP3 DUP4 REVERT JUMPDEST PUSH2 0x290F DUP10 DUP4 DUP11 ADD PUSH2 0x26FF JUMP JUMPDEST SWAP1 SWAP7 POP SWAP5 POP PUSH1 0x40 DUP9 ADD CALLDATALOAD SWAP2 POP DUP1 DUP3 GT ISZERO PUSH2 0x2927 JUMPI DUP3 DUP4 REVERT JUMPDEST POP PUSH2 0x2934 DUP9 DUP3 DUP10 ADD PUSH2 0x26FF JUMP JUMPDEST SWAP7 SWAP10 SWAP6 SWAP9 POP SWAP4 SWAP7 POP SWAP3 SWAP5 SWAP4 SWAP3 POP POP POP JUMP JUMPDEST PUSH1 0x0 DUP1 PUSH1 0x40 DUP4 DUP6 SUB SLT ISZERO PUSH2 0x2957 JUMPI DUP2 DUP3 REVERT JUMPDEST POP POP DUP1 CALLDATALOAD SWAP3 PUSH1 0x20 SWAP1 SWAP2 ADD CALLDATALOAD SWAP2 POP JUMP JUMPDEST PUSH1 0x0 DUP1 PUSH1 0x40 DUP4 DUP6 SUB SLT ISZERO PUSH2 0x2978 JUMPI DUP2 DUP3 REVERT JUMPDEST DUP3 CALLDATALOAD SWAP2 POP PUSH1 0x20 DUP4 ADD CALLDATALOAD PUSH4 0xFFFFFFFF DUP2 AND DUP2 EQ PUSH2 0x2992 JUMPI DUP2 DUP3 REVERT JUMPDEST DUP1 SWAP2 POP POP SWAP3 POP SWAP3 SWAP1 POP JUMP JUMPDEST PUSH1 0x0 DUP2 MLOAD DUP1 DUP5 MSTORE PUSH1 0x20 DUP5 ADD SWAP4 POP PUSH1 0x20 DUP4 ADD DUP3 JUMPDEST DUP3 DUP2 LT ISZERO PUSH2 0x29D7 JUMPI DUP2 MLOAD PUSH1 0x1 PUSH1 0x1 PUSH1 0xA0 SHL SUB AND DUP7 MSTORE PUSH1 0x20 SWAP6 DUP7 ADD SWAP6 SWAP1 SWAP2 ADD SWAP1 PUSH1 0x1 ADD PUSH2 0x29B0 JUMP JUMPDEST POP SWAP4 SWAP5 SWAP4 POP POP POP POP JUMP JUMPDEST PUSH1 0x0 DUP2 MLOAD DUP1 DUP5 MSTORE PUSH1 0x20 DUP5 ADD SWAP4 POP PUSH1 0x20 DUP4 ADD DUP3 JUMPDEST DUP3 DUP2 LT ISZERO PUSH2 0x29D7 JUMPI DUP2 MLOAD PUSH4 0xFFFFFFFF AND DUP7 MSTORE PUSH1 0x20 SWAP6 DUP7 ADD SWAP6 SWAP1 SWAP2 ADD SWAP1 PUSH1 0x1 ADD PUSH2 0x29F4 JUMP JUMPDEST PUSH1 0x0 DUP2 MLOAD DUP1 DUP5 MSTORE DUP2 JUMPDEST DUP2 DUP2 LT ISZERO PUSH2 0x2A3D JUMPI PUSH1 0x20 DUP2 DUP6 ADD DUP2 ADD MLOAD DUP7 DUP4 ADD DUP3 ADD MSTORE ADD PUSH2 0x2A21 JUMP JUMPDEST DUP2 DUP2 GT ISZERO PUSH2 0x2A4E JUMPI DUP3 PUSH1 0x20 DUP4 DUP8 ADD ADD MSTORE JUMPDEST POP PUSH1 0x1F ADD PUSH1 0x1F NOT AND SWAP3 SWAP1 SWAP3 ADD PUSH1 0x20 ADD SWAP3 SWAP2 POP POP JUMP JUMPDEST PUSH1 0x1 PUSH1 0x1 PUSH1 0xA0 SHL SUB SWAP2 SWAP1 SWAP2 AND DUP2 MSTORE PUSH1 0x20 ADD SWAP1 JUMP JUMPDEST PUSH1 0x1 PUSH1 0x1 PUSH1 0xA0 SHL SUB SWAP3 DUP4 AND DUP2 MSTORE SWAP2 AND PUSH1 0x20 DUP3 ADD MSTORE PUSH1 0x40 ADD SWAP1 JUMP JUMPDEST PUSH1 0x1 PUSH1 0x1 PUSH1 0xA0 SHL SUB SWAP4 DUP5 AND DUP2 MSTORE SWAP2 SWAP1 SWAP3 AND PUSH1 0x20 DUP3 ADD MSTORE PUSH1 0x40 DUP2 ADD SWAP2 SWAP1 SWAP2 MSTORE PUSH1 0x60 ADD SWAP1 JUMP JUMPDEST PUSH1 0x1 PUSH1 0x1 PUSH1 0xA0 SHL SUB SWAP3 SWAP1 SWAP3 AND DUP3 MSTORE PUSH1 0x20 DUP3 ADD MSTORE PUSH1 0x40 ADD SWAP1 JUMP JUMPDEST PUSH1 0x1 PUSH1 0x1 PUSH1 0xA0 SHL SUB SWAP5 DUP6 AND DUP2 MSTORE SWAP3 SWAP1 SWAP4 AND PUSH1 0x20 DUP4 ADD MSTORE PUSH1 0x40 DUP3 ADD MSTORE PUSH1 0x60 DUP2 ADD SWAP2 SWAP1 SWAP2 MSTORE PUSH1 0x80 ADD SWAP1 JUMP JUMPDEST PUSH1 0x0 PUSH1 0x40 DUP3 MSTORE PUSH2 0x2B0A PUSH1 0x40 DUP4 ADD DUP6 PUSH2 0x299D JUMP JUMPDEST DUP3 DUP2 SUB PUSH1 0x20 DUP5 ADD MSTORE PUSH2 0x90D DUP2 DUP6 PUSH2 0x29E1 JUMP JUMPDEST SWAP1 ISZERO ISZERO DUP2 MSTORE PUSH1 0x20 ADD SWAP1 JUMP JUMPDEST PUSH1 0x0 PUSH1 0x20 DUP3 MSTORE PUSH2 0xA26 PUSH1 0x20 DUP4 ADD DUP5 PUSH2 0x2A18 JUMP JUMPDEST PUSH1 0x20 DUP1 DUP3 MSTORE PUSH1 0x15 SWAP1 DUP3 ADD MSTORE PUSH21 0x1858D8DC9D59525B9D195C995CDD0819985A5B1959 PUSH1 0x5A SHL PUSH1 0x40 DUP3 ADD MSTORE PUSH1 0x60 ADD SWAP1 JUMP JUMPDEST PUSH1 0x20 DUP1 DUP3 MSTORE PUSH1 0x21 SWAP1 DUP3 ADD MSTORE PUSH32 0x4E6F7420656E6F75676820616C6C6F77616E636520666F72207472616E736665 PUSH1 0x40 DUP3 ADD MSTORE PUSH1 0x39 PUSH1 0xF9 SHL PUSH1 0x60 DUP3 ADD MSTORE PUSH1 0x80 ADD SWAP1 JUMP JUMPDEST PUSH1 0x20 DUP1 DUP3 MSTORE PUSH1 0x26 SWAP1 DUP3 ADD MSTORE PUSH32 0x4F776E61626C653A206E6577206F776E657220697320746865207A65726F2061 PUSH1 0x40 DUP3 ADD MSTORE PUSH6 0x646472657373 PUSH1 0xD0 SHL PUSH1 0x60 DUP3 ADD MSTORE PUSH1 0x80 ADD SWAP1 JUMP JUMPDEST PUSH1 0x20 DUP1 DUP3 MSTORE DUP2 DUP2 ADD MSTORE PUSH32 0x496E76616C6964206861743A206C656E677468206E6F74206D61746368696E67 PUSH1 0x40 DUP3 ADD MSTORE PUSH1 0x60 ADD SWAP1 JUMP JUMPDEST PUSH1 0x20 DUP1 DUP3 MSTORE PUSH1 0xE SWAP1 DUP3 ADD MSTORE PUSH14 0x125B9D985B1A59081A185D081251 PUSH1 0x92 SHL PUSH1 0x40 DUP3 ADD MSTORE PUSH1 0x60 ADD SWAP1 JUMP JUMPDEST PUSH1 0x20 DUP1 DUP3 MSTORE PUSH1 0x1B SWAP1 DUP3 ADD MSTORE PUSH32 0x536166654D6174683A206164646974696F6E206F766572666C6F770000000000 PUSH1 0x40 DUP3 ADD MSTORE PUSH1 0x60 ADD SWAP1 JUMP JUMPDEST PUSH1 0x20 DUP1 DUP3 MSTORE PUSH1 0x28 SWAP1 DUP3 ADD MSTORE PUSH32 0x496E76616C6964206861743A20726563697069656E742073686F756C64206E6F PUSH1 0x40 DUP3 ADD MSTORE PUSH8 0x742062652030783 PUSH1 0xC4 SHL PUSH1 0x60 DUP3 ADD MSTORE PUSH1 0x80 ADD SWAP1 JUMP JUMPDEST PUSH1 0x20 DUP1 DUP3 MSTORE PUSH1 0x14 SWAP1 DUP3 ADD MSTORE PUSH20 0x1D1BDAD95B88185C1C1C9BDD994819985A5B1959 PUSH1 0x62 SHL PUSH1 0x40 DUP3 ADD MSTORE PUSH1 0x60 ADD SWAP1 JUMP JUMPDEST PUSH1 0x20 DUP1 DUP3 MSTORE PUSH1 0x2E SWAP1 DUP3 ADD MSTORE PUSH32 0x41646D696E2063616E206F6E6C79206368616E67652068617420666F7220636F PUSH1 0x40 DUP3 ADD MSTORE PUSH14 0x6E74726163742061646472657373 PUSH1 0x90 SHL PUSH1 0x60 DUP3 ADD MSTORE PUSH1 0x80 ADD SWAP1 JUMP JUMPDEST PUSH1 0x20 DUP1 DUP3 MSTORE PUSH1 0x18 SWAP1 DUP3 ADD MSTORE PUSH32 0x7372632073686F756C64206E6F7420657175616C206473740000000000000000 PUSH1 0x40 DUP3 ADD MSTORE PUSH1 0x60 ADD SWAP1 JUMP JUMPDEST PUSH1 0x20 DUP1 DUP3 MSTORE PUSH1 0x1C SWAP1 DUP3 ADD MSTORE PUSH32 0x4E6F7420656E6F7567682062616C616E636520746F2072656465656D00000000 PUSH1 0x40 DUP3 ADD MSTORE PUSH1 0x60 ADD SWAP1 JUMP JUMPDEST PUSH1 0x20 DUP1 DUP3 MSTORE PUSH1 0x15 SWAP1 DUP3 ADD MSTORE PUSH21 0x1D1BDAD95B881D1C985B9CD9995C8819985A5B1959 PUSH1 0x5A SHL PUSH1 0x40 DUP3 ADD MSTORE PUSH1 0x60 ADD SWAP1 JUMP JUMPDEST PUSH1 0x20 DUP1 DUP3 MSTORE PUSH1 0x21 SWAP1 DUP3 ADD MSTORE PUSH32 0x536166654D6174683A206D756C7469706C69636174696F6E206F766572666C6F PUSH1 0x40 DUP3 ADD MSTORE PUSH1 0x77 PUSH1 0xF8 SHL PUSH1 0x60 DUP3 ADD MSTORE PUSH1 0x80 ADD SWAP1 JUMP JUMPDEST PUSH1 0x20 DUP1 DUP3 MSTORE DUP2 DUP2 ADD MSTORE PUSH32 0x4F776E61626C653A2063616C6C6572206973206E6F7420746865206F776E6572 PUSH1 0x40 DUP3 ADD MSTORE PUSH1 0x60 ADD SWAP1 JUMP JUMPDEST PUSH1 0x20 DUP1 DUP3 MSTORE PUSH1 0x1E SWAP1 DUP3 ADD MSTORE PUSH32 0x4E6F7420656E6F7567682062616C616E636520746F207472616E736665720000 PUSH1 0x40 DUP3 ADD MSTORE PUSH1 0x60 ADD SWAP1 JUMP JUMPDEST PUSH1 0x20 DUP1 DUP3 MSTORE PUSH1 0x1C SWAP1 DUP3 ADD MSTORE PUSH32 0x52656465656D20616D6F756E742063616E6E6F74206265207A65726F00000000 PUSH1 0x40 DUP3 ADD MSTORE PUSH1 0x60 ADD SWAP1 JUMP JUMPDEST PUSH1 0x20 DUP1 DUP3 MSTORE PUSH1 0x14 SWAP1 DUP3 ADD MSTORE PUSH20 0x4E6F7420656E6F75676820616C6C6F77616E6365 PUSH1 0x60 SHL PUSH1 0x40 DUP3 ADD MSTORE PUSH1 0x60 ADD SWAP1 JUMP JUMPDEST PUSH1 0x20 DUP1 DUP3 MSTORE PUSH1 0x32 SWAP1 DUP3 ADD MSTORE PUSH32 0x496E76616C696C64206861743A206D6178696D756D206E756D626572206F6620 PUSH1 0x40 DUP3 ADD MSTORE PUSH18 0x1C9958DA5C1A595B9D1CC81C995858DA1959 PUSH1 0x72 SHL PUSH1 0x60 DUP3 ADD MSTORE PUSH1 0x80 ADD SWAP1 JUMP JUMPDEST PUSH1 0x20 DUP1 DUP3 MSTORE PUSH1 0x2F SWAP1 DUP3 ADD MSTORE PUSH32 0x496E76616C6964206861743A2070726F706F7274696F6E2073686F756C642062 PUSH1 0x40 DUP3 ADD MSTORE PUSH15 0x65206C6172676572207468616E203 PUSH1 0x8C SHL PUSH1 0x60 DUP3 ADD MSTORE PUSH1 0x80 ADD SWAP1 JUMP JUMPDEST PUSH1 0x20 DUP1 DUP3 MSTORE PUSH1 0x23 SWAP1 DUP3 ADD MSTORE PUSH32 0x496E76616C6964206861743A206174206C65617374206F6E6520726563697069 PUSH1 0x40 DUP3 ADD MSTORE PUSH3 0x195B9D PUSH1 0xEA SHL PUSH1 0x60 DUP3 ADD MSTORE PUSH1 0x80 ADD SWAP1 JUMP JUMPDEST SWAP1 DUP2 MSTORE PUSH1 0x20 ADD SWAP1 JUMP JUMPDEST PUSH1 0x0 DUP5 DUP3 MSTORE PUSH1 0x60 PUSH1 0x20 DUP4 ADD MSTORE PUSH2 0x2FFD PUSH1 0x60 DUP4 ADD DUP6 PUSH2 0x299D JUMP JUMPDEST DUP3 DUP2 SUB PUSH1 0x40 DUP5 ADD MSTORE PUSH2 0x300F DUP2 DUP6 PUSH2 0x29E1 JUMP JUMPDEST SWAP7 SWAP6 POP POP POP POP POP POP JUMP JUMPDEST SWAP3 DUP4 MSTORE PUSH1 0x20 DUP4 ADD SWAP2 SWAP1 SWAP2 MSTORE PUSH1 0x40 DUP3 ADD MSTORE PUSH1 0x60 ADD SWAP1 JUMP JUMPDEST SWAP5 DUP6 MSTORE PUSH1 0x20 DUP6 ADD SWAP4 SWAP1 SWAP4 MSTORE PUSH1 0x40 DUP5 ADD SWAP2 SWAP1 SWAP2 MSTORE PUSH1 0x60 DUP4 ADD MSTORE PUSH1 0x80 DUP3 ADD MSTORE PUSH1 0xA0 ADD SWAP1 JUMP JUMPDEST PUSH1 0x1 PUSH1 0x1 PUSH1 0xA0 SHL SUB DUP2 AND DUP2 EQ PUSH2 0x3067 JUMPI PUSH1 0x0 DUP1 REVERT JUMPDEST POP JUMP JUMPDEST DUP1 ISZERO ISZERO DUP2 EQ PUSH2 0x3067 JUMPI PUSH1 0x0 DUP1 REVERT INVALID LOG2 PUSH5 0x6970667358 0x22 SLT KECCAK256 MUL 0xCC 0x2A 0xB6 MUL 0xE5 PC 0x2D SWAP15 PUSH24 0x8C668EF2F15F871EC8F8C7AF56BE11534A0D30E132D56473 PUSH16 0x6C634300060000330000000000000000 "
        },
        "methodIdentifiers": {
          "_guardCounter()": "bf5bfdfb",
          "_owner()": "b2bdfa7b",
          "accountStats(address)": "496cc164",
          "accounts(address)": "5e5c06e2",
          "allowance(address,address)": "dd62ed3e",
          "approve(address,uint256)": "095ea7b3",
          "balanceOf(address)": "70a08231",
          "changeHat(uint256)": "2f2ba814",
          "changeHatFor(address,uint256)": "4929fbf7",
          "createHat(address[],uint32[],bool)": "5cde5055",
          "decimals()": "313ce567",
          "getHatByAddress(address)": "054ab01a",
          "getHatByID(uint256)": "1cda95d5",
          "getMaximumHatID()": "3e20a929",
          "hatStats(uint256)": "f04bf8b3",
          "ias()": "556043ef",
          "initialized()": "158ef93e",
          "interestPayableOf(address)": "77ede051",
          "mint(uint256)": "a0712d68",
          "mintWithNewHat(uint256,address[],uint32[])": "b5dbfc1a",
          "mintWithNewHatForBuidlGuidl(uint256,uint32)": "d51e0ecf",
          "mintWithSelectedHat(uint256,uint256)": "388c0b8c",
          "name()": "06fdde03",
          "owner()": "8da5cb5b",
          "payInterest(address)": "d007c644",
          "receivedLoanOf(address)": "13e23e41",
          "receivedSavingsOf(address)": "fdbbf8ac",
          "redeem(uint256)": "db006a75",
          "redeemAll()": "2f4350c2",
          "redeemAndTransfer(address,uint256)": "d271be3f",
          "redeemAndTransferAll(address)": "0290cbc8",
          "renounceOwnership()": "715018a6",
          "savingAssetConversionRate()": "c200659e",
          "savingAssetOrignalAmount()": "71ee46eb",
          "symbol()": "95d89b41",
          "token()": "fc0c546a",
          "totalSupply()": "18160ddd",
          "transfer(address,uint256)": "a9059cbb",
          "transferAll(address)": "a3a7e7f3",
          "transferAllFrom(address,address)": "84d4b410",
          "transferAllowances(address,address)": "63152a50",
          "transferFrom(address,address,uint256)": "23b872dd",
          "transferOwnership(address)": "f2fde38b"
        }
      }
    }
  }
}